{
  "_format": "hh-sol-artifact-1",
  "contractName": "DummyPriceOracleForTesting",
  "sourceName": "contracts/test/DummyPriceOracleForTesting.sol",
  "abi": [
    {
      "inputs": [],
      "name": "getLatestPrice",
      "outputs": [
        {
          "internalType": "int256",
          "name": "",
          "type": "int256"
        }
      ],
      "stateMutability": "view",
      "type": "function"
    },
    {
      "inputs": [],
      "name": "latestAnswer",
      "outputs": [
        {
          "internalType": "int256",
          "name": "",
          "type": "int256"
        }
      ],
      "stateMutability": "view",
      "type": "function"
    },
    {
      "inputs": [
        {
          "internalType": "int256",
          "name": "_latestAnswer",
          "type": "int256"
        }
      ],
      "name": "setLatestAnswer",
      "outputs": [],
      "stateMutability": "nonpayable",
      "type": "function"
    },
    {
      "inputs": [
        {
          "internalType": "int256",
          "name": "_price",
          "type": "int256"
        }
      ],
      "name": "setLatestPrice",
      "outputs": [],
      "stateMutability": "nonpayable",
      "type": "function"
    }
  ],
  "bytecode": "0x608060405234801561001057600080fd5b506101b0806100206000396000f3fe608060405234801561001057600080fd5b506004361061004c5760003560e01c806304ea97b01461005157806350d25bcd1461006d578063805fe7fb1461008b5780638e15f473146100a7575b600080fd5b61006b600480360381019061006691906100fd565b6100c5565b005b6100756100cf565b6040516100829190610139565b60405180910390f35b6100a560048036038101906100a091906100fd565b6100d5565b005b6100af6100df565b6040516100bc9190610139565b60405180910390f35b8060018190555050565b60015481565b8060008190555050565b60008054905090565b6000813590506100f781610163565b92915050565b6000602082840312156101135761011261015e565b5b6000610121848285016100e8565b91505092915050565b61013381610154565b82525050565b600060208201905061014e600083018461012a565b92915050565b6000819050919050565b600080fd5b61016c81610154565b811461017757600080fd5b5056fea2646970667358221220fdb24e76ede5509d3957429cbd54ee41102e433f0dd2c29a1c59fc6a000d40f164736f6c63430008060033",
  "linkReferences": {},
  "deployedLinkReferences": {}
}