{
  "_format": "hh-sol-artifact-1",
  "contractName": "AlchemistAcademy",
  "sourceName": "contracts/AlchemistAcademy.sol",
  "abi": [
    {
      "inputs": [],
      "stateMutability": "nonpayable",
      "type": "constructor"
    },
    {
      "inputs": [],
      "name": "MINTER_ROLE",
      "outputs": [
        {
          "internalType": "bytes32",
          "name": "",
          "type": "bytes32"
        }
      ],
      "stateMutability": "view",
      "type": "function"
    },
    {
      "inputs": [
        {
          "internalType": "address",
          "name": "_Chyme",
          "type": "address"
        },
        {
          "internalType": "address",
          "name": "_priceOracle",
          "type": "address"
        },
        {
          "internalType": "string",
          "name": "_symbol",
          "type": "string"
        }
      ],
      "name": "alchemist",
      "outputs": [
        {
          "internalType": "address",
          "name": "",
          "type": "address"
        }
      ],
      "stateMutability": "nonpayable",
      "type": "function"
    },
    {
      "inputs": [],
      "name": "getLatestAlchemist",
      "outputs": [
        {
          "internalType": "address",
          "name": "",
          "type": "address"
        }
      ],
      "stateMutability": "view",
      "type": "function"
    }
  ],
  "bytecode": "0x60e06040526040518060400160405280600781526020017f5374656164792000000000000000000000000000000000000000000000000000815250600090805190602001906200005192919062000276565b506040518060400160405280600781526020017f456c697869722000000000000000000000000000000000000000000000000000815250600190805190602001906200009f92919062000276565b506040518060400160405280600181526020017f530000000000000000000000000000000000000000000000000000000000000081525060029080519060200190620000ed92919062000276565b506040518060400160405280600181526020017f4500000000000000000000000000000000000000000000000000000000000000815250600390805190602001906200013b92919062000276565b503480156200014957600080fd5b50604051620001589062000307565b604051809103906000f08015801562000175573d6000803e3d6000fd5b5073ffffffffffffffffffffffffffffffffffffffff1660808173ffffffffffffffffffffffffffffffffffffffff1660601b81525050604051620001ba9062000307565b604051809103906000f080158015620001d7573d6000803e3d6000fd5b5073ffffffffffffffffffffffffffffffffffffffff1660a08173ffffffffffffffffffffffffffffffffffffffff1660601b815250506040516200021c9062000315565b604051809103906000f08015801562000239573d6000803e3d6000fd5b5073ffffffffffffffffffffffffffffffffffffffff1660c08173ffffffffffffffffffffffffffffffffffffffff1660601b81525050620003a7565b828054620002849062000342565b90600052602060002090601f016020900481019282620002a85760008555620002f4565b82601f10620002c357805160ff1916838001178555620002f4565b82800160010185558215620002f4579182015b82811115620002f3578251825591602001919060010190620002d6565b5b50905062000303919062000323565b5090565b6141318062000f5983390190565b611def806200508a83390190565b5b808211156200033e57600081600090555060010162000324565b5090565b600060028204905060018216806200035b57607f821691505b6020821081141562000372576200037162000378565b5b50919050565b7f4e487b7100000000000000000000000000000000000000000000000000000000600052602260045260246000fd5b60805160601c60a05160601c60c05160601c610b79620003e06000396000610163015260006103b90152600061045e0152610b796000f3fe608060405234801561001057600080fd5b50600436106100415760003560e01c8063482c2a92146100465780634d5ce41514610076578063d539139314610094575b600080fd5b610060600480360381019061005b9190610655565b6100b2565b60405161006d9190610812565b60405180910390f35b61007e610363565b60405161008b9190610812565b60405180910390f35b61009c61038d565b6040516100a99190610872565b60405180910390f35b60008082905060006101086000836040516020016100d19291906107ee565b6040516020818303038152906040526002846040516020016100f49291906107ee565b6040516020818303038152906040526103b1565b9050600061015a6001846040516020016101239291906107ee565b6040516020818303038152906040526003856040516020016101469291906107ee565b604051602081830303815290604052610456565b905060006101877f00000000000000000000000000000000000000000000000000000000000000006104fb565b90508073ffffffffffffffffffffffffffffffffffffffff1663f8c8765e8985858b6040518563ffffffff1660e01b81526004016101c8949392919061082d565b600060405180830381600087803b1580156101e257600080fd5b505af11580156101f6573d6000803e3d6000fd5b505050508173ffffffffffffffffffffffffffffffffffffffff16632f2ff15d7f9f2df0fed2c77648de5860a4cc508cd0818c85b8b8a1ab4ceeef8d981c8956a6836040518363ffffffff1660e01b815260040161025592919061088d565b600060405180830381600087803b15801561026f57600080fd5b505af1158015610283573d6000803e3d6000fd5b505050508273ffffffffffffffffffffffffffffffffffffffff16632f2ff15d7f9f2df0fed2c77648de5860a4cc508cd0818c85b8b8a1ab4ceeef8d981c8956a6836040518363ffffffff1660e01b81526004016102e292919061088d565b600060405180830381600087803b1580156102fc57600080fd5b505af1158015610310573d6000803e3d6000fd5b5050505080600460006101000a81548173ffffffffffffffffffffffffffffffffffffffff021916908373ffffffffffffffffffffffffffffffffffffffff160217905550809450505050509392505050565b6000600460009054906101000a900473ffffffffffffffffffffffffffffffffffffffff16905090565b7f9f2df0fed2c77648de5860a4cc508cd0818c85b8b8a1ab4ceeef8d981c8956a681565b6000806103dd7f00000000000000000000000000000000000000000000000000000000000000006104fb565b90508073ffffffffffffffffffffffffffffffffffffffff16634cd88b7685856040518363ffffffff1660e01b815260040161041a9291906108b6565b600060405180830381600087803b15801561043457600080fd5b505af1158015610448573d6000803e3d6000fd5b505050508091505092915050565b6000806104827f00000000000000000000000000000000000000000000000000000000000000006104fb565b90508073ffffffffffffffffffffffffffffffffffffffff16634cd88b7685856040518363ffffffff1660e01b81526004016104bf9291906108b6565b600060405180830381600087803b1580156104d957600080fd5b505af11580156104ed573d6000803e3d6000fd5b505050508091505092915050565b60006040517f3d602d80600a3d3981f3363d3d373d3d3d363d7300000000000000000000000081528260601b60148201527f5af43d82803e903d91602b57fd5bf3000000000000000000000000000000000060288201526037816000f0915050600073ffffffffffffffffffffffffffffffffffffffff168173ffffffffffffffffffffffffffffffffffffffff1614156105cb576040517f08c379a00000000000000000000000000000000000000000000000000000000081526004016105c2906108ed565b60405180910390fd5b919050565b60006105e36105de84610932565b61090d565b9050828152602081018484840111156105ff576105fe610ae3565b5b61060a8482856109db565b509392505050565b60008135905061062181610b2c565b92915050565b600082601f83011261063c5761063b610ade565b5b813561064c8482602086016105d0565b91505092915050565b60008060006060848603121561066e5761066d610aed565b5b600061067c86828701610612565b935050602061068d86828701610612565b925050604084013567ffffffffffffffff8111156106ae576106ad610ae8565b5b6106ba86828701610627565b9150509250925092565b6106cd8161099f565b82525050565b6106dc816109b1565b82525050565b60006106ed82610978565b6106f78185610983565b93506107078185602086016109ea565b61071081610af2565b840191505092915050565b600061072682610978565b6107308185610994565b93506107408185602086016109ea565b80840191505092915050565b6000815461075981610a1d565b6107638186610994565b9450600182166000811461077e576001811461078f576107c2565b60ff198316865281860193506107c2565b61079885610963565b60005b838110156107ba5781548189015260018201915060208101905061079b565b838801955050505b50505092915050565b60006107d8601683610983565b91506107e382610b03565b602082019050919050565b60006107fa828561074c565b9150610806828461071b565b91508190509392505050565b600060208201905061082760008301846106c4565b92915050565b600060808201905061084260008301876106c4565b61084f60208301866106c4565b61085c60408301856106c4565b61086960608301846106c4565b95945050505050565b600060208201905061088760008301846106d3565b92915050565b60006040820190506108a260008301856106d3565b6108af60208301846106c4565b9392505050565b600060408201905081810360008301526108d081856106e2565b905081810360208301526108e481846106e2565b90509392505050565b60006020820190508181036000830152610906816107cb565b9050919050565b6000610917610928565b90506109238282610a4f565b919050565b6000604051905090565b600067ffffffffffffffff82111561094d5761094c610aaf565b5b61095682610af2565b9050602081019050919050565b60008190508160005260206000209050919050565b600081519050919050565b600082825260208201905092915050565b600081905092915050565b60006109aa826109bb565b9050919050565b6000819050919050565b600073ffffffffffffffffffffffffffffffffffffffff82169050919050565b82818337600083830152505050565b60005b83811015610a085780820151818401526020810190506109ed565b83811115610a17576000848401525b50505050565b60006002820490506001821680610a3557607f821691505b60208210811415610a4957610a48610a80565b5b50919050565b610a5882610af2565b810181811067ffffffffffffffff82111715610a7757610a76610aaf565b5b80604052505050565b7f4e487b7100000000000000000000000000000000000000000000000000000000600052602260045260246000fd5b7f4e487b7100000000000000000000000000000000000000000000000000000000600052604160045260246000fd5b600080fd5b600080fd5b600080fd5b600080fd5b6000601f19601f8301169050919050565b7f455243313136373a20637265617465206661696c656400000000000000000000600082015250565b610b358161099f565b8114610b4057600080fd5b5056fea26469706673582212202fa687bde3d4dc50d2fa9ce3253be47e0396d6f984bdaf446c54aa3af6e0dfd964736f6c63430008060033608060405234801561001057600080fd5b50614111806100206000396000f3fe608060405234801561001057600080fd5b50600436106101cf5760003560e01c80635c975abb11610104578063a217fddf116100a2578063d539139311610071578063d539139314610554578063d547741f14610572578063dd62ed3e1461058e578063e63ab1e9146105be576101cf565b8063a217fddf146104a6578063a457c2d7146104c4578063a9059cbb146104f4578063ca15c87314610524576101cf565b80638456cb59116100de5780638456cb591461041e5780639010d07c1461042857806391d148541461045857806395d89b4114610488576101cf565b80635c975abb146103b457806370a08231146103d257806379cc679014610402576101cf565b8063313ce567116101715780633f4ba83a1161014b5780633f4ba83a1461035657806340c10f191461036057806342966c681461037c5780634cd88b7614610398576101cf565b8063313ce567146102ec57806336568abe1461030a5780633950935114610326576101cf565b806318160ddd116101ad57806318160ddd1461025257806323b872dd14610270578063248a9ca3146102a05780632f2ff15d146102d0576101cf565b806301ffc9a7146101d457806306fdde0314610204578063095ea7b314610222575b600080fd5b6101ee60048036038101906101e99190612ee2565b6105dc565b6040516101fb91906133c0565b60405180910390f35b61020c610656565b60405161021991906133f6565b60405180910390f35b61023c60048036038101906102379190612df5565b6106e8565b60405161024991906133c0565b60405180910390f35b61025a610706565b6040516102679190613698565b60405180910390f35b61028a60048036038101906102859190612da2565b610710565b60405161029791906133c0565b60405180910390f35b6102ba60048036038101906102b59190612e35565b610808565b6040516102c791906133db565b60405180910390f35b6102ea60048036038101906102e59190612e62565b610828565b005b6102f461085c565b60405161030191906136b3565b60405180910390f35b610324600480360381019061031f9190612e62565b610865565b005b610340600480360381019061033b9190612df5565b610899565b60405161034d91906133c0565b60405180910390f35b61035e610945565b005b61037a60048036038101906103759190612df5565b6109bf565b005b61039660048036038101906103919190612f87565b610a3d565b005b6103b260048036038101906103ad9190612f0f565b610a51565b005b6103bc610b36565b6040516103c991906133c0565b60405180910390f35b6103ec60048036038101906103e79190612d35565b610b4e565b6040516103f99190613698565b60405180910390f35b61041c60048036038101906104179190612df5565b610b97565b005b610426610c12565b005b610442600480360381019061043d9190612ea2565b610c8c565b60405161044f91906133a5565b60405180910390f35b610472600480360381019061046d9190612e62565b610cbb565b60405161047f91906133c0565b60405180910390f35b610490610d26565b60405161049d91906133f6565b60405180910390f35b6104ae610db8565b6040516104bb91906133db565b60405180910390f35b6104de60048036038101906104d99190612df5565b610dbf565b6040516104eb91906133c0565b60405180910390f35b61050e60048036038101906105099190612df5565b610eaa565b60405161051b91906133c0565b60405180910390f35b61053e60048036038101906105399190612e35565b610ec8565b60405161054b9190613698565b60405180910390f35b61055c610eec565b60405161056991906133db565b60405180910390f35b61058c60048036038101906105879190612e62565b610f10565b005b6105a860048036038101906105a39190612d62565b610f44565b6040516105b59190613698565b60405180910390f35b6105c6610fcb565b6040516105d391906133db565b60405180910390f35b60007f5a05180f000000000000000000000000000000000000000000000000000000007bffffffffffffffffffffffffffffffffffffffffffffffffffffffff1916827bffffffffffffffffffffffffffffffffffffffffffffffffffffffff1916148061064f575061064e82610fef565b5b9050919050565b606060cc805461066590613926565b80601f016020809104026020016040519081016040528092919081815260200182805461069190613926565b80156106de5780601f106106b3576101008083540402835291602001916106de565b820191906000526020600020905b8154815290600101906020018083116106c157829003601f168201915b5050505050905090565b60006106fc6106f5611069565b8484611071565b6001905092915050565b600060cb54905090565b600061071d84848461123c565b600060ca60008673ffffffffffffffffffffffffffffffffffffffff1673ffffffffffffffffffffffffffffffffffffffff1681526020019081526020016000206000610768611069565b73ffffffffffffffffffffffffffffffffffffffff1673ffffffffffffffffffffffffffffffffffffffff168152602001908152602001600020549050828110156107e8576040517f08c379a00000000000000000000000000000000000000000000000000000000081526004016107df90613538565b60405180910390fd5b6107fc856107f4611069565b858403611071565b60019150509392505050565b600060656000838152602001908152602001600020600101549050919050565b61083282826114c0565b61085781609760008581526020019081526020016000206114e990919063ffffffff16565b505050565b60006012905090565b61086f8282611519565b610894816097600085815260200190815260200160002061159c90919063ffffffff16565b505050565b600061093b6108a6611069565b848460ca60006108b4611069565b73ffffffffffffffffffffffffffffffffffffffff1673ffffffffffffffffffffffffffffffffffffffff16815260200190815260200160002060008873ffffffffffffffffffffffffffffffffffffffff1673ffffffffffffffffffffffffffffffffffffffff16815260200190815260200160002054610936919061374b565b611071565b6001905092915050565b6109767f65d7a28e3265b37a6474929f336521b332c1681b933f6cb9f3376673440d862a610971611069565b610cbb565b6109b5576040517f08c379a00000000000000000000000000000000000000000000000000000000081526004016109ac90613498565b60405180910390fd5b6109bd6115cc565b565b6109f07f9f2df0fed2c77648de5860a4cc508cd0818c85b8b8a1ab4ceeef8d981c8956a66109eb611069565b610cbb565b610a2f576040517f08c379a0000000000000000000000000000000000000000000000000000000008152600401610a2690613558565b60405180910390fd5b610a39828261166f565b5050565b610a4e610a48611069565b826117d0565b50565b600060019054906101000a900460ff1680610a77575060008054906101000a900460ff16155b610ab6576040517f08c379a0000000000000000000000000000000000000000000000000000000008152600401610aad90613518565b60405180910390fd5b60008060019054906101000a900460ff161590508015610b06576001600060016101000a81548160ff02191690831515021790555060016000806101000a81548160ff0219169083151502179055505b610b1083836119a9565b8015610b315760008060016101000a81548160ff0219169083151502179055505b505050565b600061012d60009054906101000a900460ff16905090565b600060c960008373ffffffffffffffffffffffffffffffffffffffff1673ffffffffffffffffffffffffffffffffffffffff168152602001908152602001600020549050919050565b6000610baa83610ba5611069565b610f44565b905081811015610bef576040517f08c379a0000000000000000000000000000000000000000000000000000000008152600401610be690613578565b60405180910390fd5b610c0383610bfb611069565b848403611071565b610c0d83836117d0565b505050565b610c437f65d7a28e3265b37a6474929f336521b332c1681b933f6cb9f3376673440d862a610c3e611069565b610cbb565b610c82576040517f08c379a0000000000000000000000000000000000000000000000000000000008152600401610c79906135f8565b60405180910390fd5b610c8a611ad0565b565b6000610cb38260976000868152602001908152602001600020611b7490919063ffffffff16565b905092915050565b60006065600084815260200190815260200160002060000160008373ffffffffffffffffffffffffffffffffffffffff1673ffffffffffffffffffffffffffffffffffffffff16815260200190815260200160002060009054906101000a900460ff16905092915050565b606060cd8054610d3590613926565b80601f0160208091040260200160405190810160405280929190818152602001828054610d6190613926565b8015610dae5780601f10610d8357610100808354040283529160200191610dae565b820191906000526020600020905b815481529060010190602001808311610d9157829003601f168201915b5050505050905090565b6000801b81565b60008060ca6000610dce611069565b73ffffffffffffffffffffffffffffffffffffffff1673ffffffffffffffffffffffffffffffffffffffff16815260200190815260200160002060008573ffffffffffffffffffffffffffffffffffffffff1673ffffffffffffffffffffffffffffffffffffffff16815260200190815260200160002054905082811015610e8b576040517f08c379a0000000000000000000000000000000000000000000000000000000008152600401610e8290613618565b60405180910390fd5b610e9f610e96611069565b85858403611071565b600191505092915050565b6000610ebe610eb7611069565b848461123c565b6001905092915050565b6000610ee560976000848152602001908152602001600020611b8e565b9050919050565b7f9f2df0fed2c77648de5860a4cc508cd0818c85b8b8a1ab4ceeef8d981c8956a681565b610f1a8282611ba3565b610f3f816097600085815260200190815260200160002061159c90919063ffffffff16565b505050565b600060ca60008473ffffffffffffffffffffffffffffffffffffffff1673ffffffffffffffffffffffffffffffffffffffff16815260200190815260200160002060008373ffffffffffffffffffffffffffffffffffffffff1673ffffffffffffffffffffffffffffffffffffffff16815260200190815260200160002054905092915050565b7f65d7a28e3265b37a6474929f336521b332c1681b933f6cb9f3376673440d862a81565b60007f7965db0b000000000000000000000000000000000000000000000000000000007bffffffffffffffffffffffffffffffffffffffffffffffffffffffff1916827bffffffffffffffffffffffffffffffffffffffffffffffffffffffff19161480611062575061106182611bcc565b5b9050919050565b600033905090565b600073ffffffffffffffffffffffffffffffffffffffff168373ffffffffffffffffffffffffffffffffffffffff1614156110e1576040517f08c379a00000000000000000000000000000000000000000000000000000000081526004016110d8906135d8565b60405180910390fd5b600073ffffffffffffffffffffffffffffffffffffffff168273ffffffffffffffffffffffffffffffffffffffff161415611151576040517f08c379a0000000000000000000000000000000000000000000000000000000008152600401611148906134b8565b60405180910390fd5b8060ca60008573ffffffffffffffffffffffffffffffffffffffff1673ffffffffffffffffffffffffffffffffffffffff16815260200190815260200160002060008473ffffffffffffffffffffffffffffffffffffffff1673ffffffffffffffffffffffffffffffffffffffff168152602001908152602001600020819055508173ffffffffffffffffffffffffffffffffffffffff168373ffffffffffffffffffffffffffffffffffffffff167f8c5be1e5ebec7d5bd14f71427d1e84f3dd0314c0f7b2291e5b200ac8c7c3b9258360405161122f9190613698565b60405180910390a3505050565b600073ffffffffffffffffffffffffffffffffffffffff168373ffffffffffffffffffffffffffffffffffffffff1614156112ac576040517f08c379a00000000000000000000000000000000000000000000000000000000081526004016112a3906135b8565b60405180910390fd5b600073ffffffffffffffffffffffffffffffffffffffff168273ffffffffffffffffffffffffffffffffffffffff16141561131c576040517f08c379a000000000000000000000000000000000000000000000000000000000815260040161131390613438565b60405180910390fd5b611327838383611c36565b600060c960008573ffffffffffffffffffffffffffffffffffffffff1673ffffffffffffffffffffffffffffffffffffffff168152602001908152602001600020549050818110156113ae576040517f08c379a00000000000000000000000000000000000000000000000000000000081526004016113a5906134d8565b60405180910390fd5b81810360c960008673ffffffffffffffffffffffffffffffffffffffff1673ffffffffffffffffffffffffffffffffffffffff168152602001908152602001600020819055508160c960008573ffffffffffffffffffffffffffffffffffffffff1673ffffffffffffffffffffffffffffffffffffffff1681526020019081526020016000206000828254611443919061374b565b925050819055508273ffffffffffffffffffffffffffffffffffffffff168473ffffffffffffffffffffffffffffffffffffffff167fddf252ad1be2c89b69c2b068fc378daa952ba7f163c4a11628f55a4df523b3ef846040516114a79190613698565b60405180910390a36114ba848484611c46565b50505050565b6114c982610808565b6114da816114d5611069565b611c4b565b6114e48383611ce8565b505050565b6000611511836000018373ffffffffffffffffffffffffffffffffffffffff1660001b611dc9565b905092915050565b611521611069565b73ffffffffffffffffffffffffffffffffffffffff168173ffffffffffffffffffffffffffffffffffffffff161461158e576040517f08c379a000000000000000000000000000000000000000000000000000000000815260040161158590613638565b60405180910390fd5b6115988282611e39565b5050565b60006115c4836000018373ffffffffffffffffffffffffffffffffffffffff1660001b611f1b565b905092915050565b6115d4610b36565b611613576040517f08c379a000000000000000000000000000000000000000000000000000000000815260040161160a90613458565b60405180910390fd5b600061012d60006101000a81548160ff0219169083151502179055507f5db9ee0a495bf2e6ff9c91a7834c1ba4fdd244a5e8aa4e537bd38aeae4b073aa611658611069565b60405161166591906133a5565b60405180910390a1565b600073ffffffffffffffffffffffffffffffffffffffff168273ffffffffffffffffffffffffffffffffffffffff1614156116df576040517f08c379a00000000000000000000000000000000000000000000000000000000081526004016116d690613658565b60405180910390fd5b6116eb60008383611c36565b8060cb60008282546116fd919061374b565b925050819055508060c960008473ffffffffffffffffffffffffffffffffffffffff1673ffffffffffffffffffffffffffffffffffffffff1681526020019081526020016000206000828254611753919061374b565b925050819055508173ffffffffffffffffffffffffffffffffffffffff16600073ffffffffffffffffffffffffffffffffffffffff167fddf252ad1be2c89b69c2b068fc378daa952ba7f163c4a11628f55a4df523b3ef836040516117b89190613698565b60405180910390a36117cc60008383611c46565b5050565b600073ffffffffffffffffffffffffffffffffffffffff168273ffffffffffffffffffffffffffffffffffffffff161415611840576040517f08c379a000000000000000000000000000000000000000000000000000000000815260040161183790613598565b60405180910390fd5b61184c82600083611c36565b600060c960008473ffffffffffffffffffffffffffffffffffffffff1673ffffffffffffffffffffffffffffffffffffffff168152602001908152602001600020549050818110156118d3576040517f08c379a00000000000000000000000000000000000000000000000000000000081526004016118ca90613478565b60405180910390fd5b81810360c960008573ffffffffffffffffffffffffffffffffffffffff1673ffffffffffffffffffffffffffffffffffffffff168152602001908152602001600020819055508160cb600082825461192b91906137fb565b92505081905550600073ffffffffffffffffffffffffffffffffffffffff168373ffffffffffffffffffffffffffffffffffffffff167fddf252ad1be2c89b69c2b068fc378daa952ba7f163c4a11628f55a4df523b3ef846040516119909190613698565b60405180910390a36119a483600084611c46565b505050565b600060019054906101000a900460ff16806119cf575060008054906101000a900460ff16155b611a0e576040517f08c379a0000000000000000000000000000000000000000000000000000000008152600401611a0590613518565b60405180910390fd5b60008060019054906101000a900460ff161590508015611a5e576001600060016101000a81548160ff02191690831515021790555060016000806101000a81548160ff0219169083151502179055505b611a6661202f565b611a6e612108565b611a766121e1565b611a7e6122ba565b611a888383612393565b611a9061249c565b611a98612575565b611aa061266a565b611aaa8383612743565b8015611acb5760008060016101000a81548160ff0219169083151502179055505b505050565b611ad8610b36565b15611b18576040517f08c379a0000000000000000000000000000000000000000000000000000000008152600401611b0f906134f8565b60405180910390fd5b600161012d60006101000a81548160ff0219169083151502179055507f62e78cea01bee320cd4e420270b5ea74000d11b0c9f74754ebdbfc544b05a258611b5d611069565b604051611b6a91906133a5565b60405180910390a1565b6000611b838360000183612894565b60001c905092915050565b6000611b9c826000016128bf565b9050919050565b611bac82610808565b611bbd81611bb8611069565b611c4b565b611bc78383611e39565b505050565b60007f01ffc9a7000000000000000000000000000000000000000000000000000000007bffffffffffffffffffffffffffffffffffffffffffffffffffffffff1916827bffffffffffffffffffffffffffffffffffffffffffffffffffffffff1916149050919050565b611c418383836128d0565b505050565b505050565b611c558282610cbb565b611ce457611c7a8173ffffffffffffffffffffffffffffffffffffffff166014612928565b611c888360001c6020612928565b604051602001611c9992919061336b565b6040516020818303038152906040526040517f08c379a0000000000000000000000000000000000000000000000000000000008152600401611cdb91906133f6565b60405180910390fd5b5050565b611cf28282610cbb565b611dc55760016065600084815260200190815260200160002060000160008373ffffffffffffffffffffffffffffffffffffffff1673ffffffffffffffffffffffffffffffffffffffff16815260200190815260200160002060006101000a81548160ff021916908315150217905550611d6a611069565b73ffffffffffffffffffffffffffffffffffffffff168173ffffffffffffffffffffffffffffffffffffffff16837f2f8788117e7eff1d82e926ec794901d17c78024a50270940304540a733656f0d60405160405180910390a45b5050565b6000611dd58383612b64565b611e2e578260000182908060018154018082558091505060019003906000526020600020016000909190919091505582600001805490508360010160008481526020019081526020016000208190555060019050611e33565b600090505b92915050565b611e438282610cbb565b15611f175760006065600084815260200190815260200160002060000160008373ffffffffffffffffffffffffffffffffffffffff1673ffffffffffffffffffffffffffffffffffffffff16815260200190815260200160002060006101000a81548160ff021916908315150217905550611ebc611069565b73ffffffffffffffffffffffffffffffffffffffff168173ffffffffffffffffffffffffffffffffffffffff16837ff6391f5c32d9c69d2a47ea670b442974b53935d1edc7fd64eb21e047a839171b60405160405180910390a45b5050565b60008083600101600084815260200190815260200160002054905060008114612023576000600182611f4d91906137fb565b9050600060018660000180549050611f6591906137fb565b9050818114611fd4576000866000018281548110611f8657611f85613a16565b5b9060005260206000200154905080876000018481548110611faa57611fa9613a16565b5b90600052602060002001819055508387600101600083815260200190815260200160002081905550505b85600001805480611fe857611fe76139e7565b5b600190038181906000526020600020016000905590558560010160008681526020019081526020016000206000905560019350505050612029565b60009150505b92915050565b600060019054906101000a900460ff1680612055575060008054906101000a900460ff16155b612094576040517f08c379a000000000000000000000000000000000000000000000000000000000815260040161208b90613518565b60405180910390fd5b60008060019054906101000a900460ff1615905080156120e4576001600060016101000a81548160ff02191690831515021790555060016000806101000a81548160ff0219169083151502179055505b80156121055760008060016101000a81548160ff0219169083151502179055505b50565b600060019054906101000a900460ff168061212e575060008054906101000a900460ff16155b61216d576040517f08c379a000000000000000000000000000000000000000000000000000000000815260040161216490613518565b60405180910390fd5b60008060019054906101000a900460ff1615905080156121bd576001600060016101000a81548160ff02191690831515021790555060016000806101000a81548160ff0219169083151502179055505b80156121de5760008060016101000a81548160ff0219169083151502179055505b50565b600060019054906101000a900460ff1680612207575060008054906101000a900460ff16155b612246576040517f08c379a000000000000000000000000000000000000000000000000000000000815260040161223d90613518565b60405180910390fd5b60008060019054906101000a900460ff161590508015612296576001600060016101000a81548160ff02191690831515021790555060016000806101000a81548160ff0219169083151502179055505b80156122b75760008060016101000a81548160ff0219169083151502179055505b50565b600060019054906101000a900460ff16806122e0575060008054906101000a900460ff16155b61231f576040517f08c379a000000000000000000000000000000000000000000000000000000000815260040161231690613518565b60405180910390fd5b60008060019054906101000a900460ff16159050801561236f576001600060016101000a81548160ff02191690831515021790555060016000806101000a81548160ff0219169083151502179055505b80156123905760008060016101000a81548160ff0219169083151502179055505b50565b600060019054906101000a900460ff16806123b9575060008054906101000a900460ff16155b6123f8576040517f08c379a00000000000000000000000000000000000000000000000000000000081526004016123ef90613518565b60405180910390fd5b60008060019054906101000a900460ff161590508015612448576001600060016101000a81548160ff02191690831515021790555060016000806101000a81548160ff0219169083151502179055505b8260cc908051906020019061245e929190612bce565b508160cd9080519060200190612475929190612bce565b5080156124975760008060016101000a81548160ff0219169083151502179055505b505050565b600060019054906101000a900460ff16806124c2575060008054906101000a900460ff16155b612501576040517f08c379a00000000000000000000000000000000000000000000000000000000081526004016124f890613518565b60405180910390fd5b60008060019054906101000a900460ff161590508015612551576001600060016101000a81548160ff02191690831515021790555060016000806101000a81548160ff0219169083151502179055505b80156125725760008060016101000a81548160ff0219169083151502179055505b50565b600060019054906101000a900460ff168061259b575060008054906101000a900460ff16155b6125da576040517f08c379a00000000000000000000000000000000000000000000000000000000081526004016125d190613518565b60405180910390fd5b60008060019054906101000a900460ff16159050801561262a576001600060016101000a81548160ff02191690831515021790555060016000806101000a81548160ff0219169083151502179055505b600061012d60006101000a81548160ff02191690831515021790555080156126675760008060016101000a81548160ff0219169083151502179055505b50565b600060019054906101000a900460ff1680612690575060008054906101000a900460ff16155b6126cf576040517f08c379a00000000000000000000000000000000000000000000000000000000081526004016126c690613518565b60405180910390fd5b60008060019054906101000a900460ff16159050801561271f576001600060016101000a81548160ff02191690831515021790555060016000806101000a81548160ff0219169083151502179055505b80156127405760008060016101000a81548160ff0219169083151502179055505b50565b600060019054906101000a900460ff1680612769575060008054906101000a900460ff16155b6127a8576040517f08c379a000000000000000000000000000000000000000000000000000000000815260040161279f90613518565b60405180910390fd5b60008060019054906101000a900460ff1615905080156127f8576001600060016101000a81548160ff02191690831515021790555060016000806101000a81548160ff0219169083151502179055505b61280c6000801b612807611069565b612b87565b61283d7f9f2df0fed2c77648de5860a4cc508cd0818c85b8b8a1ab4ceeef8d981c8956a6612838611069565b612b87565b61286e7f65d7a28e3265b37a6474929f336521b332c1681b933f6cb9f3376673440d862a612869611069565b612b87565b801561288f5760008060016101000a81548160ff0219169083151502179055505b505050565b60008260000182815481106128ac576128ab613a16565b5b9060005260206000200154905092915050565b600081600001805490509050919050565b6128db838383612bbb565b6128e3610b36565b15612923576040517f08c379a000000000000000000000000000000000000000000000000000000000815260040161291a90613678565b60405180910390fd5b505050565b60606000600283600261293b91906137a1565b612945919061374b565b67ffffffffffffffff81111561295e5761295d613a45565b5b6040519080825280601f01601f1916602001820160405280156129905781602001600182028036833780820191505090505b5090507f3000000000000000000000000000000000000000000000000000000000000000816000815181106129c8576129c7613a16565b5b60200101907effffffffffffffffffffffffffffffffffffffffffffffffffffffffffffff1916908160001a9053507f780000000000000000000000000000000000000000000000000000000000000081600181518110612a2c57612a2b613a16565b5b60200101907effffffffffffffffffffffffffffffffffffffffffffffffffffffffffffff1916908160001a90535060006001846002612a6c91906137a1565b612a76919061374b565b90505b6001811115612b16577f3031323334353637383961626364656600000000000000000000000000000000600f861660108110612ab857612ab7613a16565b5b1a60f81b828281518110612acf57612ace613a16565b5b60200101907effffffffffffffffffffffffffffffffffffffffffffffffffffffffffffff1916908160001a905350600485901c945080612b0f906138fc565b9050612a79565b5060008414612b5a576040517f08c379a0000000000000000000000000000000000000000000000000000000008152600401612b5190613418565b60405180910390fd5b8091505092915050565b600080836001016000848152602001908152602001600020541415905092915050565b612b918282612bc0565b612bb681609760008581526020019081526020016000206114e990919063ffffffff16565b505050565b505050565b612bca8282611ce8565b5050565b828054612bda90613926565b90600052602060002090601f016020900481019282612bfc5760008555612c43565b82601f10612c1557805160ff1916838001178555612c43565b82800160010185558215612c43579182015b82811115612c42578251825591602001919060010190612c27565b5b509050612c509190612c54565b5090565b5b80821115612c6d576000816000905550600101612c55565b5090565b6000612c84612c7f846136f3565b6136ce565b905082815260208101848484011115612ca057612c9f613a79565b5b612cab8482856138ba565b509392505050565b600081359050612cc28161407f565b92915050565b600081359050612cd781614096565b92915050565b600081359050612cec816140ad565b92915050565b600082601f830112612d0757612d06613a74565b5b8135612d17848260208601612c71565b91505092915050565b600081359050612d2f816140c4565b92915050565b600060208284031215612d4b57612d4a613a83565b5b6000612d5984828501612cb3565b91505092915050565b60008060408385031215612d7957612d78613a83565b5b6000612d8785828601612cb3565b9250506020612d9885828601612cb3565b9150509250929050565b600080600060608486031215612dbb57612dba613a83565b5b6000612dc986828701612cb3565b9350506020612dda86828701612cb3565b9250506040612deb86828701612d20565b9150509250925092565b60008060408385031215612e0c57612e0b613a83565b5b6000612e1a85828601612cb3565b9250506020612e2b85828601612d20565b9150509250929050565b600060208284031215612e4b57612e4a613a83565b5b6000612e5984828501612cc8565b91505092915050565b60008060408385031215612e7957612e78613a83565b5b6000612e8785828601612cc8565b9250506020612e9885828601612cb3565b9150509250929050565b60008060408385031215612eb957612eb8613a83565b5b6000612ec785828601612cc8565b9250506020612ed885828601612d20565b9150509250929050565b600060208284031215612ef857612ef7613a83565b5b6000612f0684828501612cdd565b91505092915050565b60008060408385031215612f2657612f25613a83565b5b600083013567ffffffffffffffff811115612f4457612f43613a7e565b5b612f5085828601612cf2565b925050602083013567ffffffffffffffff811115612f7157612f70613a7e565b5b612f7d85828601612cf2565b9150509250929050565b600060208284031215612f9d57612f9c613a83565b5b6000612fab84828501612d20565b91505092915050565b612fbd8161382f565b82525050565b612fcc81613841565b82525050565b612fdb8161384d565b82525050565b6000612fec82613724565b612ff6818561372f565b93506130068185602086016138c9565b61300f81613a88565b840191505092915050565b600061302582613724565b61302f8185613740565b935061303f8185602086016138c9565b80840191505092915050565b600061305860208361372f565b915061306382613a99565b602082019050919050565b600061307b60238361372f565b915061308682613ac2565b604082019050919050565b600061309e60148361372f565b91506130a982613b11565b602082019050919050565b60006130c160228361372f565b91506130cc82613b3a565b604082019050919050565b60006130e460398361372f565b91506130ef82613b89565b604082019050919050565b600061310760228361372f565b915061311282613bd8565b604082019050919050565b600061312a60268361372f565b915061313582613c27565b604082019050919050565b600061314d60108361372f565b915061315882613c76565b602082019050919050565b6000613170602e8361372f565b915061317b82613c9f565b604082019050919050565b600061319360288361372f565b915061319e82613cee565b604082019050919050565b60006131b660368361372f565b91506131c182613d3d565b604082019050919050565b60006131d960248361372f565b91506131e482613d8c565b604082019050919050565b60006131fc60218361372f565b915061320782613ddb565b604082019050919050565b600061321f60258361372f565b915061322a82613e2a565b604082019050919050565b600061324260248361372f565b915061324d82613e79565b604082019050919050565b600061326560378361372f565b915061327082613ec8565b604082019050919050565b6000613288601783613740565b915061329382613f17565b601782019050919050565b60006132ab60258361372f565b91506132b682613f40565b604082019050919050565b60006132ce601183613740565b91506132d982613f8f565b601182019050919050565b60006132f1602f8361372f565b91506132fc82613fb8565b604082019050919050565b6000613314601f8361372f565b915061331f82614007565b602082019050919050565b6000613337602a8361372f565b915061334282614030565b604082019050919050565b613356816138a3565b82525050565b613365816138ad565b82525050565b60006133768261327b565b9150613382828561301a565b915061338d826132c1565b9150613399828461301a565b91508190509392505050565b60006020820190506133ba6000830184612fb4565b92915050565b60006020820190506133d56000830184612fc3565b92915050565b60006020820190506133f06000830184612fd2565b92915050565b600060208201905081810360008301526134108184612fe1565b905092915050565b600060208201905081810360008301526134318161304b565b9050919050565b600060208201905081810360008301526134518161306e565b9050919050565b6000602082019050818103600083015261347181613091565b9050919050565b60006020820190508181036000830152613491816130b4565b9050919050565b600060208201905081810360008301526134b1816130d7565b9050919050565b600060208201905081810360008301526134d1816130fa565b9050919050565b600060208201905081810360008301526134f18161311d565b9050919050565b6000602082019050818103600083015261351181613140565b9050919050565b6000602082019050818103600083015261353181613163565b9050919050565b6000602082019050818103600083015261355181613186565b9050919050565b60006020820190508181036000830152613571816131a9565b9050919050565b60006020820190508181036000830152613591816131cc565b9050919050565b600060208201905081810360008301526135b1816131ef565b9050919050565b600060208201905081810360008301526135d181613212565b9050919050565b600060208201905081810360008301526135f181613235565b9050919050565b6000602082019050818103600083015261361181613258565b9050919050565b600060208201905081810360008301526136318161329e565b9050919050565b60006020820190508181036000830152613651816132e4565b9050919050565b6000602082019050818103600083015261367181613307565b9050919050565b600060208201905081810360008301526136918161332a565b9050919050565b60006020820190506136ad600083018461334d565b92915050565b60006020820190506136c8600083018461335c565b92915050565b60006136d86136e9565b90506136e48282613958565b919050565b6000604051905090565b600067ffffffffffffffff82111561370e5761370d613a45565b5b61371782613a88565b9050602081019050919050565b600081519050919050565b600082825260208201905092915050565b600081905092915050565b6000613756826138a3565b9150613761836138a3565b9250827fffffffffffffffffffffffffffffffffffffffffffffffffffffffffffffffff0382111561379657613795613989565b5b828201905092915050565b60006137ac826138a3565b91506137b7836138a3565b9250817fffffffffffffffffffffffffffffffffffffffffffffffffffffffffffffffff04831182151516156137f0576137ef613989565b5b828202905092915050565b6000613806826138a3565b9150613811836138a3565b92508282101561382457613823613989565b5b828203905092915050565b600061383a82613883565b9050919050565b60008115159050919050565b6000819050919050565b60007fffffffff0000000000000000000000000000000000000000000000000000000082169050919050565b600073ffffffffffffffffffffffffffffffffffffffff82169050919050565b6000819050919050565b600060ff82169050919050565b82818337600083830152505050565b60005b838110156138e75780820151818401526020810190506138cc565b838111156138f6576000848401525b50505050565b6000613907826138a3565b9150600082141561391b5761391a613989565b5b600182039050919050565b6000600282049050600182168061393e57607f821691505b60208210811415613952576139516139b8565b5b50919050565b61396182613a88565b810181811067ffffffffffffffff821117156139805761397f613a45565b5b80604052505050565b7f4e487b7100000000000000000000000000000000000000000000000000000000600052601160045260246000fd5b7f4e487b7100000000000000000000000000000000000000000000000000000000600052602260045260246000fd5b7f4e487b7100000000000000000000000000000000000000000000000000000000600052603160045260246000fd5b7f4e487b7100000000000000000000000000000000000000000000000000000000600052603260045260246000fd5b7f4e487b7100000000000000000000000000000000000000000000000000000000600052604160045260246000fd5b600080fd5b600080fd5b600080fd5b600080fd5b6000601f19601f8301169050919050565b7f537472696e67733a20686578206c656e67746820696e73756666696369656e74600082015250565b7f45524332303a207472616e7366657220746f20746865207a65726f206164647260008201527f6573730000000000000000000000000000000000000000000000000000000000602082015250565b7f5061757361626c653a206e6f7420706175736564000000000000000000000000600082015250565b7f45524332303a206275726e20616d6f756e7420657863656564732062616c616e60008201527f6365000000000000000000000000000000000000000000000000000000000000602082015250565b7f45524332305072657365744d696e7465725061757365723a206d75737420686160008201527f76652070617573657220726f6c6520746f20756e706175736500000000000000602082015250565b7f45524332303a20617070726f766520746f20746865207a65726f20616464726560008201527f7373000000000000000000000000000000000000000000000000000000000000602082015250565b7f45524332303a207472616e7366657220616d6f756e742065786365656473206260008201527f616c616e63650000000000000000000000000000000000000000000000000000602082015250565b7f5061757361626c653a2070617573656400000000000000000000000000000000600082015250565b7f496e697469616c697a61626c653a20636f6e747261637420697320616c72656160008201527f647920696e697469616c697a6564000000000000000000000000000000000000602082015250565b7f45524332303a207472616e7366657220616d6f756e742065786365656473206160008201527f6c6c6f77616e6365000000000000000000000000000000000000000000000000602082015250565b7f45524332305072657365744d696e7465725061757365723a206d75737420686160008201527f7665206d696e74657220726f6c6520746f206d696e7400000000000000000000602082015250565b7f45524332303a206275726e20616d6f756e74206578636565647320616c6c6f7760008201527f616e636500000000000000000000000000000000000000000000000000000000602082015250565b7f45524332303a206275726e2066726f6d20746865207a65726f2061646472657360008201527f7300000000000000000000000000000000000000000000000000000000000000602082015250565b7f45524332303a207472616e736665722066726f6d20746865207a65726f20616460008201527f6472657373000000000000000000000000000000000000000000000000000000602082015250565b7f45524332303a20617070726f76652066726f6d20746865207a65726f2061646460008201527f7265737300000000000000000000000000000000000000000000000000000000602082015250565b7f45524332305072657365744d696e7465725061757365723a206d75737420686160008201527f76652070617573657220726f6c6520746f207061757365000000000000000000602082015250565b7f416363657373436f6e74726f6c3a206163636f756e7420000000000000000000600082015250565b7f45524332303a2064656372656173656420616c6c6f77616e63652062656c6f7760008201527f207a65726f000000000000000000000000000000000000000000000000000000602082015250565b7f206973206d697373696e6720726f6c6520000000000000000000000000000000600082015250565b7f416363657373436f6e74726f6c3a2063616e206f6e6c792072656e6f756e636560008201527f20726f6c657320666f722073656c660000000000000000000000000000000000602082015250565b7f45524332303a206d696e7420746f20746865207a65726f206164647265737300600082015250565b7f45524332305061757361626c653a20746f6b656e207472616e7366657220776860008201527f696c652070617573656400000000000000000000000000000000000000000000602082015250565b6140888161382f565b811461409357600080fd5b50565b61409f8161384d565b81146140aa57600080fd5b50565b6140b681613857565b81146140c157600080fd5b50565b6140cd816138a3565b81146140d857600080fd5b5056fea2646970667358221220673291fe091f1e3058eab8d19e570c9a15275e24c6e039613176af3de005ff2d64736f6c63430008060033608060405234801561001057600080fd5b506001600081905550611dc7806100286000396000f3fe608060405234801561001057600080fd5b50600436106100b45760003560e01c80639450ef5e116100715780639450ef5e1461017f57806396f392f41461019d578063dbceb005146101bb578063dc4925ba146101eb578063f3908e2414610209578063f8c8765e14610227576100b4565b806311a07f91146100b957806324a47aeb146100d75780632630c12f1461010757806333db9a87146101255780635f590b97146101435780637eacc25f14610161575b600080fd5b6100c1610243565b6040516100ce9190611887565b60405180910390f35b6100f160048036038101906100ec91906115b4565b6103d0565b6040516100fe9190611836565b60405180910390f35b61010f61091d565b60405161011c91906117bb565b60405180910390f35b61012d610943565b60405161013a91906117bb565b60405180910390f35b61014b61096d565b60405161015891906117bb565b60405180910390f35b610169610997565b604051610176919061186c565b60405180910390f35b6101876109bd565b60405161019491906117bb565b60405180910390f35b6101a56109e3565b6040516101b2919061186c565b60405180910390f35b6101d560048036038101906101d091906115b4565b610a09565b6040516101e29190611836565b60405180910390f35b6101f3610edf565b6040516102009190611851565b60405180910390f35b610211610f05565b60405161021e91906117bb565b60405180910390f35b610241600480360381019061023c91906114f3565b610f2b565b005b6000806040516024016040516020818303038152906040527f50d25bcd000000000000000000000000000000000000000000000000000000007bffffffffffffffffffffffffffffffffffffffffffffffffffffffff19166020820180517bffffffffffffffffffffffffffffffffffffffffffffffffffffffff838183161783525050505090506000600660009054906101000a900473ffffffffffffffffffffffffffffffffffffffff1673ffffffffffffffffffffffffffffffffffffffff168260405161031491906117a4565b600060405180830381855afa9150503d806000811461034f576040519150601f19603f3d011682016040523d82523d6000602084013e610354565b606091505b509150508080602001905181019061036c9190611587565b92506001831215801561038c57506c0c9f2c9cd04674edea400000008313155b6103cb576040517f08c379a00000000000000000000000000000000000000000000000000000000081526004016103c2906119d2565b60405180910390fd5b505090565b600060026000541415610418576040517f08c379a000000000000000000000000000000000000000000000000000000000815260040161040f906119b2565b60405180910390fd5b6002600081905550600a82101561042e57600080fd5b610436611470565b61043e611470565b6000610448610243565b90506402540be40081604b8761045e9190611a7e565b6104689190611a7e565b6104729190611a4d565b826020018181525050606460198661048a9190611a7e565b6104949190611a4d565b836020018181525050600260009054906101000a900473ffffffffffffffffffffffffffffffffffffffff1673ffffffffffffffffffffffffffffffffffffffff166370a08231336040518263ffffffff1660e01b81526004016104f891906117bb565b60206040518083038186803b15801561051057600080fd5b505afa158015610524573d6000803e3d6000fd5b505050506040513d601f19601f8201168201806040525081019061054891906115e1565b826000018181525050600360009054906101000a900473ffffffffffffffffffffffffffffffffffffffff1673ffffffffffffffffffffffffffffffffffffffff166370a08231336040518263ffffffff1660e01b81526004016105ac91906117bb565b60206040518083038186803b1580156105c457600080fd5b505afa1580156105d8573d6000803e3d6000fd5b505050506040513d601f19601f820116820180604052508101906105fc91906115e1565b836000018181525050826000015183602001511115610650576040517f08c379a000000000000000000000000000000000000000000000000000000000815260040161064790611992565b60405180910390fd5b81600001518260200151111561069b576040517f08c379a000000000000000000000000000000000000000000000000000000000815260040161069290611972565b60405180910390fd5b600160029054906101000a900473ffffffffffffffffffffffffffffffffffffffff1673ffffffffffffffffffffffffffffffffffffffff1663095ea7b333876040518363ffffffff1660e01b81526004016106f892919061180d565b602060405180830381600087803b15801561071257600080fd5b505af1158015610726573d6000803e3d6000fd5b505050506040513d601f19601f8201168201806040525081019061074a919061155a565b506107936040518060400160405280601f81526020017f4275726e20456c697869723a2025730a4275726e205374656164793a2025730081525084602001518460200151611012565b600360009054906101000a900473ffffffffffffffffffffffffffffffffffffffff1673ffffffffffffffffffffffffffffffffffffffff166379cc67903385602001516040518363ffffffff1660e01b81526004016107f492919061180d565b600060405180830381600087803b15801561080e57600080fd5b505af1158015610822573d6000803e3d6000fd5b50505050600260009054906101000a900473ffffffffffffffffffffffffffffffffffffffff1673ffffffffffffffffffffffffffffffffffffffff166379cc67903384602001516040518363ffffffff1660e01b815260040161088792919061180d565b600060405180830381600087803b1580156108a157600080fd5b505af11580156108b5573d6000803e3d6000fd5b505050503373ffffffffffffffffffffffffffffffffffffffff167fe16ce85ab68c6b954fe4487ea4075f9afd57602a905875f367a50eef4c7d5b8786836040516109019291906119f2565b60405180910390a2600193505050506001600081905550919050565b600660009054906101000a900473ffffffffffffffffffffffffffffffffffffffff1681565b6000600560009054906101000a900473ffffffffffffffffffffffffffffffffffffffff16905090565b6000600460009054906101000a900473ffffffffffffffffffffffffffffffffffffffff16905090565b600260009054906101000a900473ffffffffffffffffffffffffffffffffffffffff1681565b600460009054906101000a900473ffffffffffffffffffffffffffffffffffffffff1681565b600360009054906101000a900473ffffffffffffffffffffffffffffffffffffffff1681565b600060026000541415610a51576040517f08c379a0000000000000000000000000000000000000000000000000000000008152600401610a48906119b2565b60405180910390fd5b6002600081905550610a976040518060400160405280601481526020017f62616c616e636520696e20636f6e74726163743a0000000000000000000000008152506110b1565b600a821015610aa557600080fd5b6000600160029054906101000a900473ffffffffffffffffffffffffffffffffffffffff1673ffffffffffffffffffffffffffffffffffffffff166370a08231336040518263ffffffff1660e01b8152600401610b0291906117bb565b60206040518083038186803b158015610b1a57600080fd5b505afa158015610b2e573d6000803e3d6000fd5b505050506040513d601f19601f82011682018060405250810190610b5291906115e1565b905080831115610b97576040517f08c379a0000000000000000000000000000000000000000000000000000000008152600401610b8e90611932565b60405180910390fd5b6000610ba1610243565b905060006402540be40082604b87610bb99190611a7e565b610bc39190611a7e565b610bcd9190611a4d565b9050600160029054906101000a900473ffffffffffffffffffffffffffffffffffffffff1673ffffffffffffffffffffffffffffffffffffffff166323b872dd3330886040518463ffffffff1660e01b8152600401610c2e939291906117d6565b602060405180830381600087803b158015610c4857600080fd5b505af1158015610c5c573d6000803e3d6000fd5b505050506040513d601f19601f82011682018060405250810190610c80919061155a565b50600260009054906101000a900473ffffffffffffffffffffffffffffffffffffffff1673ffffffffffffffffffffffffffffffffffffffff166340c10f1933836040518363ffffffff1660e01b8152600401610cde92919061180d565b600060405180830381600087803b158015610cf857600080fd5b505af1158015610d0c573d6000803e3d6000fd5b50505050600360009054906101000a900473ffffffffffffffffffffffffffffffffffffffff1673ffffffffffffffffffffffffffffffffffffffff166340c10f1933600a80606460198b610d619190611a7e565b610d6b9190611a4d565b610d759190611a4d565b610d7f9190611a7e565b6040518363ffffffff1660e01b8152600401610d9c92919061180d565b600060405180830381600087803b158015610db657600080fd5b505af1158015610dca573d6000803e3d6000fd5b50505050610e0d6040518060400160405280601281526020017f53544541445920414e535745523a3a20257300000000000000000000000000008152508261114a565b610e7b6040518060400160405280601381526020017f45584c4958495220414e535745523a3a20257300000000000000000000000000815250600a80606460198a610e589190611a7e565b610e629190611a4d565b610e6c9190611a4d565b610e769190611a7e565b61114a565b3373ffffffffffffffffffffffffffffffffffffffff167f563287642471a421e73cd8c32313a493560c2f122e409c0099b4449f7297cce68684604051610ec39291906119f2565b60405180910390a2600193505050506001600081905550919050565b600160029054906101000a900473ffffffffffffffffffffffffffffffffffffffff1681565b600560009054906101000a900473ffffffffffffffffffffffffffffffffffffffff1681565b60018054906101000a900460ff1680610f515750600160009054906101000a900460ff16155b610f90576040517f08c379a0000000000000000000000000000000000000000000000000000000008152600401610f8790611952565b60405180910390fd5b600060018054906101000a900460ff161590508015610fde5760018060016101000a81548160ff02191690831515021790555060018060006101000a81548160ff0219169083151502179055505b610fea858585856111e6565b801561100b5760006001806101000a81548160ff0219169083151502179055505b5050505050565b6110ac83838360405160240161102a939291906118f4565b6040516020818303038152906040527f969cdd03000000000000000000000000000000000000000000000000000000007bffffffffffffffffffffffffffffffffffffffffffffffffffffffff19166020820180517bffffffffffffffffffffffffffffffffffffffffffffffffffffffff8381831617835250505050611447565b505050565b611147816040516024016110c591906118a2565b6040516020818303038152906040527f41304fac000000000000000000000000000000000000000000000000000000007bffffffffffffffffffffffffffffffffffffffffffffffffffffffff19166020820180517bffffffffffffffffffffffffffffffffffffffffffffffffffffffff8381831617835250505050611447565b50565b6111e282826040516024016111609291906118c4565b6040516020818303038152906040527f9710a9d0000000000000000000000000000000000000000000000000000000007bffffffffffffffffffffffffffffffffffffffffffffffffffffffff19166020820180517bffffffffffffffffffffffffffffffffffffffffffffffffffffffff8381831617835250505050611447565b5050565b60018054906101000a900460ff168061120c5750600160009054906101000a900460ff16155b61124b576040517f08c379a000000000000000000000000000000000000000000000000000000000815260040161124290611952565b60405180910390fd5b600060018054906101000a900460ff1615905080156112995760018060016101000a81548160ff02191690831515021790555060018060006101000a81548160ff0219169083151502179055505b84600160026101000a81548173ffffffffffffffffffffffffffffffffffffffff021916908373ffffffffffffffffffffffffffffffffffffffff16021790555083600260006101000a81548173ffffffffffffffffffffffffffffffffffffffff021916908373ffffffffffffffffffffffffffffffffffffffff16021790555082600360006101000a81548173ffffffffffffffffffffffffffffffffffffffff021916908373ffffffffffffffffffffffffffffffffffffffff16021790555083600460006101000a81548173ffffffffffffffffffffffffffffffffffffffff021916908373ffffffffffffffffffffffffffffffffffffffff16021790555082600560006101000a81548173ffffffffffffffffffffffffffffffffffffffff021916908373ffffffffffffffffffffffffffffffffffffffff16021790555081600660006101000a81548173ffffffffffffffffffffffffffffffffffffffff021916908373ffffffffffffffffffffffffffffffffffffffff16021790555080156114405760006001806101000a81548160ff0219169083151502179055505b5050505050565b60008151905060006a636f6e736f6c652e6c6f679050602083016000808483855afa5050505050565b604051806040016040528060008152602001600081525090565b60008135905061149981611d35565b92915050565b6000815190506114ae81611d4c565b92915050565b6000815190506114c381611d63565b92915050565b6000813590506114d881611d7a565b92915050565b6000815190506114ed81611d7a565b92915050565b6000806000806080858703121561150d5761150c611c03565b5b600061151b8782880161148a565b945050602061152c8782880161148a565b935050604061153d8782880161148a565b925050606061154e8782880161148a565b91505092959194509250565b6000602082840312156115705761156f611c03565b5b600061157e8482850161149f565b91505092915050565b60006020828403121561159d5761159c611c03565b5b60006115ab848285016114b4565b91505092915050565b6000602082840312156115ca576115c9611c03565b5b60006115d8848285016114c9565b91505092915050565b6000602082840312156115f7576115f6611c03565b5b6000611605848285016114de565b91505092915050565b61161781611ad8565b82525050565b61162681611aea565b82525050565b600061163782611a1b565b6116418185611a31565b9350611651818560208601611b72565b80840191505092915050565b61166681611b2a565b82525050565b61167581611b4e565b82525050565b61168481611af6565b82525050565b600061169582611a26565b61169f8185611a3c565b93506116af818560208601611b72565b6116b881611c08565b840191505092915050565b60006116d0601c83611a3c565b91506116db82611c19565b602082019050919050565b60006116f3602e83611a3c565b91506116fe82611c42565b604082019050919050565b6000611716601083611a3c565b915061172182611c91565b602082019050919050565b6000611739601083611a3c565b915061174482611cba565b602082019050919050565b600061175c601f83611a3c565b915061176782611ce3565b602082019050919050565b600061177f601c83611a3c565b915061178a82611d0c565b602082019050919050565b61179e81611b20565b82525050565b60006117b0828461162c565b915081905092915050565b60006020820190506117d0600083018461160e565b92915050565b60006060820190506117eb600083018661160e565b6117f8602083018561160e565b6118056040830184611795565b949350505050565b6000604082019050611822600083018561160e565b61182f6020830184611795565b9392505050565b600060208201905061184b600083018461161d565b92915050565b6000602082019050611866600083018461165d565b92915050565b6000602082019050611881600083018461166c565b92915050565b600060208201905061189c600083018461167b565b92915050565b600060208201905081810360008301526118bc818461168a565b905092915050565b600060408201905081810360008301526118de818561168a565b90506118ed6020830184611795565b9392505050565b6000606082019050818103600083015261190e818661168a565b905061191d6020830185611795565b61192a6040830184611795565b949350505050565b6000602082019050818103600083015261194b816116c3565b9050919050565b6000602082019050818103600083015261196b816116e6565b9050919050565b6000602082019050818103600083015261198b81611709565b9050919050565b600060208201905081810360008301526119ab8161172c565b9050919050565b600060208201905081810360008301526119cb8161174f565b9050919050565b600060208201905081810360008301526119eb81611772565b9050919050565b6000604082019050611a076000830185611795565b611a14602083018461167b565b9392505050565b600081519050919050565b600081519050919050565b600081905092915050565b600082825260208201905092915050565b6000611a5882611b20565b9150611a6383611b20565b925082611a7357611a72611bd4565b5b828204905092915050565b6000611a8982611b20565b9150611a9483611b20565b9250817fffffffffffffffffffffffffffffffffffffffffffffffffffffffffffffffff0483118215151615611acd57611acc611ba5565b5b828202905092915050565b6000611ae382611b00565b9050919050565b60008115159050919050565b6000819050919050565b600073ffffffffffffffffffffffffffffffffffffffff82169050919050565b6000819050919050565b6000611b3582611b3c565b9050919050565b6000611b4782611b00565b9050919050565b6000611b5982611b60565b9050919050565b6000611b6b82611b00565b9050919050565b60005b83811015611b90578082015181840152602081019050611b75565b83811115611b9f576000848401525b50505050565b7f4e487b7100000000000000000000000000000000000000000000000000000000600052601160045260246000fd5b7f4e487b7100000000000000000000000000000000000000000000000000000000600052601260045260246000fd5b600080fd5b6000601f19601f8301169050919050565b7f596f7520646f206e6f74206861766520656e6f756768204368796d6500000000600082015250565b7f496e697469616c697a61626c653a20636f6e747261637420697320616c72656160008201527f647920696e697469616c697a6564000000000000000000000000000000000000602082015250565b7f4e656564206d6f72652053746561647900000000000000000000000000000000600082015250565b7f4e656564206d6f726520456c6978697200000000000000000000000000000000600082015250565b7f5265656e7472616e637947756172643a207265656e7472616e742063616c6c00600082015250565b7f4f7261636c65207072696365206973206f7574206f662072616e676500000000600082015250565b611d3e81611ad8565b8114611d4957600080fd5b50565b611d5581611aea565b8114611d6057600080fd5b50565b611d6c81611af6565b8114611d7757600080fd5b50565b611d8381611b20565b8114611d8e57600080fd5b5056fea26469706673582212207b505136c6b4b12344f6d1a55dbe45f373544c85289cef06918437a078ed37d964736f6c63430008060033",
  "linkReferences": {},
  "deployedLinkReferences": {}
}