{
  "_format": "hh-sol-artifact-1",
  "contractName": "Alchemist",
  "sourceName": "contracts/Alchemist.sol",
  "abi": [
    {
      "anonymous": false,
      "inputs": [
        {
          "indexed": true,
          "internalType": "address",
          "name": "source",
          "type": "address"
        },
        {
          "indexed": false,
          "internalType": "uint256",
          "name": "mergedAmount",
          "type": "uint256"
        },
        {
          "indexed": false,
          "internalType": "int256",
          "name": "price",
          "type": "int256"
        }
      ],
      "name": "Merge",
      "type": "event"
    },
    {
      "anonymous": false,
      "inputs": [
        {
          "indexed": true,
          "internalType": "address",
          "name": "source",
          "type": "address"
        },
        {
          "indexed": false,
          "internalType": "uint256",
          "name": "splitAmount",
          "type": "uint256"
        },
        {
          "indexed": false,
          "internalType": "int256",
          "name": "price",
          "type": "int256"
        }
      ],
      "name": "Split",
      "type": "event"
    },
    {
      "inputs": [],
      "name": "Chyme",
      "outputs": [
        {
          "internalType": "contract ICHYME",
          "name": "",
          "type": "address"
        }
      ],
      "stateMutability": "view",
      "type": "function"
    },
    {
      "inputs": [],
      "name": "elixir",
      "outputs": [
        {
          "internalType": "contract IERC20Burnable",
          "name": "",
          "type": "address"
        }
      ],
      "stateMutability": "view",
      "type": "function"
    },
    {
      "inputs": [
        {
          "internalType": "address",
          "name": "_Chyme",
          "type": "address"
        },
        {
          "internalType": "address",
          "name": "_Steady",
          "type": "address"
        },
        {
          "internalType": "address",
          "name": "_Elixir",
          "type": "address"
        },
        {
          "internalType": "address",
          "name": "_priceOracle",
          "type": "address"
        }
      ],
      "name": "initialize",
      "outputs": [],
      "stateMutability": "nonpayable",
      "type": "function"
    },
    {
      "inputs": [
        {
          "internalType": "uint256",
          "name": "ChymeAmountToMerge",
          "type": "uint256"
        }
      ],
      "name": "merge",
      "outputs": [
        {
          "internalType": "bool",
          "name": "",
          "type": "bool"
        }
      ],
      "stateMutability": "nonpayable",
      "type": "function"
    },
    {
      "inputs": [],
      "name": "priceFromOracle",
      "outputs": [
        {
          "internalType": "int256",
          "name": "price",
          "type": "int256"
        }
      ],
      "stateMutability": "view",
      "type": "function"
    },
    {
      "inputs": [],
      "name": "priceOracle",
      "outputs": [
        {
          "internalType": "address",
          "name": "",
          "type": "address"
        }
      ],
      "stateMutability": "view",
      "type": "function"
    },
    {
      "inputs": [
        {
          "internalType": "uint256",
          "name": "amount",
          "type": "uint256"
        }
      ],
      "name": "split",
      "outputs": [
        {
          "internalType": "bool",
          "name": "",
          "type": "bool"
        }
      ],
      "stateMutability": "nonpayable",
      "type": "function"
    },
    {
      "inputs": [],
      "name": "steady",
      "outputs": [
        {
          "internalType": "contract IERC20Burnable",
          "name": "",
          "type": "address"
        }
      ],
      "stateMutability": "view",
      "type": "function"
    }
  ],
  "bytecode": "0x608060405234801561001057600080fd5b5060016000819055506117ec806100286000396000f3fe608060405234801561001057600080fd5b50600436106100885760003560e01c806396f392f41161005b57806396f392f414610117578063dbceb00514610135578063dc4925ba14610165578063f8c8765e1461018357610088565b806311a07f911461008d57806324a47aeb146100ab5780632630c12f146100db5780637eacc25f146100f9575b600080fd5b61009561019f565b6040516100a29190611358565b60405180910390f35b6100c560048036038101906100c091906110be565b61032c565b6040516100d29190611307565b60405180910390f35b6100e3610831565b6040516100f0919061128c565b60405180910390f35b610101610857565b60405161010e919061133d565b60405180910390f35b61011f61087d565b60405161012c919061133d565b60405180910390f35b61014f600480360381019061014a91906110be565b6108a3565b60405161015c9190611307565b60405180910390f35b61016d610c8e565b60405161017a9190611322565b60405180910390f35b61019d60048036038101906101989190610ffd565b610cb4565b005b6000806040516024016040516020818303038152906040527f8e15f473000000000000000000000000000000000000000000000000000000007bffffffffffffffffffffffffffffffffffffffffffffffffffffffff19166020820180517bffffffffffffffffffffffffffffffffffffffffffffffffffffffff838183161783525050505090506000600460009054906101000a900473ffffffffffffffffffffffffffffffffffffffff1673ffffffffffffffffffffffffffffffffffffffff16826040516102709190611275565b600060405180830381855afa9150503d80600081146102ab576040519150601f19603f3d011682016040523d82523d6000602084013e6102b0565b606091505b50915050808060200190518101906102c89190611091565b9250600183121580156102e857506c0c9f2c9cd04674edea400000008313155b610327576040517f08c379a000000000000000000000000000000000000000000000000000000000815260040161031e90611413565b60405180910390fd5b505090565b600060026000541415610374576040517f08c379a000000000000000000000000000000000000000000000000000000000815260040161036b906113f3565b60405180910390fd5b6002600081905550600a82101561038a57600080fd5b610392610f7a565b61039a610f7a565b60006103a461019f565b90506402540be40081604b876103ba91906114b4565b6103c491906114b4565b6103ce9190611483565b82602001818152505060646019866103e691906114b4565b6103f09190611483565b836020018181525050600260009054906101000a900473ffffffffffffffffffffffffffffffffffffffff1673ffffffffffffffffffffffffffffffffffffffff166370a08231336040518263ffffffff1660e01b8152600401610454919061128c565b60206040518083038186803b15801561046c57600080fd5b505afa158015610480573d6000803e3d6000fd5b505050506040513d601f19601f820116820180604052508101906104a491906110eb565b826000018181525050600360009054906101000a900473ffffffffffffffffffffffffffffffffffffffff1673ffffffffffffffffffffffffffffffffffffffff166370a08231336040518263ffffffff1660e01b8152600401610508919061128c565b60206040518083038186803b15801561052057600080fd5b505afa158015610534573d6000803e3d6000fd5b505050506040513d601f19601f8201168201806040525081019061055891906110eb565b8360000181815250508260000151836020015111156105ac576040517f08c379a00000000000000000000000000000000000000000000000000000000081526004016105a3906113d3565b60405180910390fd5b8160000151826020015111156105f7576040517f08c379a00000000000000000000000000000000000000000000000000000000081526004016105ee906113b3565b60405180910390fd5b600160029054906101000a900473ffffffffffffffffffffffffffffffffffffffff1673ffffffffffffffffffffffffffffffffffffffff1663095ea7b333876040518363ffffffff1660e01b81526004016106549291906112de565b602060405180830381600087803b15801561066e57600080fd5b505af1158015610682573d6000803e3d6000fd5b505050506040513d601f19601f820116820180604052508101906106a69190611064565b50600360009054906101000a900473ffffffffffffffffffffffffffffffffffffffff1673ffffffffffffffffffffffffffffffffffffffff166379cc67903385602001516040518363ffffffff1660e01b81526004016107089291906112de565b600060405180830381600087803b15801561072257600080fd5b505af1158015610736573d6000803e3d6000fd5b50505050600260009054906101000a900473ffffffffffffffffffffffffffffffffffffffff1673ffffffffffffffffffffffffffffffffffffffff166379cc67903384602001516040518363ffffffff1660e01b815260040161079b9291906112de565b600060405180830381600087803b1580156107b557600080fd5b505af11580156107c9573d6000803e3d6000fd5b505050503373ffffffffffffffffffffffffffffffffffffffff167fe16ce85ab68c6b954fe4487ea4075f9afd57602a905875f367a50eef4c7d5b878683604051610815929190611433565b60405180910390a2600193505050506001600081905550919050565b600460009054906101000a900473ffffffffffffffffffffffffffffffffffffffff1681565b600260009054906101000a900473ffffffffffffffffffffffffffffffffffffffff1681565b600360009054906101000a900473ffffffffffffffffffffffffffffffffffffffff1681565b6000600260005414156108eb576040517f08c379a00000000000000000000000000000000000000000000000000000000081526004016108e2906113f3565b60405180910390fd5b6002600081905550600a82101561090157600080fd5b6000600160029054906101000a900473ffffffffffffffffffffffffffffffffffffffff1673ffffffffffffffffffffffffffffffffffffffff166370a08231336040518263ffffffff1660e01b815260040161095e919061128c565b60206040518083038186803b15801561097657600080fd5b505afa15801561098a573d6000803e3d6000fd5b505050506040513d601f19601f820116820180604052508101906109ae91906110eb565b9050808311156109f3576040517f08c379a00000000000000000000000000000000000000000000000000000000081526004016109ea90611373565b60405180910390fd5b60006109fd61019f565b905060006402540be40082604b87610a1591906114b4565b610a1f91906114b4565b610a299190611483565b9050600160029054906101000a900473ffffffffffffffffffffffffffffffffffffffff1673ffffffffffffffffffffffffffffffffffffffff166323b872dd3330886040518463ffffffff1660e01b8152600401610a8a939291906112a7565b602060405180830381600087803b158015610aa457600080fd5b505af1158015610ab8573d6000803e3d6000fd5b505050506040513d601f19601f82011682018060405250810190610adc9190611064565b50600260009054906101000a900473ffffffffffffffffffffffffffffffffffffffff1673ffffffffffffffffffffffffffffffffffffffff166340c10f1933836040518363ffffffff1660e01b8152600401610b3a9291906112de565b600060405180830381600087803b158015610b5457600080fd5b505af1158015610b68573d6000803e3d6000fd5b50505050600360009054906101000a900473ffffffffffffffffffffffffffffffffffffffff1673ffffffffffffffffffffffffffffffffffffffff166340c10f1933600a80606460198b610bbd91906114b4565b610bc79190611483565b610bd19190611483565b610bdb91906114b4565b6040518363ffffffff1660e01b8152600401610bf89291906112de565b600060405180830381600087803b158015610c1257600080fd5b505af1158015610c26573d6000803e3d6000fd5b505050503373ffffffffffffffffffffffffffffffffffffffff167f563287642471a421e73cd8c32313a493560c2f122e409c0099b4449f7297cce68684604051610c72929190611433565b60405180910390a2600193505050506001600081905550919050565b600160029054906101000a900473ffffffffffffffffffffffffffffffffffffffff1681565b60018054906101000a900460ff1680610cda5750600160009054906101000a900460ff16155b610d19576040517f08c379a0000000000000000000000000000000000000000000000000000000008152600401610d1090611393565b60405180910390fd5b600060018054906101000a900460ff161590508015610d675760018060016101000a81548160ff02191690831515021790555060018060006101000a81548160ff0219169083151502179055505b610d7385858585610d9b565b8015610d945760006001806101000a81548160ff0219169083151502179055505b5050505050565b60018054906101000a900460ff1680610dc15750600160009054906101000a900460ff16155b610e00576040517f08c379a0000000000000000000000000000000000000000000000000000000008152600401610df790611393565b60405180910390fd5b600060018054906101000a900460ff161590508015610e4e5760018060016101000a81548160ff02191690831515021790555060018060006101000a81548160ff0219169083151502179055505b84600160026101000a81548173ffffffffffffffffffffffffffffffffffffffff021916908373ffffffffffffffffffffffffffffffffffffffff16021790555083600260006101000a81548173ffffffffffffffffffffffffffffffffffffffff021916908373ffffffffffffffffffffffffffffffffffffffff16021790555082600360006101000a81548173ffffffffffffffffffffffffffffffffffffffff021916908373ffffffffffffffffffffffffffffffffffffffff16021790555081600460006101000a81548173ffffffffffffffffffffffffffffffffffffffff021916908373ffffffffffffffffffffffffffffffffffffffff1602179055508015610f735760006001806101000a81548160ff0219169083151502179055505b5050505050565b604051806040016040528060008152602001600081525090565b600081359050610fa38161175a565b92915050565b600081519050610fb881611771565b92915050565b600081519050610fcd81611788565b92915050565b600081359050610fe28161179f565b92915050565b600081519050610ff78161179f565b92915050565b6000806000806080858703121561101757611016611639565b5b600061102587828801610f94565b945050602061103687828801610f94565b935050604061104787828801610f94565b925050606061105887828801610f94565b91505092959194509250565b60006020828403121561107a57611079611639565b5b600061108884828501610fa9565b91505092915050565b6000602082840312156110a7576110a6611639565b5b60006110b584828501610fbe565b91505092915050565b6000602082840312156110d4576110d3611639565b5b60006110e284828501610fd3565b91505092915050565b60006020828403121561110157611100611639565b5b600061110f84828501610fe8565b91505092915050565b6111218161150e565b82525050565b61113081611520565b82525050565b60006111418261145c565b61114b8185611467565b935061115b8185602086016115a8565b80840191505092915050565b61117081611560565b82525050565b61117f81611584565b82525050565b61118e8161152c565b82525050565b60006111a1601c83611472565b91506111ac8261163e565b602082019050919050565b60006111c4602e83611472565b91506111cf82611667565b604082019050919050565b60006111e7601083611472565b91506111f2826116b6565b602082019050919050565b600061120a601083611472565b9150611215826116df565b602082019050919050565b600061122d601f83611472565b915061123882611708565b602082019050919050565b6000611250601c83611472565b915061125b82611731565b602082019050919050565b61126f81611556565b82525050565b60006112818284611136565b915081905092915050565b60006020820190506112a16000830184611118565b92915050565b60006060820190506112bc6000830186611118565b6112c96020830185611118565b6112d66040830184611266565b949350505050565b60006040820190506112f36000830185611118565b6113006020830184611266565b9392505050565b600060208201905061131c6000830184611127565b92915050565b60006020820190506113376000830184611167565b92915050565b60006020820190506113526000830184611176565b92915050565b600060208201905061136d6000830184611185565b92915050565b6000602082019050818103600083015261138c81611194565b9050919050565b600060208201905081810360008301526113ac816111b7565b9050919050565b600060208201905081810360008301526113cc816111da565b9050919050565b600060208201905081810360008301526113ec816111fd565b9050919050565b6000602082019050818103600083015261140c81611220565b9050919050565b6000602082019050818103600083015261142c81611243565b9050919050565b60006040820190506114486000830185611266565b6114556020830184611185565b9392505050565b600081519050919050565b600081905092915050565b600082825260208201905092915050565b600061148e82611556565b915061149983611556565b9250826114a9576114a861160a565b5b828204905092915050565b60006114bf82611556565b91506114ca83611556565b9250817fffffffffffffffffffffffffffffffffffffffffffffffffffffffffffffffff0483118215151615611503576115026115db565b5b828202905092915050565b600061151982611536565b9050919050565b60008115159050919050565b6000819050919050565b600073ffffffffffffffffffffffffffffffffffffffff82169050919050565b6000819050919050565b600061156b82611572565b9050919050565b600061157d82611536565b9050919050565b600061158f82611596565b9050919050565b60006115a182611536565b9050919050565b60005b838110156115c65780820151818401526020810190506115ab565b838111156115d5576000848401525b50505050565b7f4e487b7100000000000000000000000000000000000000000000000000000000600052601160045260246000fd5b7f4e487b7100000000000000000000000000000000000000000000000000000000600052601260045260246000fd5b600080fd5b7f596f7520646f206e6f74206861766520656e6f756768204368796d6500000000600082015250565b7f496e697469616c697a61626c653a20636f6e747261637420697320616c72656160008201527f647920696e697469616c697a6564000000000000000000000000000000000000602082015250565b7f4e656564206d6f72652053746561647900000000000000000000000000000000600082015250565b7f4e656564206d6f726520456c6978697200000000000000000000000000000000600082015250565b7f5265656e7472616e637947756172643a207265656e7472616e742063616c6c00600082015250565b7f4f7261636c65207072696365206973206f7574206f662072616e676500000000600082015250565b6117638161150e565b811461176e57600080fd5b50565b61177a81611520565b811461178557600080fd5b50565b6117918161152c565b811461179c57600080fd5b50565b6117a881611556565b81146117b357600080fd5b5056fea2646970667358221220a9ae59ab7ab118b052b71a8b38ece5b5ea8aecd9c33803f88a59c1670637411f64736f6c63430008060033",
  "linkReferences": {},
  "deployedLinkReferences": {}
}