{
  "_format": "hh-sol-artifact-1",
  "contractName": "Alchemist",
  "sourceName": "contracts/Alchemist.sol",
  "abi": [
    {
      "anonymous": false,
      "inputs": [
        {
          "indexed": true,
          "internalType": "address",
          "name": "source",
          "type": "address"
        },
        {
          "indexed": false,
          "internalType": "uint256",
          "name": "mergedAmount",
          "type": "uint256"
        },
        {
          "indexed": false,
          "internalType": "int256",
          "name": "price",
          "type": "int256"
        }
      ],
      "name": "Merge",
      "type": "event"
    },
    {
      "anonymous": false,
      "inputs": [
        {
          "indexed": true,
          "internalType": "address",
          "name": "source",
          "type": "address"
        },
        {
          "indexed": false,
          "internalType": "uint256",
          "name": "splitAmount",
          "type": "uint256"
        },
        {
          "indexed": false,
          "internalType": "int256",
          "name": "price",
          "type": "int256"
        }
      ],
      "name": "Split",
      "type": "event"
    },
    {
      "inputs": [],
      "name": "Chyme",
      "outputs": [
        {
          "internalType": "contract ICHYME",
          "name": "",
          "type": "address"
        }
      ],
      "stateMutability": "view",
      "type": "function"
    },
    {
      "inputs": [],
      "name": "elixir",
      "outputs": [
        {
          "internalType": "contract IERC20Burnable",
          "name": "",
          "type": "address"
        }
      ],
      "stateMutability": "view",
      "type": "function"
    },
    {
      "inputs": [],
      "name": "elixirAddr",
      "outputs": [
        {
          "internalType": "address",
          "name": "",
          "type": "address"
        }
      ],
      "stateMutability": "view",
      "type": "function"
    },
    {
      "inputs": [],
      "name": "getElixirAddr",
      "outputs": [
        {
          "internalType": "address",
          "name": "",
          "type": "address"
        }
      ],
      "stateMutability": "view",
      "type": "function"
    },
    {
      "inputs": [],
      "name": "getSteadyAddr",
      "outputs": [
        {
          "internalType": "address",
          "name": "",
          "type": "address"
        }
      ],
      "stateMutability": "view",
      "type": "function"
    },
    {
      "inputs": [
        {
          "internalType": "address",
          "name": "_Chyme",
          "type": "address"
        },
        {
          "internalType": "address",
          "name": "_Steady",
          "type": "address"
        },
        {
          "internalType": "address",
          "name": "_Elixir",
          "type": "address"
        },
        {
          "internalType": "address",
          "name": "_priceOracle",
          "type": "address"
        }
      ],
      "name": "initialize",
      "outputs": [],
      "stateMutability": "nonpayable",
      "type": "function"
    },
    {
      "inputs": [
        {
          "internalType": "uint256",
          "name": "ChymeAmountToMerge",
          "type": "uint256"
        }
      ],
      "name": "merge",
      "outputs": [
        {
          "internalType": "bool",
          "name": "",
          "type": "bool"
        }
      ],
      "stateMutability": "nonpayable",
      "type": "function"
    },
    {
      "inputs": [],
      "name": "priceFromOracle",
      "outputs": [
        {
          "internalType": "int256",
          "name": "price",
          "type": "int256"
        }
      ],
      "stateMutability": "view",
      "type": "function"
    },
    {
      "inputs": [],
      "name": "priceOracle",
      "outputs": [
        {
          "internalType": "address",
          "name": "",
          "type": "address"
        }
      ],
      "stateMutability": "view",
      "type": "function"
    },
    {
      "inputs": [
        {
          "internalType": "uint256",
          "name": "amount",
          "type": "uint256"
        }
      ],
      "name": "split",
      "outputs": [
        {
          "internalType": "bool",
          "name": "",
          "type": "bool"
        }
      ],
      "stateMutability": "nonpayable",
      "type": "function"
    },
    {
      "inputs": [],
      "name": "steady",
      "outputs": [
        {
          "internalType": "contract IERC20Burnable",
          "name": "",
          "type": "address"
        }
      ],
      "stateMutability": "view",
      "type": "function"
    },
    {
      "inputs": [],
      "name": "steadyAddr",
      "outputs": [
        {
          "internalType": "address",
          "name": "",
          "type": "address"
        }
      ],
      "stateMutability": "view",
      "type": "function"
    }
  ],
  "bytecode": "0x608060405234801561001057600080fd5b506001600081905550611ede806100286000396000f3fe608060405234801561001057600080fd5b50600436106100b45760003560e01c80639450ef5e116100715780639450ef5e1461017f57806396f392f41461019d578063dbceb005146101bb578063dc4925ba146101eb578063f3908e2414610209578063f8c8765e14610227576100b4565b806311a07f91146100b957806324a47aeb146100d75780632630c12f1461010757806333db9a87146101255780635f590b97146101435780637eacc25f14610161575b600080fd5b6100c1610243565b6040516100ce9190611945565b60405180910390f35b6100f160048036038101906100ec9190611672565b6103d0565b6040516100fe91906118f4565b60405180910390f35b61010f61093f565b60405161011c9190611879565b60405180910390f35b61012d610965565b60405161013a9190611879565b60405180910390f35b61014b61098f565b6040516101589190611879565b60405180910390f35b6101696109b9565b604051610176919061192a565b60405180910390f35b6101876109df565b6040516101949190611879565b60405180910390f35b6101a5610a05565b6040516101b2919061192a565b60405180910390f35b6101d560048036038101906101d09190611672565b610a2b565b6040516101e291906118f4565b60405180910390f35b6101f3610f01565b604051610200919061190f565b60405180910390f35b610211610f27565b60405161021e9190611879565b60405180910390f35b610241600480360381019061023c91906115b1565b610f4d565b005b6000806040516024016040516020818303038152906040527f50d25bcd000000000000000000000000000000000000000000000000000000007bffffffffffffffffffffffffffffffffffffffffffffffffffffffff19166020820180517bffffffffffffffffffffffffffffffffffffffffffffffffffffffff838183161783525050505090506000600660009054906101000a900473ffffffffffffffffffffffffffffffffffffffff1673ffffffffffffffffffffffffffffffffffffffff16826040516103149190611862565b600060405180830381855afa9150503d806000811461034f576040519150601f19603f3d011682016040523d82523d6000602084013e610354565b606091505b509150508080602001905181019061036c9190611645565b92506001831215801561038c57506c0c9f2c9cd04674edea400000008313155b6103cb576040517f08c379a00000000000000000000000000000000000000000000000000000000081526004016103c290611ac0565b60405180910390fd5b505090565b600060026000541415610418576040517f08c379a000000000000000000000000000000000000000000000000000000000815260040161040f90611aa0565b60405180910390fd5b6002600081905550600a82101561042e57600080fd5b61043661152e565b61043e61152e565b6000610448610243565b90506402540be40081604b8761045e9190611b6c565b6104689190611b6c565b6104729190611b3b565b826020018181525050606460198661048a9190611b6c565b6104949190611b3b565b836020018181525050600260009054906101000a900473ffffffffffffffffffffffffffffffffffffffff1673ffffffffffffffffffffffffffffffffffffffff166370a08231336040518263ffffffff1660e01b81526004016104f89190611879565b60206040518083038186803b15801561051057600080fd5b505afa158015610524573d6000803e3d6000fd5b505050506040513d601f19601f82011682018060405250810190610548919061169f565b826000018181525050600360009054906101000a900473ffffffffffffffffffffffffffffffffffffffff1673ffffffffffffffffffffffffffffffffffffffff166370a08231336040518263ffffffff1660e01b81526004016105ac9190611879565b60206040518083038186803b1580156105c457600080fd5b505afa1580156105d8573d6000803e3d6000fd5b505050506040513d601f19601f820116820180604052508101906105fc919061169f565b836000018181525050826000015183602001511115610650576040517f08c379a000000000000000000000000000000000000000000000000000000000815260040161064790611a80565b60405180910390fd5b81600001518260200151111561069b576040517f08c379a000000000000000000000000000000000000000000000000000000000815260040161069290611a60565b60405180910390fd5b600160029054906101000a900473ffffffffffffffffffffffffffffffffffffffff1673ffffffffffffffffffffffffffffffffffffffff1663095ea7b333876040518363ffffffff1660e01b81526004016106f89291906118cb565b602060405180830381600087803b15801561071257600080fd5b505af1158015610726573d6000803e3d6000fd5b505050506040513d601f19601f8201168201806040525081019061074a9190611618565b5061078a6040518060400160405280600e81526020017f616c63684920616464723a20257300000000000000000000000000000000000081525030611034565b6107b5604051806060016040528060298152602001611e8060299139836020015185602001516110d0565b600360009054906101000a900473ffffffffffffffffffffffffffffffffffffffff1673ffffffffffffffffffffffffffffffffffffffff166379cc67903385602001516040518363ffffffff1660e01b81526004016108169291906118cb565b600060405180830381600087803b15801561083057600080fd5b505af1158015610844573d6000803e3d6000fd5b50505050600260009054906101000a900473ffffffffffffffffffffffffffffffffffffffff1673ffffffffffffffffffffffffffffffffffffffff166379cc67903384602001516040518363ffffffff1660e01b81526004016108a99291906118cb565b600060405180830381600087803b1580156108c357600080fd5b505af11580156108d7573d6000803e3d6000fd5b505050503373ffffffffffffffffffffffffffffffffffffffff167fe16ce85ab68c6b954fe4487ea4075f9afd57602a905875f367a50eef4c7d5b878683604051610923929190611ae0565b60405180910390a2600193505050506001600081905550919050565b600660009054906101000a900473ffffffffffffffffffffffffffffffffffffffff1681565b6000600560009054906101000a900473ffffffffffffffffffffffffffffffffffffffff16905090565b6000600460009054906101000a900473ffffffffffffffffffffffffffffffffffffffff16905090565b600260009054906101000a900473ffffffffffffffffffffffffffffffffffffffff1681565b600460009054906101000a900473ffffffffffffffffffffffffffffffffffffffff1681565b600360009054906101000a900473ffffffffffffffffffffffffffffffffffffffff1681565b600060026000541415610a73576040517f08c379a0000000000000000000000000000000000000000000000000000000008152600401610a6a90611aa0565b60405180910390fd5b6002600081905550610ab96040518060400160405280601481526020017f62616c616e636520696e20636f6e74726163743a00000000000000000000000081525061116f565b600a821015610ac757600080fd5b6000600160029054906101000a900473ffffffffffffffffffffffffffffffffffffffff1673ffffffffffffffffffffffffffffffffffffffff166370a08231336040518263ffffffff1660e01b8152600401610b249190611879565b60206040518083038186803b158015610b3c57600080fd5b505afa158015610b50573d6000803e3d6000fd5b505050506040513d601f19601f82011682018060405250810190610b74919061169f565b905080831115610bb9576040517f08c379a0000000000000000000000000000000000000000000000000000000008152600401610bb090611a20565b60405180910390fd5b6000610bc3610243565b905060006402540be40082604b87610bdb9190611b6c565b610be59190611b6c565b610bef9190611b3b565b9050600160029054906101000a900473ffffffffffffffffffffffffffffffffffffffff1673ffffffffffffffffffffffffffffffffffffffff166323b872dd3330886040518463ffffffff1660e01b8152600401610c5093929190611894565b602060405180830381600087803b158015610c6a57600080fd5b505af1158015610c7e573d6000803e3d6000fd5b505050506040513d601f19601f82011682018060405250810190610ca29190611618565b50600260009054906101000a900473ffffffffffffffffffffffffffffffffffffffff1673ffffffffffffffffffffffffffffffffffffffff166340c10f1933836040518363ffffffff1660e01b8152600401610d009291906118cb565b600060405180830381600087803b158015610d1a57600080fd5b505af1158015610d2e573d6000803e3d6000fd5b50505050600360009054906101000a900473ffffffffffffffffffffffffffffffffffffffff1673ffffffffffffffffffffffffffffffffffffffff166340c10f1933600a80606460198b610d839190611b6c565b610d8d9190611b3b565b610d979190611b3b565b610da19190611b6c565b6040518363ffffffff1660e01b8152600401610dbe9291906118cb565b600060405180830381600087803b158015610dd857600080fd5b505af1158015610dec573d6000803e3d6000fd5b50505050610e2f6040518060400160405280601281526020017f53544541445920414e535745523a3a202573000000000000000000000000000081525082611208565b610e9d6040518060400160405280601381526020017f45584c4958495220414e535745523a3a20257300000000000000000000000000815250600a80606460198a610e7a9190611b6c565b610e849190611b3b565b610e8e9190611b3b565b610e989190611b6c565b611208565b3373ffffffffffffffffffffffffffffffffffffffff167f563287642471a421e73cd8c32313a493560c2f122e409c0099b4449f7297cce68684604051610ee5929190611ae0565b60405180910390a2600193505050506001600081905550919050565b600160029054906101000a900473ffffffffffffffffffffffffffffffffffffffff1681565b600560009054906101000a900473ffffffffffffffffffffffffffffffffffffffff1681565b60018054906101000a900460ff1680610f735750600160009054906101000a900460ff16155b610fb2576040517f08c379a0000000000000000000000000000000000000000000000000000000008152600401610fa990611a40565b60405180910390fd5b600060018054906101000a900460ff1615905080156110005760018060016101000a81548160ff02191690831515021790555060018060006101000a81548160ff0219169083151502179055505b61100c858585856112a4565b801561102d5760006001806101000a81548160ff0219169083151502179055505b5050505050565b6110cc828260405160240161104a929190611982565b6040516020818303038152906040527f319af333000000000000000000000000000000000000000000000000000000007bffffffffffffffffffffffffffffffffffffffffffffffffffffffff19166020820180517bffffffffffffffffffffffffffffffffffffffffffffffffffffffff8381831617835250505050611505565b5050565b61116a8383836040516024016110e8939291906119e2565b6040516020818303038152906040527f969cdd03000000000000000000000000000000000000000000000000000000007bffffffffffffffffffffffffffffffffffffffffffffffffffffffff19166020820180517bffffffffffffffffffffffffffffffffffffffffffffffffffffffff8381831617835250505050611505565b505050565b611205816040516024016111839190611960565b6040516020818303038152906040527f41304fac000000000000000000000000000000000000000000000000000000007bffffffffffffffffffffffffffffffffffffffffffffffffffffffff19166020820180517bffffffffffffffffffffffffffffffffffffffffffffffffffffffff8381831617835250505050611505565b50565b6112a0828260405160240161121e9291906119b2565b6040516020818303038152906040527f9710a9d0000000000000000000000000000000000000000000000000000000007bffffffffffffffffffffffffffffffffffffffffffffffffffffffff19166020820180517bffffffffffffffffffffffffffffffffffffffffffffffffffffffff8381831617835250505050611505565b5050565b60018054906101000a900460ff16806112ca5750600160009054906101000a900460ff16155b611309576040517f08c379a000000000000000000000000000000000000000000000000000000000815260040161130090611a40565b60405180910390fd5b600060018054906101000a900460ff1615905080156113575760018060016101000a81548160ff02191690831515021790555060018060006101000a81548160ff0219169083151502179055505b84600160026101000a81548173ffffffffffffffffffffffffffffffffffffffff021916908373ffffffffffffffffffffffffffffffffffffffff16021790555083600260006101000a81548173ffffffffffffffffffffffffffffffffffffffff021916908373ffffffffffffffffffffffffffffffffffffffff16021790555082600360006101000a81548173ffffffffffffffffffffffffffffffffffffffff021916908373ffffffffffffffffffffffffffffffffffffffff16021790555083600460006101000a81548173ffffffffffffffffffffffffffffffffffffffff021916908373ffffffffffffffffffffffffffffffffffffffff16021790555082600560006101000a81548173ffffffffffffffffffffffffffffffffffffffff021916908373ffffffffffffffffffffffffffffffffffffffff16021790555081600660006101000a81548173ffffffffffffffffffffffffffffffffffffffff021916908373ffffffffffffffffffffffffffffffffffffffff16021790555080156114fe5760006001806101000a81548160ff0219169083151502179055505b5050505050565b60008151905060006a636f6e736f6c652e6c6f679050602083016000808483855afa5050505050565b604051806040016040528060008152602001600081525090565b60008135905061155781611e23565b92915050565b60008151905061156c81611e3a565b92915050565b60008151905061158181611e51565b92915050565b60008135905061159681611e68565b92915050565b6000815190506115ab81611e68565b92915050565b600080600080608085870312156115cb576115ca611cf1565b5b60006115d987828801611548565b94505060206115ea87828801611548565b93505060406115fb87828801611548565b925050606061160c87828801611548565b91505092959194509250565b60006020828403121561162e5761162d611cf1565b5b600061163c8482850161155d565b91505092915050565b60006020828403121561165b5761165a611cf1565b5b600061166984828501611572565b91505092915050565b60006020828403121561168857611687611cf1565b5b600061169684828501611587565b91505092915050565b6000602082840312156116b5576116b4611cf1565b5b60006116c38482850161159c565b91505092915050565b6116d581611bc6565b82525050565b6116e481611bd8565b82525050565b60006116f582611b09565b6116ff8185611b1f565b935061170f818560208601611c60565b80840191505092915050565b61172481611c18565b82525050565b61173381611c3c565b82525050565b61174281611be4565b82525050565b600061175382611b14565b61175d8185611b2a565b935061176d818560208601611c60565b61177681611cf6565b840191505092915050565b600061178e601c83611b2a565b915061179982611d07565b602082019050919050565b60006117b1602e83611b2a565b91506117bc82611d30565b604082019050919050565b60006117d4601083611b2a565b91506117df82611d7f565b602082019050919050565b60006117f7601083611b2a565b915061180282611da8565b602082019050919050565b600061181a601f83611b2a565b915061182582611dd1565b602082019050919050565b600061183d601c83611b2a565b915061184882611dfa565b602082019050919050565b61185c81611c0e565b82525050565b600061186e82846116ea565b915081905092915050565b600060208201905061188e60008301846116cc565b92915050565b60006060820190506118a960008301866116cc565b6118b660208301856116cc565b6118c36040830184611853565b949350505050565b60006040820190506118e060008301856116cc565b6118ed6020830184611853565b9392505050565b600060208201905061190960008301846116db565b92915050565b6000602082019050611924600083018461171b565b92915050565b600060208201905061193f600083018461172a565b92915050565b600060208201905061195a6000830184611739565b92915050565b6000602082019050818103600083015261197a8184611748565b905092915050565b6000604082019050818103600083015261199c8185611748565b90506119ab60208301846116cc565b9392505050565b600060408201905081810360008301526119cc8185611748565b90506119db6020830184611853565b9392505050565b600060608201905081810360008301526119fc8186611748565b9050611a0b6020830185611853565b611a186040830184611853565b949350505050565b60006020820190508181036000830152611a3981611781565b9050919050565b60006020820190508181036000830152611a59816117a4565b9050919050565b60006020820190508181036000830152611a79816117c7565b9050919050565b60006020820190508181036000830152611a99816117ea565b9050919050565b60006020820190508181036000830152611ab98161180d565b9050919050565b60006020820190508181036000830152611ad981611830565b9050919050565b6000604082019050611af56000830185611853565b611b026020830184611739565b9392505050565b600081519050919050565b600081519050919050565b600081905092915050565b600082825260208201905092915050565b6000611b4682611c0e565b9150611b5183611c0e565b925082611b6157611b60611cc2565b5b828204905092915050565b6000611b7782611c0e565b9150611b8283611c0e565b9250817fffffffffffffffffffffffffffffffffffffffffffffffffffffffffffffffff0483118215151615611bbb57611bba611c93565b5b828202905092915050565b6000611bd182611bee565b9050919050565b60008115159050919050565b6000819050919050565b600073ffffffffffffffffffffffffffffffffffffffff82169050919050565b6000819050919050565b6000611c2382611c2a565b9050919050565b6000611c3582611bee565b9050919050565b6000611c4782611c4e565b9050919050565b6000611c5982611bee565b9050919050565b60005b83811015611c7e578082015181840152602081019050611c63565b83811115611c8d576000848401525b50505050565b7f4e487b7100000000000000000000000000000000000000000000000000000000600052601160045260246000fd5b7f4e487b7100000000000000000000000000000000000000000000000000000000600052601260045260246000fd5b600080fd5b6000601f19601f8301169050919050565b7f596f7520646f206e6f74206861766520656e6f756768204368796d6500000000600082015250565b7f496e697469616c697a61626c653a20636f6e747261637420697320616c72656160008201527f647920696e697469616c697a6564000000000000000000000000000000000000602082015250565b7f4e656564206d6f72652053746561647900000000000000000000000000000000600082015250565b7f4e656564206d6f726520456c6978697200000000000000000000000000000000600082015250565b7f5265656e7472616e637947756172643a207265656e7472616e742063616c6c00600082015250565b7f4f7261636c65207072696365206973206f7574206f662072616e676500000000600082015250565b611e2c81611bc6565b8114611e3757600080fd5b50565b611e4381611bd8565b8114611e4e57600080fd5b50565b611e5a81611be4565b8114611e6557600080fd5b50565b611e7181611c0e565b8114611e7c57600080fd5b5056fe5472696e6720746f206d65726765205374656164793a2025732c207c7c2020456c697869723a202573a26469706673582212208ff749d05b0973b0dea880b6d01e87b2925c16aae85693ca68970dd64123955664736f6c63430008060033",
  "linkReferences": {},
  "deployedLinkReferences": {}
}