{
  "_format": "hh-sol-artifact-1",
  "contractName": "Alchemist",
  "sourceName": "contracts/Alchemist.sol",
  "abi": [
    {
      "anonymous": false,
      "inputs": [
        {
          "indexed": true,
          "internalType": "address",
          "name": "source",
          "type": "address"
        },
        {
          "indexed": false,
          "internalType": "uint256",
          "name": "mergedAmount",
          "type": "uint256"
        },
        {
          "indexed": false,
          "internalType": "int256",
          "name": "price",
          "type": "int256"
        }
      ],
      "name": "Merge",
      "type": "event"
    },
    {
      "anonymous": false,
      "inputs": [
        {
          "indexed": true,
          "internalType": "address",
          "name": "source",
          "type": "address"
        },
        {
          "indexed": false,
          "internalType": "uint256",
          "name": "splitAmount",
          "type": "uint256"
        },
        {
          "indexed": false,
          "internalType": "int256",
          "name": "price",
          "type": "int256"
        }
      ],
      "name": "Split",
      "type": "event"
    },
    {
      "inputs": [],
      "name": "Chyme",
      "outputs": [
        {
          "internalType": "contract ICHYME",
          "name": "",
          "type": "address"
        }
      ],
      "stateMutability": "view",
      "type": "function"
    },
    {
      "inputs": [],
      "name": "elixir",
      "outputs": [
        {
          "internalType": "contract IERC20Burnable",
          "name": "",
          "type": "address"
        }
      ],
      "stateMutability": "view",
      "type": "function"
    },
    {
      "inputs": [
        {
          "internalType": "address",
          "name": "_Chyme",
          "type": "address"
        },
        {
          "internalType": "address",
          "name": "_Steady",
          "type": "address"
        },
        {
          "internalType": "address",
          "name": "_Elixir",
          "type": "address"
        },
        {
          "internalType": "address",
          "name": "_priceOracle",
          "type": "address"
        }
      ],
      "name": "initialize",
      "outputs": [],
      "stateMutability": "nonpayable",
      "type": "function"
    },
    {
      "inputs": [
        {
          "internalType": "uint256",
          "name": "ChymeAmountToMerge",
          "type": "uint256"
        }
      ],
      "name": "merge",
      "outputs": [
        {
          "internalType": "bool",
          "name": "",
          "type": "bool"
        }
      ],
      "stateMutability": "nonpayable",
      "type": "function"
    },
    {
      "inputs": [],
      "name": "priceFromOracle",
      "outputs": [
        {
          "internalType": "int256",
          "name": "price",
          "type": "int256"
        }
      ],
      "stateMutability": "view",
      "type": "function"
    },
    {
      "inputs": [],
      "name": "priceOracle",
      "outputs": [
        {
          "internalType": "address",
          "name": "",
          "type": "address"
        }
      ],
      "stateMutability": "view",
      "type": "function"
    },
    {
      "inputs": [
        {
          "internalType": "uint256",
          "name": "amount",
          "type": "uint256"
        }
      ],
      "name": "split",
      "outputs": [
        {
          "internalType": "bool",
          "name": "",
          "type": "bool"
        }
      ],
      "stateMutability": "nonpayable",
      "type": "function"
    },
    {
      "inputs": [],
      "name": "steady",
      "outputs": [
        {
          "internalType": "contract IERC20Burnable",
          "name": "",
          "type": "address"
        }
      ],
      "stateMutability": "view",
      "type": "function"
    }
  ],
  "bytecode": "0x608060405234801561001057600080fd5b506001600081905550611963806100286000396000f3fe608060405234801561001057600080fd5b50600436106100885760003560e01c806396f392f41161005b57806396f392f414610117578063dbceb00514610135578063dc4925ba14610165578063f8c8765e1461018357610088565b806311a07f911461008d57806324a47aeb146100ab5780632630c12f146100db5780637eacc25f146100f9575b600080fd5b61009561019f565b6040516100a29190611491565b60405180910390f35b6100c560048036038101906100c091906111be565b61032c565b6040516100d29190611440565b60405180910390f35b6100e3610831565b6040516100f091906113c5565b60405180910390f35b610101610857565b60405161010e9190611476565b60405180910390f35b61011f61087d565b60405161012c9190611476565b60405180910390f35b61014f600480360381019061014a91906111be565b6108a3565b60405161015c9190611440565b60405180910390f35b61016d610ccc565b60405161017a919061145b565b60405180910390f35b61019d600480360381019061019891906110fd565b610cf2565b005b6000806040516024016040516020818303038152906040527f50d25bcd000000000000000000000000000000000000000000000000000000007bffffffffffffffffffffffffffffffffffffffffffffffffffffffff19166020820180517bffffffffffffffffffffffffffffffffffffffffffffffffffffffff838183161783525050505090506000600460009054906101000a900473ffffffffffffffffffffffffffffffffffffffff1673ffffffffffffffffffffffffffffffffffffffff168260405161027091906113ae565b600060405180830381855afa9150503d80600081146102ab576040519150601f19603f3d011682016040523d82523d6000602084013e6102b0565b606091505b50915050808060200190518101906102c89190611191565b9250600183121580156102e857506c0c9f2c9cd04674edea400000008313155b610327576040517f08c379a000000000000000000000000000000000000000000000000000000000815260040161031e9061156e565b60405180910390fd5b505090565b600060026000541415610374576040517f08c379a000000000000000000000000000000000000000000000000000000000815260040161036b9061154e565b60405180910390fd5b6002600081905550600a82101561038a57600080fd5b61039261107a565b61039a61107a565b60006103a461019f565b90506402540be40081604b876103ba919061161a565b6103c4919061161a565b6103ce91906115e9565b82602001818152505060646019866103e6919061161a565b6103f091906115e9565b836020018181525050600260009054906101000a900473ffffffffffffffffffffffffffffffffffffffff1673ffffffffffffffffffffffffffffffffffffffff166370a08231336040518263ffffffff1660e01b815260040161045491906113c5565b60206040518083038186803b15801561046c57600080fd5b505afa158015610480573d6000803e3d6000fd5b505050506040513d601f19601f820116820180604052508101906104a491906111eb565b826000018181525050600360009054906101000a900473ffffffffffffffffffffffffffffffffffffffff1673ffffffffffffffffffffffffffffffffffffffff166370a08231336040518263ffffffff1660e01b815260040161050891906113c5565b60206040518083038186803b15801561052057600080fd5b505afa158015610534573d6000803e3d6000fd5b505050506040513d601f19601f8201168201806040525081019061055891906111eb565b8360000181815250508260000151836020015111156105ac576040517f08c379a00000000000000000000000000000000000000000000000000000000081526004016105a39061152e565b60405180910390fd5b8160000151826020015111156105f7576040517f08c379a00000000000000000000000000000000000000000000000000000000081526004016105ee9061150e565b60405180910390fd5b600160029054906101000a900473ffffffffffffffffffffffffffffffffffffffff1673ffffffffffffffffffffffffffffffffffffffff1663095ea7b333876040518363ffffffff1660e01b8152600401610654929190611417565b602060405180830381600087803b15801561066e57600080fd5b505af1158015610682573d6000803e3d6000fd5b505050506040513d601f19601f820116820180604052508101906106a69190611164565b50600360009054906101000a900473ffffffffffffffffffffffffffffffffffffffff1673ffffffffffffffffffffffffffffffffffffffff166379cc67903385602001516040518363ffffffff1660e01b8152600401610708929190611417565b600060405180830381600087803b15801561072257600080fd5b505af1158015610736573d6000803e3d6000fd5b50505050600260009054906101000a900473ffffffffffffffffffffffffffffffffffffffff1673ffffffffffffffffffffffffffffffffffffffff166379cc67903384602001516040518363ffffffff1660e01b815260040161079b929190611417565b600060405180830381600087803b1580156107b557600080fd5b505af11580156107c9573d6000803e3d6000fd5b505050503373ffffffffffffffffffffffffffffffffffffffff167fe16ce85ab68c6b954fe4487ea4075f9afd57602a905875f367a50eef4c7d5b87868360405161081592919061158e565b60405180910390a2600193505050506001600081905550919050565b600460009054906101000a900473ffffffffffffffffffffffffffffffffffffffff1681565b600260009054906101000a900473ffffffffffffffffffffffffffffffffffffffff1681565b600360009054906101000a900473ffffffffffffffffffffffffffffffffffffffff1681565b6000600260005414156108eb576040517f08c379a00000000000000000000000000000000000000000000000000000000081526004016108e29061154e565b60405180910390fd5b60026000819055506109316040518060400160405280601481526020017f62616c616e636520696e20636f6e74726163743a000000000000000000000000815250610dd9565b600a82101561093f57600080fd5b6000600160029054906101000a900473ffffffffffffffffffffffffffffffffffffffff1673ffffffffffffffffffffffffffffffffffffffff166370a08231336040518263ffffffff1660e01b815260040161099c91906113c5565b60206040518083038186803b1580156109b457600080fd5b505afa1580156109c8573d6000803e3d6000fd5b505050506040513d601f19601f820116820180604052508101906109ec91906111eb565b905080831115610a31576040517f08c379a0000000000000000000000000000000000000000000000000000000008152600401610a28906114ce565b60405180910390fd5b6000610a3b61019f565b905060006402540be40082604b87610a53919061161a565b610a5d919061161a565b610a6791906115e9565b9050600160029054906101000a900473ffffffffffffffffffffffffffffffffffffffff1673ffffffffffffffffffffffffffffffffffffffff166323b872dd3330886040518463ffffffff1660e01b8152600401610ac8939291906113e0565b602060405180830381600087803b158015610ae257600080fd5b505af1158015610af6573d6000803e3d6000fd5b505050506040513d601f19601f82011682018060405250810190610b1a9190611164565b50600260009054906101000a900473ffffffffffffffffffffffffffffffffffffffff1673ffffffffffffffffffffffffffffffffffffffff166340c10f1933836040518363ffffffff1660e01b8152600401610b78929190611417565b600060405180830381600087803b158015610b9257600080fd5b505af1158015610ba6573d6000803e3d6000fd5b50505050600360009054906101000a900473ffffffffffffffffffffffffffffffffffffffff1673ffffffffffffffffffffffffffffffffffffffff166340c10f1933600a80606460198b610bfb919061161a565b610c0591906115e9565b610c0f91906115e9565b610c19919061161a565b6040518363ffffffff1660e01b8152600401610c36929190611417565b600060405180830381600087803b158015610c5057600080fd5b505af1158015610c64573d6000803e3d6000fd5b505050503373ffffffffffffffffffffffffffffffffffffffff167f563287642471a421e73cd8c32313a493560c2f122e409c0099b4449f7297cce68684604051610cb092919061158e565b60405180910390a2600193505050506001600081905550919050565b600160029054906101000a900473ffffffffffffffffffffffffffffffffffffffff1681565b60018054906101000a900460ff1680610d185750600160009054906101000a900460ff16155b610d57576040517f08c379a0000000000000000000000000000000000000000000000000000000008152600401610d4e906114ee565b60405180910390fd5b600060018054906101000a900460ff161590508015610da55760018060016101000a81548160ff02191690831515021790555060018060006101000a81548160ff0219169083151502179055505b610db185858585610e72565b8015610dd25760006001806101000a81548160ff0219169083151502179055505b5050505050565b610e6f81604051602401610ded91906114ac565b6040516020818303038152906040527f41304fac000000000000000000000000000000000000000000000000000000007bffffffffffffffffffffffffffffffffffffffffffffffffffffffff19166020820180517bffffffffffffffffffffffffffffffffffffffffffffffffffffffff8381831617835250505050611051565b50565b60018054906101000a900460ff1680610e985750600160009054906101000a900460ff16155b610ed7576040517f08c379a0000000000000000000000000000000000000000000000000000000008152600401610ece906114ee565b60405180910390fd5b600060018054906101000a900460ff161590508015610f255760018060016101000a81548160ff02191690831515021790555060018060006101000a81548160ff0219169083151502179055505b84600160026101000a81548173ffffffffffffffffffffffffffffffffffffffff021916908373ffffffffffffffffffffffffffffffffffffffff16021790555083600260006101000a81548173ffffffffffffffffffffffffffffffffffffffff021916908373ffffffffffffffffffffffffffffffffffffffff16021790555082600360006101000a81548173ffffffffffffffffffffffffffffffffffffffff021916908373ffffffffffffffffffffffffffffffffffffffff16021790555081600460006101000a81548173ffffffffffffffffffffffffffffffffffffffff021916908373ffffffffffffffffffffffffffffffffffffffff160217905550801561104a5760006001806101000a81548160ff0219169083151502179055505b5050505050565b60008151905060006a636f6e736f6c652e6c6f679050602083016000808483855afa5050505050565b604051806040016040528060008152602001600081525090565b6000813590506110a3816118d1565b92915050565b6000815190506110b8816118e8565b92915050565b6000815190506110cd816118ff565b92915050565b6000813590506110e281611916565b92915050565b6000815190506110f781611916565b92915050565b600080600080608085870312156111175761111661179f565b5b600061112587828801611094565b945050602061113687828801611094565b935050604061114787828801611094565b925050606061115887828801611094565b91505092959194509250565b60006020828403121561117a5761117961179f565b5b6000611188848285016110a9565b91505092915050565b6000602082840312156111a7576111a661179f565b5b60006111b5848285016110be565b91505092915050565b6000602082840312156111d4576111d361179f565b5b60006111e2848285016110d3565b91505092915050565b6000602082840312156112015761120061179f565b5b600061120f848285016110e8565b91505092915050565b61122181611674565b82525050565b61123081611686565b82525050565b6000611241826115b7565b61124b81856115cd565b935061125b81856020860161170e565b80840191505092915050565b611270816116c6565b82525050565b61127f816116ea565b82525050565b61128e81611692565b82525050565b600061129f826115c2565b6112a981856115d8565b93506112b981856020860161170e565b6112c2816117a4565b840191505092915050565b60006112da601c836115d8565b91506112e5826117b5565b602082019050919050565b60006112fd602e836115d8565b9150611308826117de565b604082019050919050565b60006113206010836115d8565b915061132b8261182d565b602082019050919050565b60006113436010836115d8565b915061134e82611856565b602082019050919050565b6000611366601f836115d8565b91506113718261187f565b602082019050919050565b6000611389601c836115d8565b9150611394826118a8565b602082019050919050565b6113a8816116bc565b82525050565b60006113ba8284611236565b915081905092915050565b60006020820190506113da6000830184611218565b92915050565b60006060820190506113f56000830186611218565b6114026020830185611218565b61140f604083018461139f565b949350505050565b600060408201905061142c6000830185611218565b611439602083018461139f565b9392505050565b60006020820190506114556000830184611227565b92915050565b60006020820190506114706000830184611267565b92915050565b600060208201905061148b6000830184611276565b92915050565b60006020820190506114a66000830184611285565b92915050565b600060208201905081810360008301526114c68184611294565b905092915050565b600060208201905081810360008301526114e7816112cd565b9050919050565b60006020820190508181036000830152611507816112f0565b9050919050565b6000602082019050818103600083015261152781611313565b9050919050565b6000602082019050818103600083015261154781611336565b9050919050565b6000602082019050818103600083015261156781611359565b9050919050565b600060208201905081810360008301526115878161137c565b9050919050565b60006040820190506115a3600083018561139f565b6115b06020830184611285565b9392505050565b600081519050919050565b600081519050919050565b600081905092915050565b600082825260208201905092915050565b60006115f4826116bc565b91506115ff836116bc565b92508261160f5761160e611770565b5b828204905092915050565b6000611625826116bc565b9150611630836116bc565b9250817fffffffffffffffffffffffffffffffffffffffffffffffffffffffffffffffff048311821515161561166957611668611741565b5b828202905092915050565b600061167f8261169c565b9050919050565b60008115159050919050565b6000819050919050565b600073ffffffffffffffffffffffffffffffffffffffff82169050919050565b6000819050919050565b60006116d1826116d8565b9050919050565b60006116e38261169c565b9050919050565b60006116f5826116fc565b9050919050565b60006117078261169c565b9050919050565b60005b8381101561172c578082015181840152602081019050611711565b8381111561173b576000848401525b50505050565b7f4e487b7100000000000000000000000000000000000000000000000000000000600052601160045260246000fd5b7f4e487b7100000000000000000000000000000000000000000000000000000000600052601260045260246000fd5b600080fd5b6000601f19601f8301169050919050565b7f596f7520646f206e6f74206861766520656e6f756768204368796d6500000000600082015250565b7f496e697469616c697a61626c653a20636f6e747261637420697320616c72656160008201527f647920696e697469616c697a6564000000000000000000000000000000000000602082015250565b7f4e656564206d6f72652053746561647900000000000000000000000000000000600082015250565b7f4e656564206d6f726520456c6978697200000000000000000000000000000000600082015250565b7f5265656e7472616e637947756172643a207265656e7472616e742063616c6c00600082015250565b7f4f7261636c65207072696365206973206f7574206f662072616e676500000000600082015250565b6118da81611674565b81146118e557600080fd5b50565b6118f181611686565b81146118fc57600080fd5b50565b61190881611692565b811461191357600080fd5b50565b61191f816116bc565b811461192a57600080fd5b5056fea2646970667358221220dc986cddbb0aaf73528a9a50d33c653a3fe53fac9032a1d1b4606711a12cac3f64736f6c63430008060033",
  "linkReferences": {},
  "deployedLinkReferences": {}
}