{
  "_format": "hh-sol-artifact-1",
  "contractName": "Unsteady",
  "sourceName": "contracts/Unsteady.sol",
  "abi": [
    {
      "inputs": [
        {
          "internalType": "address",
          "name": "feeAddress",
          "type": "address"
        }
      ],
      "stateMutability": "nonpayable",
      "type": "constructor"
    },
    {
      "anonymous": false,
      "inputs": [
        {
          "indexed": true,
          "internalType": "address",
          "name": "account",
          "type": "address"
        },
        {
          "indexed": false,
          "internalType": "uint256",
          "name": "feePerYear",
          "type": "uint256"
        }
      ],
      "name": "AccountInactive",
      "type": "event"
    },
    {
      "anonymous": false,
      "inputs": [
        {
          "indexed": true,
          "internalType": "address",
          "name": "account",
          "type": "address"
        }
      ],
      "name": "AccountReActive",
      "type": "event"
    },
    {
      "anonymous": false,
      "inputs": [
        {
          "indexed": false,
          "internalType": "uint256",
          "name": "amount",
          "type": "uint256"
        }
      ],
      "name": "AddBackedGold",
      "type": "event"
    },
    {
      "anonymous": false,
      "inputs": [
        {
          "indexed": true,
          "internalType": "address",
          "name": "owner",
          "type": "address"
        },
        {
          "indexed": true,
          "internalType": "address",
          "name": "spender",
          "type": "address"
        },
        {
          "indexed": false,
          "internalType": "uint256",
          "name": "value",
          "type": "uint256"
        }
      ],
      "name": "Approval",
      "type": "event"
    },
    {
      "anonymous": false,
      "inputs": [
        {
          "indexed": true,
          "internalType": "address",
          "name": "previousOwner",
          "type": "address"
        },
        {
          "indexed": true,
          "internalType": "address",
          "name": "newOwner",
          "type": "address"
        }
      ],
      "name": "OwnershipTransferred",
      "type": "event"
    },
    {
      "anonymous": false,
      "inputs": [
        {
          "indexed": false,
          "internalType": "uint256",
          "name": "amount",
          "type": "uint256"
        }
      ],
      "name": "RemoveGold",
      "type": "event"
    },
    {
      "anonymous": false,
      "inputs": [
        {
          "indexed": true,
          "internalType": "address",
          "name": "from",
          "type": "address"
        },
        {
          "indexed": true,
          "internalType": "address",
          "name": "to",
          "type": "address"
        },
        {
          "indexed": false,
          "internalType": "uint256",
          "name": "value",
          "type": "uint256"
        }
      ],
      "name": "Transfer",
      "type": "event"
    },
    {
      "inputs": [],
      "name": "INACTIVE_THRESHOLD_DAYS",
      "outputs": [
        {
          "internalType": "uint256",
          "name": "",
          "type": "uint256"
        }
      ],
      "stateMutability": "view",
      "type": "function"
    },
    {
      "inputs": [
        {
          "internalType": "address",
          "name": "owner",
          "type": "address"
        },
        {
          "internalType": "address",
          "name": "spender",
          "type": "address"
        }
      ],
      "name": "allowance",
      "outputs": [
        {
          "internalType": "uint256",
          "name": "",
          "type": "uint256"
        }
      ],
      "stateMutability": "view",
      "type": "function"
    },
    {
      "inputs": [
        {
          "internalType": "address",
          "name": "spender",
          "type": "address"
        },
        {
          "internalType": "uint256",
          "name": "value",
          "type": "uint256"
        }
      ],
      "name": "approve",
      "outputs": [
        {
          "internalType": "bool",
          "name": "",
          "type": "bool"
        }
      ],
      "stateMutability": "nonpayable",
      "type": "function"
    },
    {
      "inputs": [
        {
          "internalType": "address",
          "name": "owner",
          "type": "address"
        }
      ],
      "name": "balanceOf",
      "outputs": [
        {
          "internalType": "uint256",
          "name": "",
          "type": "uint256"
        }
      ],
      "stateMutability": "view",
      "type": "function"
    },
    {
      "inputs": [
        {
          "internalType": "address",
          "name": "owner",
          "type": "address"
        }
      ],
      "name": "balanceOfNoFees",
      "outputs": [
        {
          "internalType": "uint256",
          "name": "",
          "type": "uint256"
        }
      ],
      "stateMutability": "view",
      "type": "function"
    },
    {
      "inputs": [
        {
          "internalType": "address",
          "name": "account",
          "type": "address"
        },
        {
          "internalType": "uint256",
          "name": "amount",
          "type": "uint256"
        }
      ],
      "name": "burnFrom",
      "outputs": [],
      "stateMutability": "nonpayable",
      "type": "function"
    },
    {
      "inputs": [
        {
          "internalType": "address",
          "name": "account",
          "type": "address"
        }
      ],
      "name": "calcInactiveFee",
      "outputs": [
        {
          "internalType": "uint256",
          "name": "",
          "type": "uint256"
        }
      ],
      "stateMutability": "view",
      "type": "function"
    },
    {
      "inputs": [
        {
          "internalType": "address",
          "name": "account",
          "type": "address"
        }
      ],
      "name": "calcOwedFees",
      "outputs": [
        {
          "internalType": "uint256",
          "name": "",
          "type": "uint256"
        }
      ],
      "stateMutability": "view",
      "type": "function"
    },
    {
      "inputs": [
        {
          "internalType": "address",
          "name": "account",
          "type": "address"
        }
      ],
      "name": "calcSendAllBalance",
      "outputs": [
        {
          "internalType": "uint256",
          "name": "",
          "type": "uint256"
        }
      ],
      "stateMutability": "view",
      "type": "function"
    },
    {
      "inputs": [
        {
          "internalType": "address",
          "name": "account",
          "type": "address"
        }
      ],
      "name": "calcStorageFee",
      "outputs": [
        {
          "internalType": "uint256",
          "name": "",
          "type": "uint256"
        }
      ],
      "stateMutability": "view",
      "type": "function"
    },
    {
      "inputs": [
        {
          "internalType": "address",
          "name": "account",
          "type": "address"
        },
        {
          "internalType": "uint256",
          "name": "value",
          "type": "uint256"
        }
      ],
      "name": "calcTransferFee",
      "outputs": [
        {
          "internalType": "uint256",
          "name": "",
          "type": "uint256"
        }
      ],
      "stateMutability": "view",
      "type": "function"
    },
    {
      "inputs": [
        {
          "internalType": "address",
          "name": "account",
          "type": "address"
        }
      ],
      "name": "daysSinceActivity",
      "outputs": [
        {
          "internalType": "uint256",
          "name": "",
          "type": "uint256"
        }
      ],
      "stateMutability": "view",
      "type": "function"
    },
    {
      "inputs": [
        {
          "internalType": "address",
          "name": "account",
          "type": "address"
        }
      ],
      "name": "daysSincePaidStorageFee",
      "outputs": [
        {
          "internalType": "uint256",
          "name": "",
          "type": "uint256"
        }
      ],
      "stateMutability": "view",
      "type": "function"
    },
    {
      "inputs": [],
      "name": "decimals",
      "outputs": [
        {
          "internalType": "uint8",
          "name": "",
          "type": "uint8"
        }
      ],
      "stateMutability": "pure",
      "type": "function"
    },
    {
      "inputs": [
        {
          "internalType": "address",
          "name": "spender",
          "type": "address"
        },
        {
          "internalType": "uint256",
          "name": "subtractedValue",
          "type": "uint256"
        }
      ],
      "name": "decreaseAllowance",
      "outputs": [
        {
          "internalType": "bool",
          "name": "",
          "type": "bool"
        }
      ],
      "stateMutability": "nonpayable",
      "type": "function"
    },
    {
      "inputs": [],
      "name": "feeEnforcer",
      "outputs": [
        {
          "internalType": "address",
          "name": "",
          "type": "address"
        }
      ],
      "stateMutability": "view",
      "type": "function"
    },
    {
      "inputs": [
        {
          "internalType": "address",
          "name": "account",
          "type": "address"
        }
      ],
      "name": "forcePayFees",
      "outputs": [
        {
          "internalType": "bool",
          "name": "",
          "type": "bool"
        }
      ],
      "stateMutability": "nonpayable",
      "type": "function"
    },
    {
      "inputs": [],
      "name": "getAlchemist",
      "outputs": [
        {
          "internalType": "address",
          "name": "",
          "type": "address"
        }
      ],
      "stateMutability": "view",
      "type": "function"
    },
    {
      "inputs": [],
      "name": "getFeeAddress",
      "outputs": [
        {
          "internalType": "address",
          "name": "",
          "type": "address"
        }
      ],
      "stateMutability": "view",
      "type": "function"
    },
    {
      "inputs": [
        {
          "internalType": "address",
          "name": "spender",
          "type": "address"
        },
        {
          "internalType": "uint256",
          "name": "addedValue",
          "type": "uint256"
        }
      ],
      "name": "increaseAllowance",
      "outputs": [
        {
          "internalType": "bool",
          "name": "",
          "type": "bool"
        }
      ],
      "stateMutability": "nonpayable",
      "type": "function"
    },
    {
      "inputs": [
        {
          "internalType": "address",
          "name": "account",
          "type": "address"
        }
      ],
      "name": "isAllFeeExempt",
      "outputs": [
        {
          "internalType": "bool",
          "name": "",
          "type": "bool"
        }
      ],
      "stateMutability": "view",
      "type": "function"
    },
    {
      "inputs": [
        {
          "internalType": "address",
          "name": "account",
          "type": "address"
        }
      ],
      "name": "isInactive",
      "outputs": [
        {
          "internalType": "bool",
          "name": "",
          "type": "bool"
        }
      ],
      "stateMutability": "view",
      "type": "function"
    },
    {
      "inputs": [
        {
          "internalType": "address",
          "name": "account",
          "type": "address"
        }
      ],
      "name": "isStorageFeeExempt",
      "outputs": [
        {
          "internalType": "bool",
          "name": "",
          "type": "bool"
        }
      ],
      "stateMutability": "view",
      "type": "function"
    },
    {
      "inputs": [
        {
          "internalType": "address",
          "name": "account",
          "type": "address"
        }
      ],
      "name": "isTransferFeeExempt",
      "outputs": [
        {
          "internalType": "bool",
          "name": "",
          "type": "bool"
        }
      ],
      "stateMutability": "view",
      "type": "function"
    },
    {
      "inputs": [
        {
          "internalType": "address",
          "name": "addressTo",
          "type": "address"
        },
        {
          "internalType": "uint256",
          "name": "value",
          "type": "uint256"
        }
      ],
      "name": "mint",
      "outputs": [
        {
          "internalType": "bool",
          "name": "",
          "type": "bool"
        }
      ],
      "stateMutability": "nonpayable",
      "type": "function"
    },
    {
      "inputs": [],
      "name": "name",
      "outputs": [
        {
          "internalType": "string",
          "name": "",
          "type": "string"
        }
      ],
      "stateMutability": "view",
      "type": "function"
    },
    {
      "inputs": [],
      "name": "owner",
      "outputs": [
        {
          "internalType": "address",
          "name": "",
          "type": "address"
        }
      ],
      "stateMutability": "view",
      "type": "function"
    },
    {
      "inputs": [],
      "name": "payStorageFee",
      "outputs": [
        {
          "internalType": "bool",
          "name": "",
          "type": "bool"
        }
      ],
      "stateMutability": "nonpayable",
      "type": "function"
    },
    {
      "inputs": [],
      "name": "renounceOwnership",
      "outputs": [],
      "stateMutability": "nonpayable",
      "type": "function"
    },
    {
      "inputs": [],
      "name": "router",
      "outputs": [
        {
          "internalType": "address",
          "name": "",
          "type": "address"
        }
      ],
      "stateMutability": "view",
      "type": "function"
    },
    {
      "inputs": [
        {
          "internalType": "address",
          "name": "account",
          "type": "address"
        }
      ],
      "name": "setAccountInactive",
      "outputs": [
        {
          "internalType": "bool",
          "name": "",
          "type": "bool"
        }
      ],
      "stateMutability": "nonpayable",
      "type": "function"
    },
    {
      "inputs": [
        {
          "internalType": "address",
          "name": "_router",
          "type": "address"
        }
      ],
      "name": "setAlchemist",
      "outputs": [],
      "stateMutability": "nonpayable",
      "type": "function"
    },
    {
      "inputs": [
        {
          "internalType": "address",
          "name": "newFeeAddress",
          "type": "address"
        }
      ],
      "name": "setFeeAddress",
      "outputs": [
        {
          "internalType": "bool",
          "name": "",
          "type": "bool"
        }
      ],
      "stateMutability": "nonpayable",
      "type": "function"
    },
    {
      "inputs": [
        {
          "internalType": "address",
          "name": "enforcer",
          "type": "address"
        }
      ],
      "name": "setFeeEnforcer",
      "outputs": [
        {
          "internalType": "bool",
          "name": "",
          "type": "bool"
        }
      ],
      "stateMutability": "nonpayable",
      "type": "function"
    },
    {
      "inputs": [
        {
          "internalType": "address",
          "name": "account",
          "type": "address"
        }
      ],
      "name": "setFeeExempt",
      "outputs": [],
      "stateMutability": "nonpayable",
      "type": "function"
    },
    {
      "inputs": [
        {
          "internalType": "address",
          "name": "account",
          "type": "address"
        }
      ],
      "name": "setStorageFeeExempt",
      "outputs": [],
      "stateMutability": "nonpayable",
      "type": "function"
    },
    {
      "inputs": [
        {
          "internalType": "uint256",
          "name": "daysGracePeriod",
          "type": "uint256"
        }
      ],
      "name": "setStorageFeeGracePeriodDays",
      "outputs": [],
      "stateMutability": "nonpayable",
      "type": "function"
    },
    {
      "inputs": [
        {
          "internalType": "uint256",
          "name": "fee",
          "type": "uint256"
        }
      ],
      "name": "setTransferFeeBasisPoints",
      "outputs": [],
      "stateMutability": "nonpayable",
      "type": "function"
    },
    {
      "inputs": [
        {
          "internalType": "address",
          "name": "account",
          "type": "address"
        }
      ],
      "name": "setTransferFeeExempt",
      "outputs": [],
      "stateMutability": "nonpayable",
      "type": "function"
    },
    {
      "inputs": [
        {
          "internalType": "address",
          "name": "from",
          "type": "address"
        },
        {
          "internalType": "address",
          "name": "to",
          "type": "address"
        },
        {
          "internalType": "uint256",
          "name": "value",
          "type": "uint256"
        }
      ],
      "name": "simulateTransfer",
      "outputs": [
        {
          "internalType": "uint256[5]",
          "name": "",
          "type": "uint256[5]"
        }
      ],
      "stateMutability": "view",
      "type": "function"
    },
    {
      "inputs": [
        {
          "internalType": "uint256",
          "name": "balance",
          "type": "uint256"
        },
        {
          "internalType": "uint256",
          "name": "daysSinceStoragePaid",
          "type": "uint256"
        }
      ],
      "name": "storageFee",
      "outputs": [
        {
          "internalType": "uint256",
          "name": "",
          "type": "uint256"
        }
      ],
      "stateMutability": "pure",
      "type": "function"
    },
    {
      "inputs": [],
      "name": "storageFeeGracePeriodDays",
      "outputs": [
        {
          "internalType": "uint256",
          "name": "",
          "type": "uint256"
        }
      ],
      "stateMutability": "view",
      "type": "function"
    },
    {
      "inputs": [],
      "name": "symbol",
      "outputs": [
        {
          "internalType": "string",
          "name": "",
          "type": "string"
        }
      ],
      "stateMutability": "view",
      "type": "function"
    },
    {
      "inputs": [],
      "name": "totalSupply",
      "outputs": [
        {
          "internalType": "uint256",
          "name": "",
          "type": "uint256"
        }
      ],
      "stateMutability": "view",
      "type": "function"
    },
    {
      "inputs": [
        {
          "internalType": "address",
          "name": "to",
          "type": "address"
        },
        {
          "internalType": "uint256",
          "name": "value",
          "type": "uint256"
        }
      ],
      "name": "transfer",
      "outputs": [
        {
          "internalType": "bool",
          "name": "",
          "type": "bool"
        }
      ],
      "stateMutability": "nonpayable",
      "type": "function"
    },
    {
      "inputs": [],
      "name": "transferFeeBasisPoints",
      "outputs": [
        {
          "internalType": "uint256",
          "name": "",
          "type": "uint256"
        }
      ],
      "stateMutability": "view",
      "type": "function"
    },
    {
      "inputs": [
        {
          "internalType": "address",
          "name": "from",
          "type": "address"
        },
        {
          "internalType": "address",
          "name": "to",
          "type": "address"
        },
        {
          "internalType": "uint256",
          "name": "value",
          "type": "uint256"
        }
      ],
      "name": "transferFrom",
      "outputs": [
        {
          "internalType": "bool",
          "name": "",
          "type": "bool"
        }
      ],
      "stateMutability": "nonpayable",
      "type": "function"
    },
    {
      "inputs": [
        {
          "internalType": "address",
          "name": "newOwner",
          "type": "address"
        }
      ],
      "name": "transferOwnership",
      "outputs": [],
      "stateMutability": "nonpayable",
      "type": "function"
    },
    {
      "inputs": [
        {
          "internalType": "address",
          "name": "account",
          "type": "address"
        }
      ],
      "name": "unsetFeeExempt",
      "outputs": [],
      "stateMutability": "nonpayable",
      "type": "function"
    }
  ],
  "bytecode": "0x6080604052600a60065560006013553480156200001b57600080fd5b5060405162005920380380620059208339818101604052810190620000419190620004ed565b6040518060400160405280600c81526020017f4c657665726167656443475400000000000000000000000000000000000000008152506040518060400160405280600481526020017f4c434754000000000000000000000000000000000000000000000000000000008152508160039080519060200190620000c592919062000426565b508060049080519060200190620000de92919062000426565b50505062000101620000f5620001ec60201b60201c565b620001f460201b60201c565b80601060006101000a81548173ffffffffffffffffffffffffffffffffffffffff021916908373ffffffffffffffffffffffffffffffffffffffff16021790555062000152620002ba60201b60201c565b601160006101000a81548173ffffffffffffffffffffffffffffffffffffffff021916908373ffffffffffffffffffffffffffffffffffffffff160217905550620001c5601060009054906101000a900473ffffffffffffffffffffffffffffffffffffffff16620002e460201b60201c565b620001e5620001d9620002ba60201b60201c565b620002e460201b60201c565b506200065a565b600033905090565b6000600560009054906101000a900473ffffffffffffffffffffffffffffffffffffffff16905081600560006101000a81548173ffffffffffffffffffffffffffffffffffffffff021916908373ffffffffffffffffffffffffffffffffffffffff1602179055508173ffffffffffffffffffffffffffffffffffffffff168173ffffffffffffffffffffffffffffffffffffffff167f8be0079c531659141344cd1fd0a4f28419497f9722a3daafe3b4186f6b6457e060405160405180910390a35050565b6000600560009054906101000a900473ffffffffffffffffffffffffffffffffffffffff16905090565b620002f4620001ec60201b60201c565b73ffffffffffffffffffffffffffffffffffffffff166200031a620002ba60201b60201c565b73ffffffffffffffffffffffffffffffffffffffff161462000373576040517f08c379a00000000000000000000000000000000000000000000000000000000081526004016200036a9062000546565b60405180910390fd5b6001600d60008373ffffffffffffffffffffffffffffffffffffffff1673ffffffffffffffffffffffffffffffffffffffff16815260200190815260200160002060006101000a81548160ff0219169083151502179055506001600e60008373ffffffffffffffffffffffffffffffffffffffff1673ffffffffffffffffffffffffffffffffffffffff16815260200190815260200160002060006101000a81548160ff02191690831515021790555050565b8280546200043490620005ad565b90600052602060002090601f016020900481019282620004585760008555620004a4565b82601f106200047357805160ff1916838001178555620004a4565b82800160010185558215620004a4579182015b82811115620004a357825182559160200191906001019062000486565b5b509050620004b39190620004b7565b5090565b5b80821115620004d2576000816000905550600101620004b8565b5090565b600081519050620004e78162000640565b92915050565b60006020828403121562000506576200050562000612565b5b60006200051684828501620004d6565b91505092915050565b60006200052e60208362000568565b91506200053b8262000617565b602082019050919050565b6000602082019050818103600083015262000561816200051f565b9050919050565b600082825260208201905092915050565b600062000586826200058d565b9050919050565b600073ffffffffffffffffffffffffffffffffffffffff82169050919050565b60006002820490506001821680620005c657607f821691505b60208210811415620005dd57620005dc620005e3565b5b50919050565b7f4e487b7100000000000000000000000000000000000000000000000000000000600052602260045260246000fd5b600080fd5b7f4f776e61626c653a2063616c6c6572206973206e6f7420746865206f776e6572600082015250565b6200064b8162000579565b81146200065757600080fd5b50565b6152b6806200066a6000396000f3fe608060405234801561001057600080fd5b50600436106102bb5760003560e01c80636a5de0f311610182578063a457c2d7116100e9578063e8337a27116100a2578063f2fde38b1161007c578063f2fde38b146109a4578063f887ea40146109c0578063fc2edf5a146109de578063fd1c1ae0146109fc576102bb565b8063e8337a271461093c578063edd496fa1461096c578063f1af775f14610988576102bb565b8063a457c2d714610844578063a479131514610874578063a9059cbb146108a4578063cbabd8d8146108d4578063da403903146108f0578063dd62ed3e1461090c576102bb565b80637c37080e1161013b5780637c37080e1461078057806380a78ac71461079e5780638705fcd4146107ba5780638da5cb5b146107ea5780638f9e4cf21461080857806395d89b4114610826576102bb565b80636a5de0f3146106c25780636f9423f6146106f257806370a082311461070e578063715018a61461073e578063749796a51461074857806379cc679014610764576102bb565b806335dd4403116102265780634e7ceacb116101df5780634e7ceacb146105b45780634fcf262c146105d2578063536f212014610602578063549b4729146106325780635aa34921146106625780635fcbc89614610692576102bb565b806335dd4403146104a65780633759425d146104d657806339509351146104f45780633c6d47741461052457806340c10f19146105545780634d1e090a14610584576102bb565b806323b872dd1161027857806323b872dd146103aa57806329c25d39146103da5780632a5332391461040a5780632ae96a80146104285780632ec3fc8e14610458578063313ce56714610488576102bb565b806306fdde03146102c0578063095ea7b3146102de5780630c7a971e1461030e57806318160ddd1461033e578063183767da1461035c5780631a222ac71461037a575b600080fd5b6102c8610a2c565b6040516102d59190614a1f565b60405180910390f35b6102f860048036038101906102f3919061468a565b610abe565b6040516103059190614a04565b60405180910390f35b610328600480360381019061032391906145ca565b610ade565b6040516103359190614bc1565b60405180910390f35b610346610c4b565b6040516103539190614bc1565b60405180910390f35b610364610c55565b6040516103719190614bc1565b60405180910390f35b610394600480360381019061038f91906145ca565b610c5f565b6040516103a19190614bc1565b60405180910390f35b6103c460048036038101906103bf9190614637565b610da3565b6040516103d19190614a04565b60405180910390f35b6103f460048036038101906103ef91906145ca565b610e56565b6040516104019190614bc1565b60405180910390f35b610412610f09565b60405161041f9190614bc1565b60405180910390f35b610442600480360381019061043d9190614637565b610f13565b60405161044f91906149e9565b60405180910390f35b610472600480360381019061046d91906145ca565b610f2f565b60405161047f9190614a04565b60405180910390f35b61049061113a565b60405161049d9190614bdc565b60405180910390f35b6104c060048036038101906104bb91906145ca565b611143565b6040516104cd9190614bc1565b60405180910390f35b6104de611207565b6040516104eb91906149ce565b60405180910390f35b61050e6004803603810190610509919061468a565b611231565b60405161051b9190614a04565b60405180910390f35b61053e6004803603810190610539919061468a565b6112d8565b60405161054b9190614bc1565b60405180910390f35b61056e6004803603810190610569919061468a565b611315565b60405161057b9190614a04565b60405180910390f35b61059e600480360381019061059991906146f7565b6114cb565b6040516105ab9190614bc1565b60405180910390f35b6105bc611524565b6040516105c991906149ce565b60405180910390f35b6105ec60048036038101906105e791906145ca565b61154e565b6040516105f99190614bc1565b60405180910390f35b61061c600480360381019061061791906145ca565b611597565b6040516106299190614a04565b60405180910390f35b61064c600480360381019061064791906145ca565b6116c4565b6040516106599190614a04565b60405180910390f35b61067c600480360381019061067791906145ca565b61171a565b6040516106899190614bc1565b60405180910390f35b6106ac60048036038101906106a791906145ca565b61173f565b6040516106b99190614a04565b60405180910390f35b6106dc60048036038101906106d791906145ca565b61178a565b6040516106e99190614a04565b60405180910390f35b61070c600480360381019061070791906145ca565b611840565b005b610728600480360381019061072391906145ca565b611917565b6040516107359190614bc1565b60405180910390f35b610746611929565b005b610762600480360381019061075d91906145ca565b6119b1565b005b61077e6004803603810190610779919061468a565b611ae0565b005b610788611c80565b6040516107959190614bc1565b60405180910390f35b6107b860048036038101906107b391906146ca565b611c86565b005b6107d460048036038101906107cf91906145ca565b611d0c565b6040516107e19190614a04565b60405180910390f35b6107f2611e39565b6040516107ff91906149ce565b60405180910390f35b610810611e63565b60405161081d9190614a04565b60405180910390f35b61082e611e7f565b60405161083b9190614a1f565b60405180910390f35b61085e6004803603810190610859919061468a565b611f11565b60405161086b9190614a04565b60405180910390f35b61088e600480360381019061088991906145ca565b611fb8565b60405161089b9190614a04565b60405180910390f35b6108be60048036038101906108b9919061468a565b612063565b6040516108cb9190614a04565b60405180910390f35b6108ee60048036038101906108e991906145ca565b61209b565b005b61090a600480360381019061090591906146ca565b6121ca565b005b610926600480360381019061092191906145f7565b612294565b6040516109339190614bc1565b60405180910390f35b610956600480360381019061095191906145ca565b61231b565b6040516109639190614a04565b60405180910390f35b610986600480360381019061098191906145ca565b612371565b005b6109a2600480360381019061099d91906145ca565b612448565b005b6109be60048036038101906109b991906145ca565b612508565b005b6109c8612600565b6040516109d591906149ce565b60405180910390f35b6109e6612626565b6040516109f391906149ce565b60405180910390f35b610a166004803603810190610a1191906145ca565b612650565b604051610a239190614bc1565b60405180910390f35b606060038054610a3b90614ddd565b80601f0160208091040260200160405190810160405280929190818152602001828054610a6790614ddd565b8015610ab45780601f10610a8957610100808354040283529160200191610ab4565b820191906000526020600020905b815481529060010190602001808311610a9757829003601f168201915b5050505050905090565b6000610ac9336127a1565b610ad43384846128e5565b6001905092915050565b60008073ffffffffffffffffffffffffffffffffffffffff168273ffffffffffffffffffffffffffffffffffffffff161415610b1957600080fd5b6000610b248361171a565b600760008573ffffffffffffffffffffffffffffffffffffffff1673ffffffffffffffffffffffffffffffffffffffff16815260200190815260200160002054610b6e9190614d21565b905060006006541480610b865750610b85836116c4565b5b15610b945780915050610c46565b60018111610ba6576000915050610c46565b6000612710600654610bb89190614cc7565b6305f5e100610bc79190614c40565b905060006001826305f5e10085610bde9190614cc7565b610be89190614c96565b610bf29190614c40565b9050600061271060065483610c079190614cc7565b610c119190614c96565b9050838183610c209190614c40565b1115610c3e57600182610c339190614d21565b945050505050610c46565b819450505050505b919050565b6000600254905090565b6000600654905090565b600080600760008473ffffffffffffffffffffffffffffffffffffffff1673ffffffffffffffffffffffffffffffffffffffff1681526020019081526020016000205490506000610caf84610e56565b9050610cba8461173f565b15610d5257610d498282600c60008873ffffffffffffffffffffffffffffffffffffffff1673ffffffffffffffffffffffffffffffffffffffff16815260200190815260200160002054600b60008973ffffffffffffffffffffffffffffffffffffffff1673ffffffffffffffffffffffffffffffffffffffff16815260200190815260200160002054612a44565b92505050610d9e565b610d5b84612ad4565b15610d97576000610d6b85612650565b83610d769190614d21565b9050610d8d8183610d8684612c01565b6000612a44565b9350505050610d9e565b6000925050505b919050565b6000610dae336127a1565b610db9848484612c49565b610e4b843384600860008973ffffffffffffffffffffffffffffffffffffffff1673ffffffffffffffffffffffffffffffffffffffff16815260200190815260200160002060003373ffffffffffffffffffffffffffffffffffffffff1673ffffffffffffffffffffffffffffffffffffffff16815260200190815260200160002054610e469190614d21565b6128e5565b600190509392505050565b600080600a60008473ffffffffffffffffffffffffffffffffffffffff1673ffffffffffffffffffffffffffffffffffffffff168152602001908152602001600020541415610ea85760009050610f04565b62015180600a60008473ffffffffffffffffffffffffffffffffffffffff1673ffffffffffffffffffffffffffffffffffffffff1681526020019081526020016000205442610ef79190614d21565b610f019190614c96565b90505b919050565b6000601354905090565b610f1b61457e565b610f26848484613392565b90509392505050565b6000601160009054906101000a900473ffffffffffffffffffffffffffffffffffffffff1673ffffffffffffffffffffffffffffffffffffffff163373ffffffffffffffffffffffffffffffffffffffff1614610f8b57600080fd5b600073ffffffffffffffffffffffffffffffffffffffff168273ffffffffffffffffffffffffffffffffffffffff161415610fc557600080fd5b6000600760008473ffffffffffffffffffffffffffffffffffffffff1673ffffffffffffffffffffffffffffffffffffffff1681526020019081526020016000205411611047576040517f08c379a000000000000000000000000000000000000000000000000000000000815260040161103e90614aa1565b60405180910390fd5b6110508261173f565b1561107557600061106083613686565b90506000811161106f57600080fd5b50611131565b61107e82612ad4565b156110915761108c826139ee565b611130565b61016d61109d83611143565b10156110de576040517f08c379a00000000000000000000000000000000000000000000000000000000081526004016110d590614a81565b60405180910390fd5b60006110e983613e6f565b90506000811161112e576040517f08c379a000000000000000000000000000000000000000000000000000000000815260040161112590614ac1565b60405180910390fd5b505b5b60019050919050565b60006008905090565b600061114e8261173f565b8061119857506000600960008473ffffffffffffffffffffffffffffffffffffffff1673ffffffffffffffffffffffffffffffffffffffff16815260200190815260200160002054145b156111a65760009050611202565b62015180600960008473ffffffffffffffffffffffffffffffffffffffff1673ffffffffffffffffffffffffffffffffffffffff16815260200190815260200160002054426111f59190614d21565b6111ff9190614c96565b90505b919050565b6000601260009054906101000a900473ffffffffffffffffffffffffffffffffffffffff16905090565b600061123c336127a1565b6112ce338484600860003373ffffffffffffffffffffffffffffffffffffffff1673ffffffffffffffffffffffffffffffffffffffff16815260200190815260200160002060008873ffffffffffffffffffffffffffffffffffffffff1673ffffffffffffffffffffffffffffffffffffffff168152602001908152602001600020546112c99190614c40565b6128e5565b6001905092915050565b60006112e3836116c4565b156112f1576000905061130f565b612710600654836113029190614cc7565b61130c9190614c96565b90505b92915050565b600061131f6140ce565b73ffffffffffffffffffffffffffffffffffffffff16601260009054906101000a900473ffffffffffffffffffffffffffffffffffffffff1673ffffffffffffffffffffffffffffffffffffffff16146113ae576040517f08c379a00000000000000000000000000000000000000000000000000000000081526004016113a590614ae1565b60405180910390fd5b6113b883836140d6565b81600760008573ffffffffffffffffffffffffffffffffffffffff1673ffffffffffffffffffffffffffffffffffffffff168152602001908152602001600020546114039190614c40565b600760008573ffffffffffffffffffffffffffffffffffffffff1673ffffffffffffffffffffffffffffffffffffffff168152602001908152602001600020819055507f09b6db8121b98e8afd720f8845773ef4340dfe3c6a1eadc5e068ff266357e807826040516114759190614bc1565b60405180910390a142600960008573ffffffffffffffffffffffffffffffffffffffff1673ffffffffffffffffffffffffffffffffffffffff168152602001908152602001600020819055506001905092915050565b6000806402540be40061016d846305f5e100876114e89190614cc7565b6114f29190614cc7565b6114fc9190614c96565b6115069190614c96565b905083811115611519578391505061151e565b809150505b92915050565b6000601060009054906101000a900473ffffffffffffffffffffffffffffffffffffffff16905090565b6000600760008373ffffffffffffffffffffffffffffffffffffffff1673ffffffffffffffffffffffffffffffffffffffff168152602001908152602001600020549050919050565b60006115a16140ce565b73ffffffffffffffffffffffffffffffffffffffff166115bf611e39565b73ffffffffffffffffffffffffffffffffffffffff1614611615576040517f08c379a000000000000000000000000000000000000000000000000000000000815260040161160c90614b01565b60405180910390fd5b600073ffffffffffffffffffffffffffffffffffffffff168273ffffffffffffffffffffffffffffffffffffffff16141561164f57600080fd5b81601160006101000a81548173ffffffffffffffffffffffffffffffffffffffff021916908373ffffffffffffffffffffffffffffffffffffffff1602179055506116bb601160009054906101000a900473ffffffffffffffffffffffffffffffffffffffff166119b1565b60019050919050565b6000600d60008373ffffffffffffffffffffffffffffffffffffffff1673ffffffffffffffffffffffffffffffffffffffff16815260200190815260200160002060009054906101000a900460ff169050919050565b600061172582610c5f565b61172e83612650565b6117389190614c40565b9050919050565b600080600c60008473ffffffffffffffffffffffffffffffffffffffff1673ffffffffffffffffffffffffffffffffffffffff16815260200190815260200160002054119050919050565b6000601160009054906101000a900473ffffffffffffffffffffffffffffffffffffffff1673ffffffffffffffffffffffffffffffffffffffff163373ffffffffffffffffffffffffffffffffffffffff16146117e657600080fd5b6117ef82612ad4565b61182e576040517f08c379a000000000000000000000000000000000000000000000000000000000815260040161182590614b61565b60405180910390fd5b611837826139ee565b60019050919050565b6118486140ce565b73ffffffffffffffffffffffffffffffffffffffff16611866611e39565b73ffffffffffffffffffffffffffffffffffffffff16146118bc576040517f08c379a00000000000000000000000000000000000000000000000000000000081526004016118b390614b01565b60405180910390fd5b6001600d60008373ffffffffffffffffffffffffffffffffffffffff1673ffffffffffffffffffffffffffffffffffffffff16815260200190815260200160002060006101000a81548160ff02191690831515021790555050565b600061192282610ade565b9050919050565b6119316140ce565b73ffffffffffffffffffffffffffffffffffffffff1661194f611e39565b73ffffffffffffffffffffffffffffffffffffffff16146119a5576040517f08c379a000000000000000000000000000000000000000000000000000000000815260040161199c90614b01565b60405180910390fd5b6119af6000614236565b565b6119b96140ce565b73ffffffffffffffffffffffffffffffffffffffff166119d7611e39565b73ffffffffffffffffffffffffffffffffffffffff1614611a2d576040517f08c379a0000000000000000000000000000000000000000000000000000000008152600401611a2490614b01565b60405180910390fd5b6001600d60008373ffffffffffffffffffffffffffffffffffffffff1673ffffffffffffffffffffffffffffffffffffffff16815260200190815260200160002060006101000a81548160ff0219169083151502179055506001600e60008373ffffffffffffffffffffffffffffffffffffffff1673ffffffffffffffffffffffffffffffffffffffff16815260200190815260200160002060006101000a81548160ff02191690831515021790555050565b611ae86140ce565b73ffffffffffffffffffffffffffffffffffffffff16601260009054906101000a900473ffffffffffffffffffffffffffffffffffffffff1673ffffffffffffffffffffffffffffffffffffffff1614611b77576040517f08c379a0000000000000000000000000000000000000000000000000000000008152600401611b6e90614ae1565b60405180910390fd5b6000611b8a83611b856140ce565b612294565b905081811015611bcf576040517f08c379a0000000000000000000000000000000000000000000000000000000008152600401611bc690614b21565b60405180910390fd5b611be383611bdb6140ce565b8484036128e5565b81600760008573ffffffffffffffffffffffffffffffffffffffff1673ffffffffffffffffffffffffffffffffffffffff16815260200190815260200160002054611c2e9190614d21565b600760008573ffffffffffffffffffffffffffffffffffffffff1673ffffffffffffffffffffffffffffffffffffffff16815260200190815260200160002081905550611c7b83836142fc565b505050565b61044781565b611c8e6140ce565b73ffffffffffffffffffffffffffffffffffffffff16611cac611e39565b73ffffffffffffffffffffffffffffffffffffffff1614611d02576040517f08c379a0000000000000000000000000000000000000000000000000000000008152600401611cf990614b01565b60405180910390fd5b8060138190555050565b6000611d166140ce565b73ffffffffffffffffffffffffffffffffffffffff16611d34611e39565b73ffffffffffffffffffffffffffffffffffffffff1614611d8a576040517f08c379a0000000000000000000000000000000000000000000000000000000008152600401611d8190614b01565b60405180910390fd5b600073ffffffffffffffffffffffffffffffffffffffff168273ffffffffffffffffffffffffffffffffffffffff161415611dc457600080fd5b81601060006101000a81548173ffffffffffffffffffffffffffffffffffffffff021916908373ffffffffffffffffffffffffffffffffffffffff160217905550611e30601060009054906101000a900473ffffffffffffffffffffffffffffffffffffffff166119b1565b60019050919050565b6000600560009054906101000a900473ffffffffffffffffffffffffffffffffffffffff16905090565b6000611e6e336127a1565b611e7733613e6f565b506001905090565b606060048054611e8e90614ddd565b80601f0160208091040260200160405190810160405280929190818152602001828054611eba90614ddd565b8015611f075780601f10611edc57610100808354040283529160200191611f07565b820191906000526020600020905b815481529060010190602001808311611eea57829003601f168201915b5050505050905090565b6000611f1c336127a1565b611fae338484600860003373ffffffffffffffffffffffffffffffffffffffff1673ffffffffffffffffffffffffffffffffffffffff16815260200190815260200160002060008873ffffffffffffffffffffffffffffffffffffffff1673ffffffffffffffffffffffffffffffffffffffff16815260200190815260200160002054611fa99190614d21565b6128e5565b6001905092915050565b6000600d60008373ffffffffffffffffffffffffffffffffffffffff1673ffffffffffffffffffffffffffffffffffffffff16815260200190815260200160002060009054906101000a900460ff16801561205c5750600e60008373ffffffffffffffffffffffffffffffffffffffff1673ffffffffffffffffffffffffffffffffffffffff16815260200190815260200160002060009054906101000a900460ff165b9050919050565b600061206e336127a1565b61207783612ad4565b1561208657612085836139ee565b5b612091338484612c49565b6001905092915050565b6120a36140ce565b73ffffffffffffffffffffffffffffffffffffffff166120c1611e39565b73ffffffffffffffffffffffffffffffffffffffff1614612117576040517f08c379a000000000000000000000000000000000000000000000000000000000815260040161210e90614b01565b60405180910390fd5b6000600d60008373ffffffffffffffffffffffffffffffffffffffff1673ffffffffffffffffffffffffffffffffffffffff16815260200190815260200160002060006101000a81548160ff0219169083151502179055506000600e60008373ffffffffffffffffffffffffffffffffffffffff1673ffffffffffffffffffffffffffffffffffffffff16815260200190815260200160002060006101000a81548160ff02191690831515021790555050565b6121d26140ce565b73ffffffffffffffffffffffffffffffffffffffff166121f0611e39565b73ffffffffffffffffffffffffffffffffffffffff1614612246576040517f08c379a000000000000000000000000000000000000000000000000000000000815260040161223d90614b01565b60405180910390fd5b600a81111561228a576040517f08c379a000000000000000000000000000000000000000000000000000000000815260040161228190614b81565b60405180910390fd5b8060068190555050565b6000600860008473ffffffffffffffffffffffffffffffffffffffff1673ffffffffffffffffffffffffffffffffffffffff16815260200190815260200160002060008373ffffffffffffffffffffffffffffffffffffffff1673ffffffffffffffffffffffffffffffffffffffff16815260200190815260200160002054905092915050565b6000600e60008373ffffffffffffffffffffffffffffffffffffffff1673ffffffffffffffffffffffffffffffffffffffff16815260200190815260200160002060009054906101000a900460ff169050919050565b6123796140ce565b73ffffffffffffffffffffffffffffffffffffffff16612397611e39565b73ffffffffffffffffffffffffffffffffffffffff16146123ed576040517f08c379a00000000000000000000000000000000000000000000000000000000081526004016123e490614b01565b60405180910390fd5b6001600e60008373ffffffffffffffffffffffffffffffffffffffff1673ffffffffffffffffffffffffffffffffffffffff16815260200190815260200160002060006101000a81548160ff02191690831515021790555050565b6124506140ce565b73ffffffffffffffffffffffffffffffffffffffff1661246e611e39565b73ffffffffffffffffffffffffffffffffffffffff16146124c4576040517f08c379a00000000000000000000000000000000000000000000000000000000081526004016124bb90614b01565b60405180910390fd5b80601260006101000a81548173ffffffffffffffffffffffffffffffffffffffff021916908373ffffffffffffffffffffffffffffffffffffffff16021790555050565b6125106140ce565b73ffffffffffffffffffffffffffffffffffffffff1661252e611e39565b73ffffffffffffffffffffffffffffffffffffffff1614612584576040517f08c379a000000000000000000000000000000000000000000000000000000000815260040161257b90614b01565b60405180910390fd5b600073ffffffffffffffffffffffffffffffffffffffff168173ffffffffffffffffffffffffffffffffffffffff1614156125f4576040517f08c379a00000000000000000000000000000000000000000000000000000000081526004016125eb90614a61565b60405180910390fd5b6125fd81614236565b50565b601260009054906101000a900473ffffffffffffffffffffffffffffffffffffffff1681565b6000601160009054906101000a900473ffffffffffffffffffffffffffffffffffffffff16905090565b600080600760008473ffffffffffffffffffffffffffffffffffffffff1673ffffffffffffffffffffffffffffffffffffffff16815260200190815260200160002054905061269e8361173f565b806126ae57506126ad8361231b565b5b806126b95750600081145b156126c857600091505061279c565b60006126d384611143565b905060006126e085610e56565b90506000600f60008773ffffffffffffffffffffffffffffffffffffffff1673ffffffffffffffffffffffffffffffffffffffff1681526020019081526020016000205490506000811115612750578083111561274a5780836127439190614d21565b925061274f565b600092505b5b600083141561276657600094505050505061279c565b610447821061278b576104478261277d9190614d21565b836127889190614d21565b92505b61279584846114cb565b9450505050505b919050565b6127aa81612ad4565b156127b9576127b8816139ee565b5b6127c28161173f565b1561289e576127d081613686565b506000600c60008373ffffffffffffffffffffffffffffffffffffffff1673ffffffffffffffffffffffffffffffffffffffff1681526020019081526020016000208190555042600960008373ffffffffffffffffffffffffffffffffffffffff1673ffffffffffffffffffffffffffffffffffffffff168152602001908152602001600020819055508073ffffffffffffffffffffffffffffffffffffffff167f96cc51e6ab9b6970cc6fc055179c755849347faa4f703098b52724f2a76ad95660405160405180910390a25b42600a60008373ffffffffffffffffffffffffffffffffffffffff1673ffffffffffffffffffffffffffffffffffffffff1681526020019081526020016000208190555050565b600073ffffffffffffffffffffffffffffffffffffffff168273ffffffffffffffffffffffffffffffffffffffff16141561291f57600080fd5b600073ffffffffffffffffffffffffffffffffffffffff168373ffffffffffffffffffffffffffffffffffffffff16141561295957600080fd5b80600860008573ffffffffffffffffffffffffffffffffffffffff1673ffffffffffffffffffffffffffffffffffffffff16815260200190815260200160002060008473ffffffffffffffffffffffffffffffffffffffff1673ffffffffffffffffffffffffffffffffffffffff168152602001908152602001600020819055508173ffffffffffffffffffffffffffffffffffffffff168373ffffffffffffffffffffffffffffffffffffffff167f8c5be1e5ebec7d5bd14f71427d1e84f3dd0314c0f7b2291e5b200ac8c7c3b92583604051612a379190614bc1565b60405180910390a3505050565b60008061044785612a559190614d21565b90506000836305f5e10061016d846305f5e10089612a739190614cc7565b612a7d9190614cc7565b612a879190614c96565b612a919190614c96565b612a9b9190614d21565b905086811180612ab7575060c88188612ab49190614d21565b11155b15612ac6578692505050612acc565b80925050505b949350505050565b60008073ffffffffffffffffffffffffffffffffffffffff168273ffffffffffffffffffffffffffffffffffffffff1614158015612b5157506000600760008473ffffffffffffffffffffffffffffffffffffffff1673ffffffffffffffffffffffffffffffffffffffff16815260200190815260200160002054115b8015612b675750610447612b6483610e56565b10155b8015612b795750612b778261173f565b155b8015612b8b5750612b8982611fb8565b155b8015612be957506000612b9d83612650565b600760008573ffffffffffffffffffffffffffffffffffffffff1673ffffffffffffffffffffffffffffffffffffffff16815260200190815260200160002054612be79190614d21565b115b15612bf75760019050612bfc565b600090505b919050565b6000806404a817c8006305f5e10084612c1a9190614cc7565b612c249190614c96565b90506305f5e100811015612c3f576305f5e100915050612c44565b809150505b919050565b6000612c5484612650565b90506000808290506000600760008873ffffffffffffffffffffffffffffffffffffffff1673ffffffffffffffffffffffffffffffffffffffff1681526020019081526020016000205490506000600760008873ffffffffffffffffffffffffffffffffffffffff1673ffffffffffffffffffffffffffffffffffffffff1681526020019081526020016000205490508673ffffffffffffffffffffffffffffffffffffffff168873ffffffffffffffffffffffffffffffffffffffff1614612ecf57612d2188876112d8565b83612d2c9190614c40565b9250612d3787612650565b9350828683612d469190614d21565b612d509190614d21565b600760008a73ffffffffffffffffffffffffffffffffffffffff1673ffffffffffffffffffffffffffffffffffffffff16815260200190815260200160002081905550838682612da09190614c40565b612daa9190614d21565b600760008973ffffffffffffffffffffffffffffffffffffffff1673ffffffffffffffffffffffffffffffffffffffff16815260200190815260200160002081905550838360076000601060009054906101000a900473ffffffffffffffffffffffffffffffffffffffff1673ffffffffffffffffffffffffffffffffffffffff1673ffffffffffffffffffffffffffffffffffffffff16815260200190815260200160002054612e5b9190614c40565b612e659190614c40565b60076000601060009054906101000a900473ffffffffffffffffffffffffffffffffffffffff1673ffffffffffffffffffffffffffffffffffffffff1673ffffffffffffffffffffffffffffffffffffffff16815260200190815260200160002081905550612ff1565b8482612edb9190614d21565b600760008a73ffffffffffffffffffffffffffffffffffffffff1673ffffffffffffffffffffffffffffffffffffffff168152602001908152602001600020819055508460076000601060009054906101000a900473ffffffffffffffffffffffffffffffffffffffff1673ffffffffffffffffffffffffffffffffffffffff1673ffffffffffffffffffffffffffffffffffffffff16815260200190815260200160002054612f8b9190614c40565b60076000601060009054906101000a900473ffffffffffffffffffffffffffffffffffffffff1673ffffffffffffffffffffffffffffffffffffffff1673ffffffffffffffffffffffffffffffffffffffff168152602001908152602001600020819055505b8673ffffffffffffffffffffffffffffffffffffffff168873ffffffffffffffffffffffffffffffffffffffff167fddf252ad1be2c89b69c2b068fc378daa952ba7f163c4a11628f55a4df523b3ef8860405161304e9190614bc1565b60405180910390a3600083111561313e57601060009054906101000a900473ffffffffffffffffffffffffffffffffffffffff1673ffffffffffffffffffffffffffffffffffffffff168873ffffffffffffffffffffffffffffffffffffffff167fddf252ad1be2c89b69c2b068fc378daa952ba7f163c4a11628f55a4df523b3ef856040516130de9190614bc1565b60405180910390a3600085111561313d5742600960008a73ffffffffffffffffffffffffffffffffffffffff1673ffffffffffffffffffffffffffffffffffffffff1681526020019081526020016000208190555061313c886144d3565b5b5b6000600960008973ffffffffffffffffffffffffffffffffffffffff1673ffffffffffffffffffffffffffffffffffffffff16815260200190815260200160002054141561325557601354600f60008973ffffffffffffffffffffffffffffffffffffffff1673ffffffffffffffffffffffffffffffffffffffff1681526020019081526020016000208190555042600a60008973ffffffffffffffffffffffffffffffffffffffff1673ffffffffffffffffffffffffffffffffffffffff1681526020019081526020016000208190555042600960008973ffffffffffffffffffffffffffffffffffffffff1673ffffffffffffffffffffffffffffffffffffffff168152602001908152602001600020819055505b600084111561333757601060009054906101000a900473ffffffffffffffffffffffffffffffffffffffff1673ffffffffffffffffffffffffffffffffffffffff168773ffffffffffffffffffffffffffffffffffffffff167fddf252ad1be2c89b69c2b068fc378daa952ba7f163c4a11628f55a4df523b3ef866040516132dd9190614bc1565b60405180910390a342600960008973ffffffffffffffffffffffffffffffffffffffff1673ffffffffffffffffffffffffffffffffffffffff16815260200190815260200160002081905550613332876144d3565b613388565b62023a508110156133875742600960008973ffffffffffffffffffffffffffffffffffffffff1673ffffffffffffffffffffffffffffffffffffffff168152602001908152602001600020819055505b5b5050505050505050565b61339a61457e565b6133a261457e565b6133ab8561171a565b816000600581106133bf576133be614ecb565b5b6020020181815250506000816001600581106133de576133dd614ecb565b5b6020020181815250506000816002600581106133fd576133fc614ecb565b5b6020020181815250508373ffffffffffffffffffffffffffffffffffffffff168573ffffffffffffffffffffffffffffffffffffffff16146135c4576134428461171a565b8160016005811061345657613455614ecb565b5b60200201818152505061346985846112d8565b8160026005811061347d5761347c614ecb565b5b6020020181815250508060026005811061349a57613499614ecb565b5b6020020151816000600581106134b3576134b2614ecb565b5b602002015184600760008973ffffffffffffffffffffffffffffffffffffffff1673ffffffffffffffffffffffffffffffffffffffff168152602001908152602001600020546135039190614d21565b61350d9190614d21565b6135179190614d21565b8160036005811061352b5761352a614ecb565b5b6020020181815250508060016005811061354857613547614ecb565b5b602002015183600760008773ffffffffffffffffffffffffffffffffffffffff1673ffffffffffffffffffffffffffffffffffffffff168152602001908152602001600020546135989190614c40565b6135a29190614d21565b816004600581106135b6576135b5614ecb565b5b60200201818152505061367b565b806000600581106135d8576135d7614ecb565b5b6020020151600760008773ffffffffffffffffffffffffffffffffffffffff1673ffffffffffffffffffffffffffffffffffffffff168152602001908152602001600020546136279190614d21565b8160036005811061363b5761363a614ecb565b5b6020020181815250508060036005811061365857613657614ecb565b5b60200201518160046005811061367157613670614ecb565b5b6020020181815250505b809150509392505050565b60008061375a600760008573ffffffffffffffffffffffffffffffffffffffff1673ffffffffffffffffffffffffffffffffffffffff168152602001908152602001600020546136d585610e56565b600c60008773ffffffffffffffffffffffffffffffffffffffff1673ffffffffffffffffffffffffffffffffffffffff16815260200190815260200160002054600b60008873ffffffffffffffffffffffffffffffffffffffff1673ffffffffffffffffffffffffffffffffffffffff16815260200190815260200160002054612a44565b9050600081141561376f5760009150506139e9565b80600760008573ffffffffffffffffffffffffffffffffffffffff1673ffffffffffffffffffffffffffffffffffffffff168152602001908152602001600020546137ba9190614d21565b600760008573ffffffffffffffffffffffffffffffffffffffff1673ffffffffffffffffffffffffffffffffffffffff168152602001908152602001600020819055508060076000601060009054906101000a900473ffffffffffffffffffffffffffffffffffffffff1673ffffffffffffffffffffffffffffffffffffffff1673ffffffffffffffffffffffffffffffffffffffff1681526020019081526020016000205461386a9190614c40565b60076000601060009054906101000a900473ffffffffffffffffffffffffffffffffffffffff1673ffffffffffffffffffffffffffffffffffffffff1673ffffffffffffffffffffffffffffffffffffffff1681526020019081526020016000208190555080600b60008573ffffffffffffffffffffffffffffffffffffffff1673ffffffffffffffffffffffffffffffffffffffff1681526020019081526020016000205461391a9190614c40565b600b60008573ffffffffffffffffffffffffffffffffffffffff1673ffffffffffffffffffffffffffffffffffffffff16815260200190815260200160002081905550601060009054906101000a900473ffffffffffffffffffffffffffffffffffffffff1673ffffffffffffffffffffffffffffffffffffffff168373ffffffffffffffffffffffffffffffffffffffff167fddf252ad1be2c89b69c2b068fc378daa952ba7f163c4a11628f55a4df523b3ef836040516139dc9190614bc1565b60405180910390a3809150505b919050565b60006139f982612650565b9050600081600760008573ffffffffffffffffffffffffffffffffffffffff1673ffffffffffffffffffffffffffffffffffffffff16815260200190815260200160002054613a489190614d21565b905060008111613a5b57613a5a614e0f565b5b613a6481612c01565b600c60008573ffffffffffffffffffffffffffffffffffffffff1673ffffffffffffffffffffffffffffffffffffffff168152602001908152602001600020819055508273ffffffffffffffffffffffffffffffffffffffff167f481010afe95c4aad3901e4d3948ca845e8772b11b72f77bf2dd74a9940e21a21600c60008673ffffffffffffffffffffffffffffffffffffffff1673ffffffffffffffffffffffffffffffffffffffff16815260200190815260200160002054604051613b2c9190614bc1565b60405180910390a26000613b8a82613b4386610e56565b600c60008873ffffffffffffffffffffffffffffffffffffffff1673ffffffffffffffffffffffffffffffffffffffff168152602001908152602001600020546000612a44565b905060008184613b9a9190614c40565b905080600760008773ffffffffffffffffffffffffffffffffffffffff1673ffffffffffffffffffffffffffffffffffffffff16815260200190815260200160002054613be79190614d21565b600760008773ffffffffffffffffffffffffffffffffffffffff1673ffffffffffffffffffffffffffffffffffffffff168152602001908152602001600020819055508060076000601060009054906101000a900473ffffffffffffffffffffffffffffffffffffffff1673ffffffffffffffffffffffffffffffffffffffff1673ffffffffffffffffffffffffffffffffffffffff16815260200190815260200160002054613c979190614c40565b60076000601060009054906101000a900473ffffffffffffffffffffffffffffffffffffffff1673ffffffffffffffffffffffffffffffffffffffff1673ffffffffffffffffffffffffffffffffffffffff1681526020019081526020016000208190555081600b60008773ffffffffffffffffffffffffffffffffffffffff1673ffffffffffffffffffffffffffffffffffffffff16815260200190815260200160002054613d479190614c40565b600b60008773ffffffffffffffffffffffffffffffffffffffff1673ffffffffffffffffffffffffffffffffffffffff16815260200190815260200160002081905550601060009054906101000a900473ffffffffffffffffffffffffffffffffffffffff1673ffffffffffffffffffffffffffffffffffffffff168573ffffffffffffffffffffffffffffffffffffffff167fddf252ad1be2c89b69c2b068fc378daa952ba7f163c4a11628f55a4df523b3ef83604051613e099190614bc1565b60405180910390a36000841115613e685742600960008773ffffffffffffffffffffffffffffffffffffffff1673ffffffffffffffffffffffffffffffffffffffff16815260200190815260200160002081905550613e67856144d3565b5b5050505050565b600080613e7b83612650565b90506000811415613e905760009150506140c9565b80600760008573ffffffffffffffffffffffffffffffffffffffff1673ffffffffffffffffffffffffffffffffffffffff16815260200190815260200160002054613edb9190614d21565b600760008573ffffffffffffffffffffffffffffffffffffffff1673ffffffffffffffffffffffffffffffffffffffff168152602001908152602001600020819055508060076000601060009054906101000a900473ffffffffffffffffffffffffffffffffffffffff1673ffffffffffffffffffffffffffffffffffffffff1673ffffffffffffffffffffffffffffffffffffffff16815260200190815260200160002054613f8b9190614c40565b60076000601060009054906101000a900473ffffffffffffffffffffffffffffffffffffffff1673ffffffffffffffffffffffffffffffffffffffff1673ffffffffffffffffffffffffffffffffffffffff16815260200190815260200160002081905550601060009054906101000a900473ffffffffffffffffffffffffffffffffffffffff1673ffffffffffffffffffffffffffffffffffffffff168373ffffffffffffffffffffffffffffffffffffffff167fddf252ad1be2c89b69c2b068fc378daa952ba7f163c4a11628f55a4df523b3ef8360405161406f9190614bc1565b60405180910390a342600960008573ffffffffffffffffffffffffffffffffffffffff1673ffffffffffffffffffffffffffffffffffffffff168152602001908152602001600020819055506140c4836144d3565b809150505b919050565b600033905090565b600073ffffffffffffffffffffffffffffffffffffffff168273ffffffffffffffffffffffffffffffffffffffff161415614146576040517f08c379a000000000000000000000000000000000000000000000000000000000815260040161413d90614ba1565b60405180910390fd5b61415260008383614564565b80600260008282546141649190614c40565b92505081905550806000808473ffffffffffffffffffffffffffffffffffffffff1673ffffffffffffffffffffffffffffffffffffffff16815260200190815260200160002060008282546141b99190614c40565b925050819055508173ffffffffffffffffffffffffffffffffffffffff16600073ffffffffffffffffffffffffffffffffffffffff167fddf252ad1be2c89b69c2b068fc378daa952ba7f163c4a11628f55a4df523b3ef8360405161421e9190614bc1565b60405180910390a361423260008383614569565b5050565b6000600560009054906101000a900473ffffffffffffffffffffffffffffffffffffffff16905081600560006101000a81548173ffffffffffffffffffffffffffffffffffffffff021916908373ffffffffffffffffffffffffffffffffffffffff1602179055508173ffffffffffffffffffffffffffffffffffffffff168173ffffffffffffffffffffffffffffffffffffffff167f8be0079c531659141344cd1fd0a4f28419497f9722a3daafe3b4186f6b6457e060405160405180910390a35050565b600073ffffffffffffffffffffffffffffffffffffffff168273ffffffffffffffffffffffffffffffffffffffff16141561436c576040517f08c379a000000000000000000000000000000000000000000000000000000000815260040161436390614b41565b60405180910390fd5b61437882600083614564565b60008060008473ffffffffffffffffffffffffffffffffffffffff1673ffffffffffffffffffffffffffffffffffffffff168152602001908152602001600020549050818110156143fe576040517f08c379a00000000000000000000000000000000000000000000000000000000081526004016143f590614a41565b60405180910390fd5b8181036000808573ffffffffffffffffffffffffffffffffffffffff1673ffffffffffffffffffffffffffffffffffffffff1681526020019081526020016000208190555081600260008282546144559190614d21565b92505081905550600073ffffffffffffffffffffffffffffffffffffffff168373ffffffffffffffffffffffffffffffffffffffff167fddf252ad1be2c89b69c2b068fc378daa952ba7f163c4a11628f55a4df523b3ef846040516144ba9190614bc1565b60405180910390a36144ce83600084614569565b505050565b6000600f60008373ffffffffffffffffffffffffffffffffffffffff1673ffffffffffffffffffffffffffffffffffffffff168152602001908152602001600020541115614561576000600f60008373ffffffffffffffffffffffffffffffffffffffff1673ffffffffffffffffffffffffffffffffffffffff168152602001908152602001600020819055505b50565b505050565b614574838383614579565b505050565b505050565b6040518060a00160405280600590602082028036833780820191505090505090565b6000813590506145af81615252565b92915050565b6000813590506145c481615269565b92915050565b6000602082840312156145e0576145df614efa565b5b60006145ee848285016145a0565b91505092915050565b6000806040838503121561460e5761460d614efa565b5b600061461c858286016145a0565b925050602061462d858286016145a0565b9150509250929050565b6000806000606084860312156146505761464f614efa565b5b600061465e868287016145a0565b935050602061466f868287016145a0565b9250506040614680868287016145b5565b9150509250925092565b600080604083850312156146a1576146a0614efa565b5b60006146af858286016145a0565b92505060206146c0858286016145b5565b9150509250929050565b6000602082840312156146e0576146df614efa565b5b60006146ee848285016145b5565b91505092915050565b6000806040838503121561470e5761470d614efa565b5b600061471c858286016145b5565b925050602061472d858286016145b5565b9150509250929050565b600061474383836149a1565b60208301905092915050565b61475881614d55565b82525050565b61476781614c01565b6147718184614c24565b925061477c82614bf7565b8060005b838110156147ad5781516147948782614737565b965061479f83614c17565b925050600181019050614780565b505050505050565b6147be81614d67565b82525050565b60006147cf82614c0c565b6147d98185614c2f565b93506147e9818560208601614daa565b6147f281614eff565b840191505092915050565b600061480a602283614c2f565b915061481582614f10565b604082019050919050565b600061482d602683614c2f565b915061483882614f5f565b604082019050919050565b6000614850603983614c2f565b915061485b82614fae565b604082019050919050565b6000614873603083614c2f565b915061487e82614ffd565b604082019050919050565b6000614896603083614c2f565b91506148a18261504c565b604082019050919050565b60006148b9601b83614c2f565b91506148c48261509b565b602082019050919050565b60006148dc602083614c2f565b91506148e7826150c4565b602082019050919050565b60006148ff602483614c2f565b915061490a826150ed565b604082019050919050565b6000614922602183614c2f565b915061492d8261513c565b604082019050919050565b6000614945602a83614c2f565b91506149508261518b565b604082019050919050565b6000614968603d83614c2f565b9150614973826151da565b604082019050919050565b600061498b601f83614c2f565b915061499682615229565b602082019050919050565b6149aa81614d93565b82525050565b6149b981614d93565b82525050565b6149c881614d9d565b82525050565b60006020820190506149e3600083018461474f565b92915050565b600060a0820190506149fe600083018461475e565b92915050565b6000602082019050614a1960008301846147b5565b92915050565b60006020820190508181036000830152614a3981846147c4565b905092915050565b60006020820190508181036000830152614a5a816147fd565b9050919050565b60006020820190508181036000830152614a7a81614820565b9050919050565b60006020820190508181036000830152614a9a81614843565b9050919050565b60006020820190508181036000830152614aba81614866565b9050919050565b60006020820190508181036000830152614ada81614889565b9050919050565b60006020820190508181036000830152614afa816148ac565b9050919050565b60006020820190508181036000830152614b1a816148cf565b9050919050565b60006020820190508181036000830152614b3a816148f2565b9050919050565b60006020820190508181036000830152614b5a81614915565b9050919050565b60006020820190508181036000830152614b7a81614938565b9050919050565b60006020820190508181036000830152614b9a8161495b565b9050919050565b60006020820190508181036000830152614bba8161497e565b9050919050565b6000602082019050614bd660008301846149b0565b92915050565b6000602082019050614bf160008301846149bf565b92915050565b6000819050919050565b600060059050919050565b600081519050919050565b6000602082019050919050565b600081905092915050565b600082825260208201905092915050565b6000614c4b82614d93565b9150614c5683614d93565b9250827fffffffffffffffffffffffffffffffffffffffffffffffffffffffffffffffff03821115614c8b57614c8a614e3e565b5b828201905092915050565b6000614ca182614d93565b9150614cac83614d93565b925082614cbc57614cbb614e6d565b5b828204905092915050565b6000614cd282614d93565b9150614cdd83614d93565b9250817fffffffffffffffffffffffffffffffffffffffffffffffffffffffffffffffff0483118215151615614d1657614d15614e3e565b5b828202905092915050565b6000614d2c82614d93565b9150614d3783614d93565b925082821015614d4a57614d49614e3e565b5b828203905092915050565b6000614d6082614d73565b9050919050565b60008115159050919050565b600073ffffffffffffffffffffffffffffffffffffffff82169050919050565b6000819050919050565b600060ff82169050919050565b60005b83811015614dc8578082015181840152602081019050614dad565b83811115614dd7576000848401525b50505050565b60006002820490506001821680614df557607f821691505b60208210811415614e0957614e08614e9c565b5b50919050565b7f4e487b7100000000000000000000000000000000000000000000000000000000600052600160045260246000fd5b7f4e487b7100000000000000000000000000000000000000000000000000000000600052601160045260246000fd5b7f4e487b7100000000000000000000000000000000000000000000000000000000600052601260045260246000fd5b7f4e487b7100000000000000000000000000000000000000000000000000000000600052602260045260246000fd5b7f4e487b7100000000000000000000000000000000000000000000000000000000600052603260045260246000fd5b600080fd5b6000601f19601f8301169050919050565b7f45524332303a206275726e20616d6f756e7420657863656564732062616c616e60008201527f6365000000000000000000000000000000000000000000000000000000000000602082015250565b7f4f776e61626c653a206e6577206f776e657220697320746865207a65726f206160008201527f6464726573730000000000000000000000000000000000000000000000000000602082015250565b7f4163636f756e742068617320706169642073746f726167652066656573206d6f60008201527f726520726563656e746c79207468616e20333635206461797300000000000000602082015250565b7f4163636f756e7420686173206e6f2062616c616e63652c2063616e6e6f74206660008201527f6f72636520706179696e67206665657300000000000000000000000000000000602082015250565b7f4e6f206170707265636961626c652073746f726167652066656573206475652c60008201527f2077696c6c20726566756e642067617300000000000000000000000000000000602082015250565b7f43616c6c6572206973206e6f742074686520616c6368656d6973740000000000600082015250565b7f4f776e61626c653a2063616c6c6572206973206e6f7420746865206f776e6572600082015250565b7f45524332303a206275726e20616d6f756e74206578636565647320616c6c6f7760008201527f616e636500000000000000000000000000000000000000000000000000000000602082015250565b7f45524332303a206275726e2066726f6d20746865207a65726f2061646472657360008201527f7300000000000000000000000000000000000000000000000000000000000000602082015250565b7f4163636f756e74206e6f7420656c696769626c6520746f206265206d61726b6560008201527f6420696e61637469766500000000000000000000000000000000000000000000602082015250565b7f5472616e736665722066656520626173697320706f696e7473206d757374206260008201527f6520616e20696e7465676572206265747765656e203020616e64203130000000602082015250565b7f45524332303a206d696e7420746f20746865207a65726f206164647265737300600082015250565b61525b81614d55565b811461526657600080fd5b50565b61527281614d93565b811461527d57600080fd5b5056fea264697066735822122040f221240a03493fb90764f2ec0a7823aca81a6a0e130310feb8eab5d7c4826764736f6c63430008060033",
  "linkReferences": {},
  "deployedLinkReferences": {}
}