{
  "_format": "hh-sol-artifact-1",
  "contractName": "FetchMerkleForLatestEpoch",
  "sourceName": "contracts/FetchMerkleForLatestEpoch.sol",
  "abi": [
    {
      "inputs": [
        {
          "internalType": "address",
          "name": "_oracle",
          "type": "address"
        },
        {
          "internalType": "bytes32",
          "name": "_jobId",
          "type": "bytes32"
        }
      ],
      "stateMutability": "nonpayable",
      "type": "constructor"
    },
    {
      "anonymous": false,
      "inputs": [
        {
          "indexed": true,
          "internalType": "bytes32",
          "name": "id",
          "type": "bytes32"
        }
      ],
      "name": "ChainlinkCancelled",
      "type": "event"
    },
    {
      "anonymous": false,
      "inputs": [
        {
          "indexed": true,
          "internalType": "bytes32",
          "name": "id",
          "type": "bytes32"
        }
      ],
      "name": "ChainlinkFulfilled",
      "type": "event"
    },
    {
      "anonymous": false,
      "inputs": [
        {
          "indexed": true,
          "internalType": "bytes32",
          "name": "id",
          "type": "bytes32"
        }
      ],
      "name": "ChainlinkRequested",
      "type": "event"
    },
    {
      "anonymous": false,
      "inputs": [
        {
          "indexed": true,
          "internalType": "address",
          "name": "previousOwner",
          "type": "address"
        },
        {
          "indexed": true,
          "internalType": "address",
          "name": "newOwner",
          "type": "address"
        }
      ],
      "name": "OwnershipTransferred",
      "type": "event"
    },
    {
      "inputs": [
        {
          "internalType": "bytes32",
          "name": "_requestId",
          "type": "bytes32"
        },
        {
          "internalType": "bytes32",
          "name": "_merkleHash",
          "type": "bytes32"
        }
      ],
      "name": "fulfill",
      "outputs": [],
      "stateMutability": "nonpayable",
      "type": "function"
    },
    {
      "inputs": [],
      "name": "getFees",
      "outputs": [
        {
          "internalType": "uint256",
          "name": "feeAmount",
          "type": "uint256"
        }
      ],
      "stateMutability": "view",
      "type": "function"
    },
    {
      "inputs": [],
      "name": "getJobId",
      "outputs": [
        {
          "internalType": "bytes32",
          "name": "jobIdentifier",
          "type": "bytes32"
        }
      ],
      "stateMutability": "view",
      "type": "function"
    },
    {
      "inputs": [],
      "name": "getOracle",
      "outputs": [
        {
          "internalType": "address",
          "name": "oracleAddress",
          "type": "address"
        }
      ],
      "stateMutability": "view",
      "type": "function"
    },
    {
      "inputs": [],
      "name": "merkleHash",
      "outputs": [
        {
          "internalType": "bytes32",
          "name": "",
          "type": "bytes32"
        }
      ],
      "stateMutability": "view",
      "type": "function"
    },
    {
      "inputs": [],
      "name": "owner",
      "outputs": [
        {
          "internalType": "address",
          "name": "",
          "type": "address"
        }
      ],
      "stateMutability": "view",
      "type": "function"
    },
    {
      "inputs": [],
      "name": "renounceOwnership",
      "outputs": [],
      "stateMutability": "nonpayable",
      "type": "function"
    },
    {
      "inputs": [
        {
          "internalType": "string",
          "name": "_pathOfValue",
          "type": "string"
        },
        {
          "internalType": "uint256",
          "name": "_epochNumber",
          "type": "uint256"
        }
      ],
      "name": "requestedLockedData",
      "outputs": [
        {
          "internalType": "bytes32",
          "name": "requestId",
          "type": "bytes32"
        }
      ],
      "stateMutability": "nonpayable",
      "type": "function"
    },
    {
      "inputs": [
        {
          "internalType": "uint256",
          "name": "_fee",
          "type": "uint256"
        }
      ],
      "name": "setFees",
      "outputs": [],
      "stateMutability": "nonpayable",
      "type": "function"
    },
    {
      "inputs": [
        {
          "internalType": "bytes32",
          "name": "_jobId",
          "type": "bytes32"
        }
      ],
      "name": "setJobId",
      "outputs": [],
      "stateMutability": "nonpayable",
      "type": "function"
    },
    {
      "inputs": [
        {
          "internalType": "address",
          "name": "_oracle",
          "type": "address"
        }
      ],
      "name": "setOracle",
      "outputs": [],
      "stateMutability": "nonpayable",
      "type": "function"
    },
    {
      "inputs": [
        {
          "internalType": "address",
          "name": "newOwner",
          "type": "address"
        }
      ],
      "name": "transferOwnership",
      "outputs": [],
      "stateMutability": "nonpayable",
      "type": "function"
    },
    {
      "inputs": [],
      "name": "withdrawLINK",
      "outputs": [],
      "stateMutability": "nonpayable",
      "type": "function"
    }
  ],
  "bytecode": "0x608060405260016004553480156200001657600080fd5b50604051620025113803806200251183398181016040528101906200003c9190620002e5565b6200005c62000050620000cb60201b60201c565b620000d360201b60201c565b6200006c6200019960201b60201c565b81600760006101000a81548173ffffffffffffffffffffffffffffffffffffffff021916908373ffffffffffffffffffffffffffffffffffffffff1602179055508060088190555067016345785d8a00006009819055505050620003a3565b600033905090565b6000600660009054906101000a900473ffffffffffffffffffffffffffffffffffffffff16905081600660006101000a81548173ffffffffffffffffffffffffffffffffffffffff021916908373ffffffffffffffffffffffffffffffffffffffff1602179055508173ffffffffffffffffffffffffffffffffffffffff168173ffffffffffffffffffffffffffffffffffffffff167f8be0079c531659141344cd1fd0a4f28419497f9722a3daafe3b4186f6b6457e060405160405180910390a35050565b6200023f73c89bd4e1632d3a43cb03aaad5262cbe4038bc57173ffffffffffffffffffffffffffffffffffffffff166338cc48316040518163ffffffff1660e01b815260040160206040518083038186803b158015620001f857600080fd5b505afa1580156200020d573d6000803e3d6000fd5b505050506040513d601f19601f82011682018060405250810190620002339190620002b3565b6200024160201b60201c565b565b80600260006101000a81548173ffffffffffffffffffffffffffffffffffffffff021916908373ffffffffffffffffffffffffffffffffffffffff16021790555050565b60008151905062000296816200036f565b92915050565b600081519050620002ad8162000389565b92915050565b600060208284031215620002cc57620002cb6200036a565b5b6000620002dc8482850162000285565b91505092915050565b60008060408385031215620002ff57620002fe6200036a565b5b60006200030f8582860162000285565b925050602062000322858286016200029c565b9150509250929050565b600062000339826200034a565b9050919050565b6000819050919050565b600073ffffffffffffffffffffffffffffffffffffffff82169050919050565b600080fd5b6200037a816200032c565b81146200038657600080fd5b50565b620003948162000340565b8114620003a057600080fd5b50565b61215e80620003b36000396000f3fe608060405234801561001057600080fd5b50600436106100cf5760003560e01c8063833b1fce1161008c578063adc2112f11610066578063adc2112f146101d8578063b02f7fe0146101e2578063db8d55f114610200578063f2fde38b1461021e576100cf565b8063833b1fce1461017e5780638da5cb5b1461019c578063aa082864146101ba576100cf565b8063042f2b65146100d45780632eb76e01146100f05780633d18678e14610120578063508954f81461013c578063715018a6146101585780637adbf97314610162575b600080fd5b6100ee60048036038101906100e9919061153b565b61023a565b005b61010a6004803603810190610105919061157b565b61034b565b6040516101179190611922565b60405180910390f35b61013a600480360381019061013591906115d7565b610494565b005b6101566004803603810190610151919061150e565b610527565b005b6101606105ad565b005b61017c600480360381019061017791906114b4565b610635565b005b61018661072f565b604051610193919061181b565b60405180910390f35b6101a4610759565b6040516101b1919061181b565b60405180910390f35b6101c2610783565b6040516101cf9190611922565b60405180910390f35b6101e0610789565b005b6101ea610968565b6040516101f79190611922565b60405180910390f35b610208610972565b60405161021591906119fd565b60405180910390f35b610238600480360381019061023391906114b4565b61097c565b005b816005600082815260200190815260200160002060009054906101000a900473ffffffffffffffffffffffffffffffffffffffff1673ffffffffffffffffffffffffffffffffffffffff163373ffffffffffffffffffffffffffffffffffffffff16146102dc576040517f08c379a00000000000000000000000000000000000000000000000000000000081526004016102d3906119bd565b60405180910390fd5b6005600082815260200190815260200160002060006101000a81549073ffffffffffffffffffffffffffffffffffffffff0219169055807f7cc135e0cebb02c3480ae5d74d377283180a2601f8f644edf7987b009316c63a60405160405180910390a281600a81905550505050565b60008083511415610391576040517f08c379a0000000000000000000000000000000000000000000000000000000008152600401610388906119dd565b60405180910390fd5b60006103a76008543063042f2b6560e01b610a74565b90506104126040518060400160405280600381526020017f6765740000000000000000000000000000000000000000000000000000000000815250846040516020016103f391906117f5565b60405160208183030381529060405283610aa59092919063ffffffff16565b61045c6040518060400160405280600481526020017f70617468000000000000000000000000000000000000000000000000000000008152508583610aa59092919063ffffffff16565b61048b600760009054906101000a900473ffffffffffffffffffffffffffffffffffffffff1682600954610ad8565b91505092915050565b61049c610af8565b73ffffffffffffffffffffffffffffffffffffffff166104ba610759565b73ffffffffffffffffffffffffffffffffffffffff1614610510576040517f08c379a00000000000000000000000000000000000000000000000000000000081526004016105079061199d565b60405180910390fd5b6000811161051d57600080fd5b8060098190555050565b61052f610af8565b73ffffffffffffffffffffffffffffffffffffffff1661054d610759565b73ffffffffffffffffffffffffffffffffffffffff16146105a3576040517f08c379a000000000000000000000000000000000000000000000000000000000815260040161059a9061199d565b60405180910390fd5b8060088190555050565b6105b5610af8565b73ffffffffffffffffffffffffffffffffffffffff166105d3610759565b73ffffffffffffffffffffffffffffffffffffffff1614610629576040517f08c379a00000000000000000000000000000000000000000000000000000000081526004016106209061199d565b60405180910390fd5b6106336000610b00565b565b61063d610af8565b73ffffffffffffffffffffffffffffffffffffffff1661065b610759565b73ffffffffffffffffffffffffffffffffffffffff16146106b1576040517f08c379a00000000000000000000000000000000000000000000000000000000081526004016106a89061199d565b60405180910390fd5b600073ffffffffffffffffffffffffffffffffffffffff168173ffffffffffffffffffffffffffffffffffffffff1614156106eb57600080fd5b80600760006101000a81548173ffffffffffffffffffffffffffffffffffffffff021916908373ffffffffffffffffffffffffffffffffffffffff16021790555050565b6000600760009054906101000a900473ffffffffffffffffffffffffffffffffffffffff16905090565b6000600660009054906101000a900473ffffffffffffffffffffffffffffffffffffffff16905090565b600a5481565b610791610af8565b73ffffffffffffffffffffffffffffffffffffffff166107af610759565b73ffffffffffffffffffffffffffffffffffffffff1614610805576040517f08c379a00000000000000000000000000000000000000000000000000000000081526004016107fc9061199d565b60405180910390fd5b600061080f610bc6565b90508073ffffffffffffffffffffffffffffffffffffffff1663a9059cbb338373ffffffffffffffffffffffffffffffffffffffff166370a08231306040518263ffffffff1660e01b8152600401610867919061181b565b60206040518083038186803b15801561087f57600080fd5b505afa158015610893573d6000803e3d6000fd5b505050506040513d601f19601f820116820180604052508101906108b79190611604565b6040518363ffffffff1660e01b81526004016108d4929190611836565b602060405180830381600087803b1580156108ee57600080fd5b505af1158015610902573d6000803e3d6000fd5b505050506040513d601f19601f8201168201806040525081019061092691906114e1565b610965576040517f08c379a000000000000000000000000000000000000000000000000000000000815260040161095c9061197d565b60405180910390fd5b50565b6000600854905090565b6000600954905090565b610984610af8565b73ffffffffffffffffffffffffffffffffffffffff166109a2610759565b73ffffffffffffffffffffffffffffffffffffffff16146109f8576040517f08c379a00000000000000000000000000000000000000000000000000000000081526004016109ef9061199d565b60405180910390fd5b600073ffffffffffffffffffffffffffffffffffffffff168173ffffffffffffffffffffffffffffffffffffffff161415610a68576040517f08c379a0000000000000000000000000000000000000000000000000000000008152600401610a5f9061193d565b60405180910390fd5b610a7181610b00565b50565b610a7c611354565b610a84611354565b610a9b85858584610bf0909392919063ffffffff16565b9150509392505050565b610abc828460800151610ca090919063ffffffff16565b610ad3818460800151610ca090919063ffffffff16565b505050565b6000610aef8484846001634042994660e01b610cc5565b90509392505050565b600033905090565b6000600660009054906101000a900473ffffffffffffffffffffffffffffffffffffffff16905081600660006101000a81548173ffffffffffffffffffffffffffffffffffffffff021916908373ffffffffffffffffffffffffffffffffffffffff1602179055508173ffffffffffffffffffffffffffffffffffffffff168173ffffffffffffffffffffffffffffffffffffffff167f8be0079c531659141344cd1fd0a4f28419497f9722a3daafe3b4186f6b6457e060405160405180910390a35050565b6000600260009054906101000a900473ffffffffffffffffffffffffffffffffffffffff16905090565b610bf8611354565b610c088560800151610100610f2d565b508385600001818152505082856020019073ffffffffffffffffffffffffffffffffffffffff16908173ffffffffffffffffffffffffffffffffffffffff16815250508185604001907bffffffffffffffffffffffffffffffffffffffffffffffffffffffff191690817bffffffffffffffffffffffffffffffffffffffffffffffffffffffff191681525050849050949350505050565b610cad8260038351610f97565b610cc081836110dc90919063ffffffff16565b505050565b600030600454604051602001610cdc9291906117c9565b604051602081830303815290604052805190602001209050600454856060018181525050856005600083815260200190815260200160002060006101000a81548173ffffffffffffffffffffffffffffffffffffffff021916908373ffffffffffffffffffffffffffffffffffffffff160217905550807fb5e6e01e79f91267dc17b4e6314d5d4d03593d2ceee0fbb452b750bd70ea5af960405160405180910390a2600082600080886000015189602001518a604001518b606001518a8d6080015160000151604051602401610dba98979695949392919061185f565b604051602081830303815290604052907bffffffffffffffffffffffffffffffffffffffffffffffffffffffff19166020820180517bffffffffffffffffffffffffffffffffffffffffffffffffffffffff83818316178352505050509050600260009054906101000a900473ffffffffffffffffffffffffffffffffffffffff1673ffffffffffffffffffffffffffffffffffffffff16634000aea08887846040518463ffffffff1660e01b8152600401610e78939291906118e4565b602060405180830381600087803b158015610e9257600080fd5b505af1158015610ea6573d6000803e3d6000fd5b505050506040513d601f19601f82011682018060405250810190610eca91906114e1565b610f09576040517f08c379a0000000000000000000000000000000000000000000000000000000008152600401610f009061195d565b60405180910390fd5b600160046000828254610f1c9190611aa6565b925050819055505095945050505050565b610f356113c1565b6000602083610f449190611e3e565b14610f7057602082610f569190611e3e565b6020610f629190611cc7565b82610f6d9190611aa6565b91505b81836020018181525050604051808452600081528281016020016040525082905092915050565b60178111610fc457610fbe8160058460ff16901b60ff1617846110fe90919063ffffffff16565b506110d7565b60ff811161100657610fe9601860058460ff16901b17846110fe90919063ffffffff16565b506110008160018561111e9092919063ffffffff16565b506110d6565b61ffff81116110495761102c601960058460ff16901b17846110fe90919063ffffffff16565b506110438160028561111e9092919063ffffffff16565b506110d5565b63ffffffff811161108e57611071601a60058460ff16901b17846110fe90919063ffffffff16565b506110888160048561111e9092919063ffffffff16565b506110d4565b67ffffffffffffffff81116110d3576110ba601b60058460ff16901b17846110fe90919063ffffffff16565b506110d18160088561111e9092919063ffffffff16565b505b5b5b5b5b505050565b6110e46113c1565b6110f683846000015151848551611140565b905092915050565b6111066113c1565b611116838460000151518461122f565b905092915050565b6111266113c1565b611137848560000151518585611286565b90509392505050565b6111486113c1565b825182111561115657600080fd5b846020015182856111679190611aa6565b111561119c5761119b85600261118c886020015188876111879190611aa6565b611314565b6111969190611c6d565b611330565b5b6000808651805187602083010193508088870111156111bb5787860182525b60208701925050505b6020841061120257805182526020826111dd9190611aa6565b91506020816111ec9190611aa6565b90506020846111fb9190611cc7565b93506111c4565b60006001856020036101000a03905080198251168184511681811785525050508692505050949350505050565b6112376113c1565b8360200151831061125d5761125c84600286602001516112579190611c6d565b611330565b5b8351805160208583010184815381861415611279576001820183525b5050508390509392505050565b61128e6113c1565b8460200151848361129f9190611aa6565b11156112c7576112c685600286856112b79190611aa6565b6112c19190611c6d565b611330565b5b60006001836101006112d99190611b4f565b6112e39190611cc7565b905085518386820101858319825116178152815185880111156113065784870182525b505085915050949350505050565b6000818311156113265782905061132a565b8190505b92915050565b6000826000015190506113438383610f2d565b5061134e83826110dc565b50505050565b6040518060a0016040528060008019168152602001600073ffffffffffffffffffffffffffffffffffffffff16815260200160007bffffffffffffffffffffffffffffffffffffffffffffffffffffffff19168152602001600081526020016113bb6113c1565b81525090565b604051806040016040528060608152602001600081525090565b60006113ee6113e984611a3d565b611a18565b90508281526020810184848401111561140a57611409611f01565b5b611415848285611d9d565b509392505050565b60008135905061142c816120cc565b92915050565b600081519050611441816120e3565b92915050565b600081359050611456816120fa565b92915050565b600082601f83011261147157611470611efc565b5b81356114818482602086016113db565b91505092915050565b60008135905061149981612111565b92915050565b6000815190506114ae81612111565b92915050565b6000602082840312156114ca576114c9611f0b565b5b60006114d88482850161141d565b91505092915050565b6000602082840312156114f7576114f6611f0b565b5b600061150584828501611432565b91505092915050565b60006020828403121561152457611523611f0b565b5b600061153284828501611447565b91505092915050565b6000806040838503121561155257611551611f0b565b5b600061156085828601611447565b925050602061157185828601611447565b9150509250929050565b6000806040838503121561159257611591611f0b565b5b600083013567ffffffffffffffff8111156115b0576115af611f06565b5b6115bc8582860161145c565b92505060206115cd8582860161148a565b9150509250929050565b6000602082840312156115ed576115ec611f0b565b5b60006115fb8482850161148a565b91505092915050565b60006020828403121561161a57611619611f0b565b5b60006116288482850161149f565b91505092915050565b61163a81611cfb565b82525050565b61164981611d19565b82525050565b61165881611d23565b82525050565b600061166982611a6e565b6116738185611a79565b9350611683818560208601611dac565b61168c81611f10565b840191505092915050565b6116a86116a382611d79565b611e10565b82525050565b60006116bb602683611a8a565b91506116c682611f3b565b604082019050919050565b60006116de602383611a8a565b91506116e982611f8a565b604082019050919050565b6000611701601d83611a9b565b915061170c82611fd9565b601d82019050919050565b6000611724601283611a8a565b915061172f82612002565b602082019050919050565b6000611747602083611a8a565b91506117528261202b565b602082019050919050565b600061176a602883611a8a565b915061177582612054565b604082019050919050565b600061178d601b83611a8a565b9150611798826120a3565b602082019050919050565b6117ac81611d6f565b82525050565b6117c36117be82611d6f565b611e34565b82525050565b60006117d58285611697565b6014820191506117e582846117b2565b6020820191508190509392505050565b6000611800826116f4565b915061180c82846117b2565b60208201915081905092915050565b60006020820190506118306000830184611631565b92915050565b600060408201905061184b6000830185611631565b61185860208301846117a3565b9392505050565b600061010082019050611875600083018b611631565b611882602083018a6117a3565b61188f6040830189611640565b61189c6060830188611631565b6118a9608083018761164f565b6118b660a08301866117a3565b6118c360c08301856117a3565b81810360e08301526118d5818461165e565b90509998505050505050505050565b60006060820190506118f96000830186611631565b61190660208301856117a3565b8181036040830152611918818461165e565b9050949350505050565b60006020820190506119376000830184611640565b92915050565b60006020820190508181036000830152611956816116ae565b9050919050565b60006020820190508181036000830152611976816116d1565b9050919050565b6000602082019050818103600083015261199681611717565b9050919050565b600060208201905081810360008301526119b68161173a565b9050919050565b600060208201905081810360008301526119d68161175d565b9050919050565b600060208201905081810360008301526119f681611780565b9050919050565b6000602082019050611a1260008301846117a3565b92915050565b6000611a22611a33565b9050611a2e8282611ddf565b919050565b6000604051905090565b600067ffffffffffffffff821115611a5857611a57611ecd565b5b611a6182611f10565b9050602081019050919050565b600081519050919050565b600082825260208201905092915050565b600082825260208201905092915050565b600081905092915050565b6000611ab182611d6f565b9150611abc83611d6f565b9250827fffffffffffffffffffffffffffffffffffffffffffffffffffffffffffffffff03821115611af157611af0611e6f565b5b828201905092915050565b6000808291508390505b6001851115611b4657808604811115611b2257611b21611e6f565b5b6001851615611b315780820291505b8081029050611b3f85611f2e565b9450611b06565b94509492505050565b6000611b5a82611d6f565b9150611b6583611d6f565b9250611b927fffffffffffffffffffffffffffffffffffffffffffffffffffffffffffffffff8484611b9a565b905092915050565b600082611baa5760019050611c66565b81611bb85760009050611c66565b8160018114611bce5760028114611bd857611c07565b6001915050611c66565b60ff841115611bea57611be9611e6f565b5b8360020a915084821115611c0157611c00611e6f565b5b50611c66565b5060208310610133831016604e8410600b8410161715611c3c5782820a905083811115611c3757611c36611e6f565b5b611c66565b611c498484846001611afc565b92509050818404811115611c6057611c5f611e6f565b5b81810290505b9392505050565b6000611c7882611d6f565b9150611c8383611d6f565b9250817fffffffffffffffffffffffffffffffffffffffffffffffffffffffffffffffff0483118215151615611cbc57611cbb611e6f565b5b828202905092915050565b6000611cd282611d6f565b9150611cdd83611d6f565b925082821015611cf057611cef611e6f565b5b828203905092915050565b6000611d0682611d4f565b9050919050565b60008115159050919050565b6000819050919050565b60007fffffffff0000000000000000000000000000000000000000000000000000000082169050919050565b600073ffffffffffffffffffffffffffffffffffffffff82169050919050565b6000819050919050565b6000611d8482611d8b565b9050919050565b6000611d9682611d4f565b9050919050565b82818337600083830152505050565b60005b83811015611dca578082015181840152602081019050611daf565b83811115611dd9576000848401525b50505050565b611de882611f10565b810181811067ffffffffffffffff82111715611e0757611e06611ecd565b5b80604052505050565b6000611e1b82611e22565b9050919050565b6000611e2d82611f21565b9050919050565b6000819050919050565b6000611e4982611d6f565b9150611e5483611d6f565b925082611e6457611e63611e9e565b5b828206905092915050565b7f4e487b7100000000000000000000000000000000000000000000000000000000600052601160045260246000fd5b7f4e487b7100000000000000000000000000000000000000000000000000000000600052601260045260246000fd5b7f4e487b7100000000000000000000000000000000000000000000000000000000600052604160045260246000fd5b600080fd5b600080fd5b600080fd5b600080fd5b6000601f19601f8301169050919050565b60008160601b9050919050565b60008160011c9050919050565b7f4f776e61626c653a206e6577206f776e657220697320746865207a65726f206160008201527f6464726573730000000000000000000000000000000000000000000000000000602082015250565b7f756e61626c6520746f207472616e73666572416e6443616c6c20746f206f726160008201527f636c650000000000000000000000000000000000000000000000000000000000602082015250565b7f68747470733a2f2f78797a2f6d65726b6c65726f6f743f65706f63683d000000600082015250565b7f556e61626c6520746f207472616e736665720000000000000000000000000000600082015250565b7f4f776e61626c653a2063616c6c6572206973206e6f7420746865206f776e6572600082015250565b7f536f75726365206d75737420626520746865206f7261636c65206f662074686560008201527f2072657175657374000000000000000000000000000000000000000000000000602082015250565b7f5265717565737465642070617468206973206e6f742076616c69640000000000600082015250565b6120d581611cfb565b81146120e057600080fd5b50565b6120ec81611d0d565b81146120f757600080fd5b50565b61210381611d19565b811461210e57600080fd5b50565b61211a81611d6f565b811461212557600080fd5b5056fea2646970667358221220296c7750e8933d63dac0302773f08120eed0cd6cab0ac2c1949142120f5eb3e464736f6c63430008060033",
  "linkReferences": {},
  "deployedLinkReferences": {}
}