{
  "_format": "hh-sol-artifact-1",
  "contractName": "MerkleDistributor",
  "sourceName": "contracts/MerkleDistributor.sol",
  "abi": [
    {
      "inputs": [
        {
          "internalType": "address",
          "name": "token_",
          "type": "address"
        }
      ],
      "stateMutability": "nonpayable",
      "type": "constructor"
    },
    {
      "anonymous": false,
      "inputs": [
        {
          "indexed": false,
          "internalType": "uint256",
          "name": "epoch",
          "type": "uint256"
        },
        {
          "indexed": false,
          "internalType": "uint256",
          "name": "index",
          "type": "uint256"
        },
        {
          "indexed": false,
          "internalType": "address",
          "name": "account",
          "type": "address"
        },
        {
          "indexed": false,
          "internalType": "uint256",
          "name": "amount",
          "type": "uint256"
        }
      ],
      "name": "Claimed",
      "type": "event"
    },
    {
      "anonymous": false,
      "inputs": [
        {
          "indexed": true,
          "internalType": "address",
          "name": "previousOwner",
          "type": "address"
        },
        {
          "indexed": true,
          "internalType": "address",
          "name": "newOwner",
          "type": "address"
        }
      ],
      "name": "OwnershipTransferred",
      "type": "event"
    },
    {
      "inputs": [
        {
          "internalType": "uint256",
          "name": "index",
          "type": "uint256"
        },
        {
          "internalType": "address",
          "name": "account",
          "type": "address"
        },
        {
          "internalType": "uint256",
          "name": "amount",
          "type": "uint256"
        },
        {
          "internalType": "bytes32[]",
          "name": "merkleProof",
          "type": "bytes32[]"
        },
        {
          "internalType": "uint256",
          "name": "_epoch",
          "type": "uint256"
        }
      ],
      "name": "claim",
      "outputs": [],
      "stateMutability": "nonpayable",
      "type": "function"
    },
    {
      "inputs": [
        {
          "internalType": "uint256",
          "name": "index",
          "type": "uint256"
        },
        {
          "internalType": "uint256",
          "name": "_epoch",
          "type": "uint256"
        }
      ],
      "name": "isClaimed",
      "outputs": [
        {
          "internalType": "bool",
          "name": "",
          "type": "bool"
        }
      ],
      "stateMutability": "view",
      "type": "function"
    },
    {
      "inputs": [
        {
          "internalType": "uint256",
          "name": "",
          "type": "uint256"
        }
      ],
      "name": "merkleRootInEpoch",
      "outputs": [
        {
          "internalType": "bytes32",
          "name": "",
          "type": "bytes32"
        }
      ],
      "stateMutability": "view",
      "type": "function"
    },
    {
      "inputs": [],
      "name": "owner",
      "outputs": [
        {
          "internalType": "address",
          "name": "",
          "type": "address"
        }
      ],
      "stateMutability": "view",
      "type": "function"
    },
    {
      "inputs": [],
      "name": "renounceOwnership",
      "outputs": [],
      "stateMutability": "nonpayable",
      "type": "function"
    },
    {
      "inputs": [
        {
          "internalType": "bytes32",
          "name": "_merkleRoot",
          "type": "bytes32"
        },
        {
          "internalType": "uint256",
          "name": "_epoch",
          "type": "uint256"
        }
      ],
      "name": "setMerkleRootPerEpoch",
      "outputs": [],
      "stateMutability": "nonpayable",
      "type": "function"
    },
    {
      "inputs": [],
      "name": "token",
      "outputs": [
        {
          "internalType": "address",
          "name": "",
          "type": "address"
        }
      ],
      "stateMutability": "view",
      "type": "function"
    },
    {
      "inputs": [
        {
          "internalType": "address",
          "name": "newOwner",
          "type": "address"
        }
      ],
      "name": "transferOwnership",
      "outputs": [],
      "stateMutability": "nonpayable",
      "type": "function"
    }
  ],
  "bytecode": "0x60a06040523480156200001157600080fd5b506040516200147c3803806200147c833981810160405281019062000037919062000178565b620000576200004b6200009560201b60201c565b6200009d60201b60201c565b8073ffffffffffffffffffffffffffffffffffffffff1660808173ffffffffffffffffffffffffffffffffffffffff1660601b8152505050620001fd565b600033905090565b60008060009054906101000a900473ffffffffffffffffffffffffffffffffffffffff169050816000806101000a81548173ffffffffffffffffffffffffffffffffffffffff021916908373ffffffffffffffffffffffffffffffffffffffff1602179055508173ffffffffffffffffffffffffffffffffffffffff168173ffffffffffffffffffffffffffffffffffffffff167f8be0079c531659141344cd1fd0a4f28419497f9722a3daafe3b4186f6b6457e060405160405180910390a35050565b6000815190506200017281620001e3565b92915050565b600060208284031215620001915762000190620001de565b5b6000620001a18482850162000161565b91505092915050565b6000620001b782620001be565b9050919050565b600073ffffffffffffffffffffffffffffffffffffffff82169050919050565b600080fd5b620001ee81620001aa565b8114620001fa57600080fd5b50565b60805160601c6112596200022360003960008181610479015261070b01526112596000f3fe608060405234801561001057600080fd5b50600436106100885760003560e01c8063c02bb7ba1161005b578063c02bb7ba14610101578063f2fde38b1461011d578063f364c90c14610139578063fc0c546a1461016957610088565b80632ea8b5371461008d5780636313b0ba146100a9578063715018a6146100d95780638da5cb5b146100e3575b600080fd5b6100a760048036038101906100a29190610a30565b610187565b005b6100c360048036038101906100be9190610a70565b61021f565b6040516100d09190610d92565b60405180910390f35b6100e1610237565b005b6100eb6102bf565b6040516100f89190610d33565b60405180910390f35b61011b60048036038101906101169190610a9d565b6102e8565b005b610137600480360381019061013291906109d6565b6105a9565b005b610153600480360381019061014e9190610b37565b6106a1565b6040516101609190610d77565b60405180910390f35b610171610709565b60405161017e9190610d33565b60405180910390f35b61018f61072d565b73ffffffffffffffffffffffffffffffffffffffff166101ad6102bf565b73ffffffffffffffffffffffffffffffffffffffff1614610203576040517f08c379a00000000000000000000000000000000000000000000000000000000081526004016101fa90610e2d565b60405180910390fd5b8160026000838152602001908152602001600020819055505050565b60026020528060005260406000206000915090505481565b61023f61072d565b73ffffffffffffffffffffffffffffffffffffffff1661025d6102bf565b73ffffffffffffffffffffffffffffffffffffffff16146102b3576040517f08c379a00000000000000000000000000000000000000000000000000000000081526004016102aa90610e2d565b60405180910390fd5b6102bd6000610735565b565b60008060009054906101000a900473ffffffffffffffffffffffffffffffffffffffff16905090565b6102f286826106a1565b15610332576040517f08c379a000000000000000000000000000000000000000000000000000000000815260040161032990610ded565b60405180910390fd5b3373ffffffffffffffffffffffffffffffffffffffff168573ffffffffffffffffffffffffffffffffffffffff16146103a0576040517f08c379a000000000000000000000000000000000000000000000000000000000815260040161039790610e4d565b60405180910390fd5b60008686866040516020016103b793929190610cf6565b60405160208183030381529060405280519060200120905061042e848480806020026020016040519081016040528093929190818152602001838360200280828437600081840152601f19601f820116905080830192505050505050506002600085815260200190815260200160002054836107f9565b61046d576040517f08c379a000000000000000000000000000000000000000000000000000000000815260040161046490610dad565b60405180910390fd5b61047787836108af565b7f000000000000000000000000000000000000000000000000000000000000000073ffffffffffffffffffffffffffffffffffffffff1663a9059cbb87876040518363ffffffff1660e01b81526004016104d2929190610d4e565b602060405180830381600087803b1580156104ec57600080fd5b505af1158015610500573d6000803e3d6000fd5b505050506040513d601f19601f820116820180604052508101906105249190610a03565b610563576040517f08c379a000000000000000000000000000000000000000000000000000000000815260040161055a90610e0d565b60405180910390fd5b7fb94bf7f9302edf52a596286915a69b4b0685574cffdedd0712e3c62f2550f0ba828888886040516105989493929190610e6d565b60405180910390a150505050505050565b6105b161072d565b73ffffffffffffffffffffffffffffffffffffffff166105cf6102bf565b73ffffffffffffffffffffffffffffffffffffffff1614610625576040517f08c379a000000000000000000000000000000000000000000000000000000000815260040161061c90610e2d565b60405180910390fd5b600073ffffffffffffffffffffffffffffffffffffffff168173ffffffffffffffffffffffffffffffffffffffff161415610695576040517f08c379a000000000000000000000000000000000000000000000000000000000815260040161068c90610dcd565b60405180910390fd5b61069e81610735565b50565b600080610100846106b29190610ec3565b90506000610100856106c49190610fc7565b905060006001600086815260200190815260200160002060008481526020019081526020016000205490506000826001901b9050808183161494505050505092915050565b7f000000000000000000000000000000000000000000000000000000000000000081565b600033905090565b60008060009054906101000a900473ffffffffffffffffffffffffffffffffffffffff169050816000806101000a81548173ffffffffffffffffffffffffffffffffffffffff021916908373ffffffffffffffffffffffffffffffffffffffff1602179055508173ffffffffffffffffffffffffffffffffffffffff168173ffffffffffffffffffffffffffffffffffffffff167f8be0079c531659141344cd1fd0a4f28419497f9722a3daafe3b4186f6b6457e060405160405180910390a35050565b60008082905060005b85518110156108a15760008682815181106108205761081f611056565b5b60200260200101519050808311610861578281604051602001610844929190610cca565b60405160208183030381529060405280519060200120925061088d565b8083604051602001610874929190610cca565b6040516020818303038152906040528051906020012092505b50808061089990610f46565b915050610802565b508381149150509392505050565b6000610100836108bf9190610ec3565b90506000610100846108d19190610fc7565b9050806001901b60016000858152602001908152602001600020600084815260200190815260200160002054176001600085815260200190815260200160002060008481526020019081526020016000208190555050505050565b60008135905061093b816111c7565b92915050565b60008083601f8401126109575761095661108a565b5b8235905067ffffffffffffffff81111561097457610973611085565b5b6020830191508360208202830111156109905761098f61108f565b5b9250929050565b6000815190506109a6816111de565b92915050565b6000813590506109bb816111f5565b92915050565b6000813590506109d08161120c565b92915050565b6000602082840312156109ec576109eb611099565b5b60006109fa8482850161092c565b91505092915050565b600060208284031215610a1957610a18611099565b5b6000610a2784828501610997565b91505092915050565b60008060408385031215610a4757610a46611099565b5b6000610a55858286016109ac565b9250506020610a66858286016109c1565b9150509250929050565b600060208284031215610a8657610a85611099565b5b6000610a94848285016109c1565b91505092915050565b60008060008060008060a08789031215610aba57610ab9611099565b5b6000610ac889828a016109c1565b9650506020610ad989828a0161092c565b9550506040610aea89828a016109c1565b945050606087013567ffffffffffffffff811115610b0b57610b0a611094565b5b610b1789828a01610941565b93509350506080610b2a89828a016109c1565b9150509295509295509295565b60008060408385031215610b4e57610b4d611099565b5b6000610b5c858286016109c1565b9250506020610b6d858286016109c1565b9150509250929050565b610b8081610ef4565b82525050565b610b97610b9282610ef4565b610f8f565b82525050565b610ba681610f06565b82525050565b610bb581610f12565b82525050565b610bcc610bc782610f12565b610fa1565b82525050565b6000610bdf601283610eb2565b9150610bea826110ab565b602082019050919050565b6000610c02602683610eb2565b9150610c0d826110d4565b604082019050919050565b6000610c25601983610eb2565b9150610c3082611123565b602082019050919050565b6000610c48601483610eb2565b9150610c538261114c565b602082019050919050565b6000610c6b602083610eb2565b9150610c7682611175565b602082019050919050565b6000610c8e601e83610eb2565b9150610c998261119e565b602082019050919050565b610cad81610f3c565b82525050565b610cc4610cbf82610f3c565b610fbd565b82525050565b6000610cd68285610bbb565b602082019150610ce68284610bbb565b6020820191508190509392505050565b6000610d028286610cb3565b602082019150610d128285610b86565b601482019150610d228284610cb3565b602082019150819050949350505050565b6000602082019050610d486000830184610b77565b92915050565b6000604082019050610d636000830185610b77565b610d706020830184610ca4565b9392505050565b6000602082019050610d8c6000830184610b9d565b92915050565b6000602082019050610da76000830184610bac565b92915050565b60006020820190508181036000830152610dc681610bd2565b9050919050565b60006020820190508181036000830152610de681610bf5565b9050919050565b60006020820190508181036000830152610e0681610c18565b9050919050565b60006020820190508181036000830152610e2681610c3b565b9050919050565b60006020820190508181036000830152610e4681610c5e565b9050919050565b60006020820190508181036000830152610e6681610c81565b9050919050565b6000608082019050610e826000830187610ca4565b610e8f6020830186610ca4565b610e9c6040830185610b77565b610ea96060830184610ca4565b95945050505050565b600082825260208201905092915050565b6000610ece82610f3c565b9150610ed983610f3c565b925082610ee957610ee8611027565b5b828204905092915050565b6000610eff82610f1c565b9050919050565b60008115159050919050565b6000819050919050565b600073ffffffffffffffffffffffffffffffffffffffff82169050919050565b6000819050919050565b6000610f5182610f3c565b91507fffffffffffffffffffffffffffffffffffffffffffffffffffffffffffffffff821415610f8457610f83610ff8565b5b600182019050919050565b6000610f9a82610fab565b9050919050565b6000819050919050565b6000610fb68261109e565b9050919050565b6000819050919050565b6000610fd282610f3c565b9150610fdd83610f3c565b925082610fed57610fec611027565b5b828206905092915050565b7f4e487b7100000000000000000000000000000000000000000000000000000000600052601160045260246000fd5b7f4e487b7100000000000000000000000000000000000000000000000000000000600052601260045260246000fd5b7f4e487b7100000000000000000000000000000000000000000000000000000000600052603260045260246000fd5b600080fd5b600080fd5b600080fd5b600080fd5b600080fd5b60008160601b9050919050565b7f4d443a20496e76616c69642070726f6f662e0000000000000000000000000000600082015250565b7f4f776e61626c653a206e6577206f776e657220697320746865207a65726f206160008201527f6464726573730000000000000000000000000000000000000000000000000000602082015250565b7f4d443a2044726f7020616c726561647920636c61696d65642e00000000000000600082015250565b7f4d443a205472616e73666572206661696c65642e000000000000000000000000600082015250565b7f4f776e61626c653a2063616c6c6572206973206e6f7420746865206f776e6572600082015250565b7f436c61696d6572206973206120646966666572656e74206163636f756e740000600082015250565b6111d081610ef4565b81146111db57600080fd5b50565b6111e781610f06565b81146111f257600080fd5b50565b6111fe81610f12565b811461120957600080fd5b50565b61121581610f3c565b811461122057600080fd5b5056fea2646970667358221220b8c061f16797e8f3ff459db555ddb18f9d1b40e72a80d7ccf5712ff4fc70171164736f6c63430008060033",
  "linkReferences": {},
  "deployedLinkReferences": {}
}